:020000040000fa
:080000000002040000000000f2
:020000040000fa
:100008009402000094020000940200009402000090
:100018009402000094020000940200009402000080
:1000280094020000940200009a0700009402000065
:10003800940200009402000094020000c20600002e
:100048009402000094020000940200009402000050
:100058009402000094020000940200009402000040
:100068009402000094020000940200009402000030
:100078009402000094020000940200009402000020
:100088009402000094020000940200009402000010
:100098009402000094020000940200009402000000
:1000a80094020000940200009402000094020000f0
:1000b80094020000940200009402000094020000e0
:1000c80094020000940200009402000094020000d0
:1000d80094020000940200009402000094020000c0
:1000e80094020000940200009402000094020000b0
:1000f80094020000940200009402000094020000a0
:10010800940200009402000094020000940200008f
:10011800940200009402000094020000940200007f
:10012800940200009402000094020000940200006f
:10013800940200009402000094020000940200005f
:10014800940200009402000094020000940200004f
:10015800940200009402000094020000940200003f
:10016800940200009402000094020000940200002f
:10017800940200009402000094020000940200001f
:10018800940200009402000094020000940200000f
:1001980094020000940200009402000094020000ff
:1001a80094020000940200009402000094020000ef
:1001b80094020000940200009402000094020000df
:1001c80094020000940200009402000094020000cf
:1001d80094020000940200009402000094020000bf
:1001e80094020000940200009402000094020000af
:0801f8009402000094020000d3
:020000040000fa
:10020800940200009402000094020000940200008e
:10021800940200009402000094020000940200007e
:1002280094020000940200009a0700009402000063
:10023800940200009402000094020000c20600002c
:10024800940200009402000094020000940200004e
:10025800940200009402000094020000940200003e
:10026800940200009402000094020000940200002e
:10027800940200009402000094020000940200001e
:10028800940200009402000094020000940200000e
:1002980094020000940200009402000094020000fe
:1002a80094020000940200009402000094020000ee
:1002b80094020000940200009402000094020000de
:1002c80094020000940200009402000094020000ce
:1002d80094020000940200009402000094020000be
:1002e80094020000940200009402000094020000ae
:1002f800940200009402000094020000940200009e
:10030800940200009402000094020000940200008d
:10031800940200009402000094020000940200007d
:10032800940200009402000094020000940200006d
:10033800940200009402000094020000940200005d
:10034800940200009402000094020000940200004d
:10035800940200009402000094020000940200003d
:10036800940200009402000094020000940200002d
:10037800940200009402000094020000940200001d
:10038800940200009402000094020000940200000d
:1003980094020000940200009402000094020000fd
:1003a80094020000940200009402000094020000ed
:1003b80094020000940200009402000094020000dd
:1003c80094020000940200009402000094020000cd
:1003d80094020000940200009402000094020000bd
:1003e80094020000940200009402000094020000ad
:0803f8009402000094020000d1
:020000040000fa
:100400002fad20000e7f22000e01880000000000aa
:1004100000012000200288000c000700e085200079
:100420000100200011000700000020000000e00093
:100430000200320000000200000000002c08020050
:10044000000000000040da000000fe004440a90067
:10045000603220000000e0000300320000002000b5
:10046000a00188004440a800000006009101880017
:10047000800078000000eb0015003700e2804000ab
:1004800032a0b4009101ba00e280400032a0b40072
:100490009102ba00e280400032a0b4000002eb00fa
:1004a000472bde00f507b200602ce10004003a00a3
:1004b0000059eb008301e900fdff3e000400370016
:1004c0006128e100010032000082eb000400070017
:1004d0001101ba000200e000e8ff3a000000060047
:1004e0003159ba008301e9000c0032002159ba00e9
:1004f0008301e900080032000400e00003003a0034
:10050000e280400032a0b400f5ff370011d9ba00f4
:100510008301e900faff3a008100e800e180400031
:1005200032a0b400000006000040da000000fe0027
:1005300000027800808f5000080031008282400065
:10054000808f5200050036000202400045627800ac
:100550000201e900fdff3a0000000600e00f510033
:1005600003003200315a78000201e900fbff370036
:10057000000006000002780002003700015a7800ef
:100580000201e900e00f5100fcff3a000000060004
:020000040000fa
:10059000000000000000000000000000000000005b
:1005a000080800000808000008000000080000001b
:1005b00014140000140000000000000000000000ff
:1005c000141400003e1400003e140000140000004b
:1005d000081e0000281c00000a3c00000800000063
:1005e0003032000004080000102600000600000061
:1005f00018240000281000002a2400001a0000001f
:1006000018080000100000000000000000000000ba
:100610000408000010100000100800000400000092
:10062000100800000404000004080000100000008e
:10063000000800002a1c00002a080000000000003a
:1006400000080000083e000008080000000000004c
:10065000000000000000000018080000100000006a
:1006600000000000003c000000000000000000004e
:10067000000000000000000000180000180000004a
:10068000000200000408000010200000000000002c
:100690001c220000262a0000322200001c0000005c
:1006a0000818000008080000080800003e000000cc
:1006b0001c22000004080000102000003e00000082
:1006c0003c020000023c0000020200003c0000006e
:1006d000040c0000142400003e040000040000008c
:1006e0003e200000203c0000020200003c00000010
:1006f0000c100000203c0000222200001c00000022
:100700003e0200000408000010100000100000006d
:100710001c220000221c0000222200001c000000fd
:100720001c220000221c0000020200001c0000002d
:100730000018000018000000181800000000000059
:100740000018000018000000180800001000000049
:100750000408000010200000100800000400000041
:10076000000000003e0000003e000000000000000d
:10077000100800000402000004080000100000003f
:100780001c22000002040000080000000800000015
:100790001c220000021a00002a2a00001c0000008f
:1007a0001c220000223e0000222200002200000045
:1007b0003c220000223c0000222200003c000000fd
:1007c0001e20000020200000202000001e0000004d
:1007d0003c22000022220000222200003c000000f7
:1007e0003e200000203e0000202000003e000000cf
:1007f0003e200000203e00002020000020000000dd
:100800001e200000202c0000222200001c000000fe
:1008100022220000223e00002222000022000000ce
:100820001c08000008080000080800001c00000068
:100830001e02000002020000022400001800000056
:10084000222400002830000028240000220000009c
:100850002020000020200000202000003e0000009a
:10086000223600002a22000022220000220000007e
:1008700022220000322a000026220000220000006e
:100880001c22000022220000222200001c00000086
:100890003c220000223c000020200000200000003c
:1008a0001c220000222200002a2600001e00000058
:1008b0003c220000223c000028240000220000000e
:1008c0001e200000201c0000020200003c0000006e
:1008d0003e080000080800000808000008000000aa
:1008e0002222000022220000222200001c00000020
:1008f0002222000022220000221400000800000032
:1009000022220000222a00002a36000022000000d5
:10091000222200001408000014220000220000001f
:100920002222000022140000080800000800000035
:100930003e04000008100000202000003e000000df
:100940001810000010100000101000001800000027
:100950000020000010080000040200000000000059
:100960000602000002020000020200000600000071
:100970000814000022000000000000000000000039
:100980000000000000000000000000003e00000029
:10099000100800000400000000000000000000003b
:1009a000000000001c0200001e2200001e000000cb
:1009b00020200000202c0000322200003c0000001b
:1009c000000000001c200000202200001c0000008d
:1009d00002020000021a0000262200001e00000091
:1009e000000000001c2200003e2000001c0000004f
:1009f0000c12000010380000101000001000000061
:100a0000000000001e220000221e0000021c000048
:100a1000202000002c3200002222000022000000d2
:100a2000000800000008000008080000080000009e
:100a3000040000000c040000042400001800000062
:100a4000202000002428000030280000240000009e
:100a50001808000008080000080800001c0000003a
:100a600000000000342a00002a22000022000000ba
:100a7000000000002c3200002222000022000000b2
:100a8000000000001c220000222200001c000000c8
:100a9000000000003c220000223c0000202000005a
:100aa000000000001a240000242c0000140600009e
:100ab000000000002c320000202000002000000078
:100ac000000000001c2000001c0200003c00000090
:100ad0001010000038100000101200000c00000080
:100ae0000000000022220000222600001a00000060
:100af0000000000022220000221400000800000074
:100b000000000000222200002a2a00001400000039
:100b10000000000022140000081400002200000061
:100b20000000000022220000221e0000021c000023
:100b3000000000003e040000081000003e0000001d
:100b40000810000010200000101000000800000035
:100b5000080800000808000008080000080000005d
:100b60001008000008040000080800001000000041
:100b700000000000102a0000040000000000000037
:100b80003e22000022220000222200003e0000003f
:100b9000686500006c6c00006f200000776f00003b
:100ba000726c00006421000000200000323300005d
:100bb000343500003637000038390000303100008d
:100bc0003233000034350000363700003839000079
:0c0bd00030310000327c0000000000000a
:020000040000fa
:100bdc008002eb0085088800843f200064088800b0
:100bec00b6042000160c8800040c88005400200069
:100bfc00240c880066092000760c8800863e2000b4
:100c0c00660c8800840c88008440a90000702000c9
:100c1c00a420b70084e0a90000002700a620b7009c
:100c2c0094e0a800151288004382a80042a2a800f4
:100c3c00c00120004222b700141280000400a10061
:100c4c000410a00014128800140020002412880044
:100c5c0041e2a80011e1a8008002fd00aceab70057
:100c6c00adeab7008002fd0000000600445580008c
:100c7c005555800000004200e0804a004455800039
:100c8c0055558000840f5000858f5800fbff3e00a7
:100c9c0000000600a62aa800a62aab00feff3a0018
:100cac0000000600a64aa80000000600aceab70047
:100cbc0001007800adeab700000006006055800026
:100ccc00000006008456800005ab200080727a007c
:100cdc000402e80084568800f0012000d02ab600f7
:100cec00a60aa80000000600881f780000047800ff
:100cfc0018407800e04f500004003200f1ff07006c
:100d0c0058407800e04f5000fcff3a004f04780048
:100d1c0000000600a60aab00feff3a000000060029
:100d2c00a22820009181200000802000fdfd0700fa
:100d3c00a4a8200018000900005aeb0000000600cf
:100d4c00ad6aec00d4aa200014427800f84f52008f
:100d5c0008003600ad6aef00ac6aec00c4aa2000b3
:100d6c0014427800fa4f520002003600ac6aed00d3
:100d7c00ebff07000000060000a0fe003600f800a4
:100d8c00849fbe00869fbe00245580000402e800ac
:100d9c0024558800fc0f52001300320005003e0061
:100dac00e10f52000a003200e40f52001d003a001d
:100dbc000a003700450f2000850f52000e0032004c
:100dcc00f3824200850f520016003a000d003700e6
:100ddc00d43a2000140c88004d003700b4042000d5
:100dec00140c88004a0037008440a9009440a800e5
:100dfc00a66aa900460037009440a900a66aa8007c
:100e0c0043003700a42aef0044558000555580005c
:100e1c0061024200e0824a00445588005555880022
:100e2c003b003700a66aab0039003200a62aab00a3
:100e3c000a00320005802000a2020900805aeb0053
:100e4c00a62aa9000042eb000002fd00aceab700a4
:100e5c00adeab7000002fd002d003700a64aab003a
:100e6c0012003200d4aa200014427800accabf0091
:100e7c00d5aa2000954278000482fb00790212006a
:100e8c0092c1b3000440bc008582fb000500410008
:100e9c000680200006004000040178008000eb0072
:100eac00b1fd0700a64aa90019003700a60aab003d
:100ebc0017003200accabf00d5aa200095427800ba
:100ecc007455800006ab200066427a008582fb00d8
:100edc0092c1b3000440bc00850241000680200092
:100eec008502430006ceb300864a420094ff0700f9
:100efc00ae2aec00f0012000ae2ab6007555800039
:100f0c0084568000848f520001003a00a60aa90082
:100f1c0084e0a9004f03be004f02be003600f9006a
:100f2c000080fe000040060000a0fe00849fbe0072
:100f3c00869fbe00245580007c0252006700620030
:100f4c004322de007922b90006802000840243008f
:100f5c00068020005416800006026200fdff32005d
:100f6c00f9834200862c28004022ab00feff3a0099
:100f7c003502fb004322dd000002420066427a008b
:100f8c000482fb0044128800878f5200f6ff3a005f
:100f9c004022ab00feff3a004822ef008440a9003b
:100fac004f03be004f02be000080fe000040060052
:100fbc00163a8000f60bb200640420007505200080
:100fcc0027742000844b7800854b7800864b780082
:100fdc0026368000f70f2e00070363000030210037
:100fec0000037300263688003036800006fe2f0082
:100ffc00060060002001b3003036880030368000d7
:10100c0087036000007020008083730037368800ef
:10101c0057368000068363004601b30056368800bd
:10102c00c8a2a900c8c2a900c8e2a900c942a90067
:10103c00163a80000660a00027742000844b7800cc
:10104c00854b7800864b780000000600889fbe0018
:10105c008a1f7800d6ff0700ddfe07000004eb00b6
:10106c00a90020005a5d28008000eb0008007800e1
:10107c000eff0700811f7800110009000904d80039
:10108c0001007800cf0078000043b0000dff07008e
:10109c000a00780014ff070020002000f3fe070070
:1010ac000804e800fb0f5400efff3a00ffff370085
:020000040000fa
:1010bc0000080000d2020000000000000000000048
:020000040000fa
:020000040001f9
:0457f800be2b0000c4
:020000040000fa
:020000040001f9
:0457fc007f3f0000eb
:00000001FF
