:020000040000fa
:080000000002040000000000f2
:020000040000fa
:100008009802000098020000980200009802000080
:100018009802000098020000980200009802000070
:10002800980200009802000098020000c820000012
:10003800980200009802000098020000de210000eb
:10004800cc230000980200009802000098020000eb
:100058009802000098020000980200009802000030
:10006800980200009802000098020000aa220000ee
:100078009802000098020000980200009802000010
:100088009802000098020000980200009802000000
:1000980098020000980200009802000098020000f0
:1000a80098020000980200009802000098020000e0
:1000b80098020000980200009802000098020000d0
:1000c80098020000980200009802000098020000c0
:1000d80098020000980200009802000098020000b0
:1000e80098020000980200009802000098020000a0
:1000f8009802000098020000980200009802000090
:10010800980200009802000098020000980200007f
:10011800980200009802000098020000980200006f
:10012800980200009802000098020000980200005f
:10013800980200009802000098020000980200004f
:10014800980200009802000098020000980200003f
:10015800980200009802000098020000980200002f
:10016800980200009802000098020000980200001f
:10017800980200009802000098020000980200000f
:1001880098020000980200009802000098020000ff
:1001980098020000980200009802000098020000ef
:1001a80098020000980200009802000098020000df
:1001b80098020000980200009802000098020000cf
:1001c80098020000980200009802000098020000bf
:1001d80098020000980200009802000098020000af
:1001e800980200009802000098020000980200009f
:0801f8009802000098020000cb
:020000040000fa
:10020800980200009802000098020000980200007e
:10021800980200009802000098020000980200006e
:10022800980200009802000098020000c820000010
:10023800980200009802000098020000de210000e9
:10024800cc230000980200009802000098020000e9
:10025800980200009802000098020000980200002e
:10026800980200009802000098020000aa220000ec
:10027800980200009802000098020000980200000e
:1002880098020000980200009802000098020000fe
:1002980098020000980200009802000098020000ee
:1002a80098020000980200009802000098020000de
:1002b80098020000980200009802000098020000ce
:1002c80098020000980200009802000098020000be
:1002d80098020000980200009802000098020000ae
:1002e800980200009802000098020000980200009e
:1002f800980200009802000098020000980200008e
:10030800980200009802000098020000980200007d
:10031800980200009802000098020000980200006d
:10032800980200009802000098020000980200005d
:10033800980200009802000098020000980200004d
:10034800980200009802000098020000980200003d
:10035800980200009802000098020000980200002d
:10036800980200009802000098020000980200001d
:10037800980200009802000098020000980200000d
:1003880098020000980200009802000098020000fd
:1003980098020000980200009802000098020000ed
:1003a80098020000980200009802000098020000dd
:1003b80098020000980200009802000098020000cd
:1003c80098020000980200009802000098020000bd
:1003d80098020000980200009802000098020000ad
:1003e800980200009802000098020000980200009d
:0803f8009802000098020000c9
:020000040000fa
:100400004f0022000e7f22000e0188000000000035
:1004100000012000200288000c000700605e22001e
:100420000100200011000700000020000000e00093
:10043000020032000000020000000000061b020063
:10044000000000000040da000000fe004440a90067
:10045000a0cb20000000e0000300320000002000dc
:10046000a00188004440a800000006009101880017
:10047000800078000000eb0015003700e2804000ab
:1004800032a0b4009101ba00e280400032a0b40072
:100490009102ba00e280400032a0b4000002eb00fa
:1004a000472bde00f507b200602ce10004003a00a3
:1004b0000059eb008301e900fdff3e000400370016
:1004c0006128e100010032000082eb000400070017
:1004d0001101ba000200e000e8ff3a000000060047
:1004e0003159ba008301e9000c0032002159ba00e9
:1004f0008301e900080032000400e00003003a0034
:10050000e280400032a0b400f5ff370011d9ba00f4
:100510008301e900faff3a008100e800e180400031
:1005200032a0b4000000060000000000000000003f
:100530000040da000000fe0000027800850880001c
:10054000e08f5200030035001061a8000000280071
:100550001021b7003008800041088000e00f5200f1
:1005600001003200008abe000000060003f0a20075
:10057000889fbe008a9fbe008c1f7800b8000700cd
:10058000bf0033006450e1004f0032006420e100fe
:100590005200320003826c0007003b000905d000c6
:1005a0000306d000820f54000c065d0002003900e3
:1005b0000200320089017800030678008582550028
:1005c00004003d000003fd008103fd008502ea00f8
:1005d0008b854200840f720002003b006000100017
:1005e000e08018006011b8000005eb007a28e100f7
:1005f0000a00390006007800c75ddd00f707b20089
:10060000878075002d003700828171000a01780013
:10061000610560008180d1000080d3008502e9007f
:10062000f9ff3b00060440008784480002003b00bd
:1006300060041400e0841c000988a3000700320055
:100640008a81710082817100610164008904d10096
:100650000884d3008b05e800170037000978a30051
:1006600013003a000b00e000130034008b05e90092
:100670000804440089844c000a4474000978a300eb
:100680000d003a000b00e000070034008b05e90084
:100690000804440089844c0001003a000b0020004b
:1006a0000978a300f7ff32000001eb0002003700d9
:1006b000828171000a0178002e0007000cf0a7006b
:1006c00001f0a000770037006420e10002003a004a
:1006d000838f6c00770033000801be000200be006b
:1006e000700037000001be00480007000470a7003a
:1006f00003f0a1006509b100160032000d003500bd
:100700006828e10006003500f0ff2f00f1ff270008
:100710000300e00013003b0001002800000005007a
:1007200000004000818048008502e900fcff3a009b
:1007300008003700f88f420002003c008000eb0008
:10074000000005008100d1000080d3008502e80090
:10075000fcff3a000300e00002003b0060001000d4
:10076000e0801800000006004f89de00820178005a
:100770009700370081002000618055000b003d008c
:100780000b00200061fe2f000100e1001d0034007d
:1007900082817100610164008904d1000884d30062
:1007a0000000e800faff3a007100200061006400d8
:1007b0000300700002006000090032006104440080
:1007c000e0844c000988a500050032008b05e80094
:1007d0006808e10002003a008904d1000884d300cf
:1007e000f20f20000258e10005003d00c75ddd006a
:1007f000f907b20089807500080078000000060043
:100800000bf827008b00780000000500c70ade0007
:10081000f107b200f50fb20008003200e1cf42004c
:10082000020032000170a00024000500810f70005a
:10083000010032000408050044000500810f70002b
:1008400002003a00140005008502e90000004000a3
:1008500081c04800fcff3b000170a000240005009f
:100860000004be00e9ff07000003be000405be004f
:100870000200be00e5ff0700844f7500000006007f
:100880000200be006450e100050036006420e10073
:10089000020036000968a30001003a000800be000b
:1008a0000160a0004f0678004f05be004f04be0057
:1008b00000000600f0ff2f00f1ff2700f9ff3700ce
:1008c000889fbe008a9fbe008c1f7800e4ff07004f
:1008d000ebff330003866c006450e100240032001b
:1008e0006420e100270032006150e1002200320064
:1008f0006120e100210032008b854200eb07b1004e
:100900000134b800003ab8000804420089844a0063
:10091000013ab8000030b8008880400009014a0060
:1009200004003300000040008180480002014900bb
:100930008b05e900c909dd00830170000100320068
:1009400013002000c814de004814dd004709de0053
:100950001200b200c808de000884700085ff07009e
:1009600001f0a1000cf0a70001f0a000cdff3700be
:100970006120e100cfff32000801be000200be008e
:10098000f7ff37006150e100fcff3a00c9ff370074
:100990006022b800060220000000d0008180d20052
:1009a0000482d2008582d2000000a0000202520020
:1009b00083825a00030031000202420083824a000f
:1009c0000000a1000603e900f3ff3a000000060062
:1009d000881f7800030478000300e00007003d0052
:1009e00060001000e080180060011900e08119002b
:1009f00002003b0001f02d00030037000400070057
:100a000008f0a70001f0a0004f04780000000600e5
:100a1000889fbe008a9fbe000082700004027100a1
:100a200004827100260032000004be000200be00f5
:100a30006011b8006b092000950220000182cf00f0
:100a40000a0039000541b1000082cf0007003900db
:100a50000541b1000982cf00040039000541b10011
:100a60000882cf00010039000541b1000542520063
:100a7000120032000a003b008281710061016400b3
:100a80008100d1000080d3008984d3000884d30082
:100a90008b05e8000442e800f7ff3a000700370042
:100aa0000804440089844c0000004800818048000c
:100ab0008b05e9000442e900f9ff3a002dff070029
:100ac0004f05be004f04be00000006000002780083
:100ad000808f50000800310082824000808f5200d9
:100ae0000500360002024000456278000201e9007c
:100af000fdff3a0000000600e00f51000300320045
:100b0000315a78000201e900fbff370000000600bf
:100b100001002000000089001100890015c0b30009
:100b2000e4ff2100054a780000000600e4ff2100f0
:100b30008042eb0094cf120002003a001000200027
:100b4000f3ff0700d2e62400631c240000008100ac
:100b50001100810009000700940323000500200014
:100b60000002420081824a000400890015008900c9
:100b70000500780000f0a10000000600020ab9009c
:100b8000001bb9000200b800810042008100430050
:040b9000000006005b
:020000040000fa
:100b9400e00000000fff000087ff0000e0010000fc
:100ba400ffff0000ffff000087ff0000ffff0000c1
:100bb40087ff0000ffff0000ffff0000ff80000030
:100bc400e000000001ff000087ff0000c0000000fb
:100bd400ffff0000ffff000087ff0000ffff000091
:100be40087ff0000ffff0000ffff0000ff80000000
:100bf400e000000000ff000087ff0000000000008c
:100c04007fff0000ffff000087ff0000ffff0000e0
:100c140087ff0000ffff0000ffff0000ff800000cf
:100c2400e0000000007f000087ff000003f00000e8
:100c34003fff0000ffff000087ff0000ffff0000f0
:100c440087ff0000ffff0000ffff0000ff8000009f
:100c5400e1ff0000f03f000087fe00000ff80000f5
:100c64001fff0000ffff000087ff0000ffff0000e0
:100c740087ff0000ffff0000ffff0000ff8000006f
:100c8400e1ff0000f83f000087fc00001ffc0000ab
:100c94001fff0000ffff0000ffff0000ffff000038
:100ca400ffff0000ffff0000ffff0000ff800000c7
:100cb400e1ff0000fc3f000087fc00003ffe000055
:100cc4000fff0000ffff0000ffff0000ffff000018
:100cd400ffff0000ffff0000ffff0000ff80000097
:100ce400e1ff0000fc1f000087f800007fff000008
:100cf4000fff0000ffff0000ffff0000ffff0000e8
:100d0400ffff0000ffff0000ffff0000ff80000066
:100d1400e1ff0000fe1f000087f800007fff0000d5
:100d240007ff0000ffff0000ffff0000ffff0000bf
:100d3400ffff0000ffff0000ffff0000ff80000036
:100d4400e1ff0000fe1f000087f00000ffff00002d
:100d540087ff0000ffff0000ffff0000ffff00000f
:100d6400ffff0000ffff0000ffff0000ff80000006
:100d7400e1ff0000fe1f000087f00000ffff0000fd
:100d84009fff0000ffff0000fffe000003ff0000c4
:100d9400ffff000081ff0000ffe00000ff80000073
:100da400e1ff0000fe1f000087f00000ffff0000cd
:100db400ff870000ffc3000087f8000000ff000069
:100dc40087fe0000007f0000e18000003f800000fb
:100dd400e1ff0000fe1f000087f00000ffff00009d
:100de400ff870000ffc3000087f00000007f0000c1
:100df40087fc0000003f0000e10000001f800000ad
:100e0400e1ff0000fe1f000087e10000ffff00007b
:100e1400ffc30000ff87000087e00000003f0000e0
:100e240087f80000001f0000e10000000f800000b0
:100e3400e1ff0000fc1f000087e10000ffff00004d
:100e4400ffc30000ff87000087e00000f83f0000b8
:100e540087f000003c0f0000e03e00000f8000001f
:100e6400e1ff0000fc3f000087e10000ffff0000fd
:100e7400ffc30000ff87000087c10000fc3f0000a3
:100e840087f000007e0f0000e07f00000780000074
:100e9400e1ff0000f83f000087e10000ffff0000d1
:100ea400ffe10000ff0f000087c30000fc1f0000eb
:100eb40087e00000ff070000e0ff0000078000005b
:100ec400e1ff0000e07f000087e10000ffff000079
:100ed400ffe10000ff0f000087c30000fe1f0000b9
:100ee40087e10000ff870000e0ff0000878000002a
:100ef400e0000000007f000087e10000ffff000029
:100f0400ffe10000ff0f000087c30000fe7f000028
:100f140087e10000ff870000e1ff000087800000f8
:100f2400e000000000ff000087e10000ffff000078
:100f3400ffe00000fe0f000087c30000ffff000079
:100f440087c10000ff830000e1ff000087800000ec
:100f5400e000000003ff000087e10000ffff000045
:100f6400fff00000fe1f000087c10000ffff00002b
:100f740087c30000ffc30000e1ff0000878000007a
:100f8400e00000000fff000087e10000ffff000009
:100f9400fff00000fe1f000087e00000ffff0000dc
:100fa40087c30000ffc30000e1ff0000878000004a
:100fb400e1ff0000ffff000087e10000ffff0000e9
:100fc400fff00000fe1f000087e000003fff00006c
:100fd40087c30000ffc30000e1ff0000878000001a
:100fe400e1ff0000ffff000087e10000ffff0000b9
:100ff400fff800007c3f000087f0000007ff0000be
:1010040087c30000ffc30000e1ff000087800000e9
:10101400e1ff0000ffff000087e10000ffff000088
:10102400fff800007c3f000087f8000000ff00008c
:1010340087c30000ffc30000e1ff000087800000b9
:10104400e1ff0000ffff000087f00000ffff000049
:10105400cff800007c3f000087fe0000003f000046
:1010640087c30000ffc30000e1ff00008780000089
:10107400e1ff0000ffff000087f00000ffff000019
:10108400c3f80000383f000087ff0000801f000005
:1010940087c30000ffc30000e1ff00008780000059
:1010a400e1ff0000ffff000087f00000ffff0000e9
:1010b40083fc0000387f000087ff0000f81f000059
:1010c40087c30000ffc30000e1ff00008780000029
:1010d400e1ff0000ffff000087f00000ffff0000b9
:1010e40087fc0000387f000087ff0000fe0f00002f
:1010f40087c30000ffc30000e1ff000087800000f9
:10110400e1ff0000ffff000087f800007fff000000
:1011140087fc0000107f000087e70000ff0f00003d
:1011240087c10000ff830000e1ff0000878000000a
:10113400e1ff0000ffff000087f800007fff0000d0
:1011440007fe000010ff000087870000ff0f00006b
:1011540087e10000ff870000e1ff000087800000b6
:10116400e1ff0000ffff000087fc00003fff0000dc
:101174000ffe000010ff000087830000ff0f000037
:1011840087e10000ff870000e1ff00008780000086
:10119400e1ff0000ffff000087fc00001ffe0000cd
:1011a4000ffe000010ff000087c30000ff0f0000c7
:1011b40087e00000ff070000e1ff000087800000d7
:1011c400e1ff0000ffff000087fe00000ffc0000ad
:1011d4001fff000001ff000087c10000fe0f000098
:1011e40087f000007e0f0000e1ff00008780000010
:1011f400e1ff0000ffff000087fe000003f0000095
:101204003fff000001ff000087c00000fc1f00003a
:1012140087f000003c0f0000e1ff00008780000021
:10122400e1ff0000ffff000087ff00000000000056
:101234003fff000001ff000087e00000001f0000e6
:1012440087f80000001f0000e1ff00008780000015
:10125400e1ff0000ffff000087ff000080000000a6
:10126400ffff000001ff000087f00000003f0000c6
:1012740087fc0000003f0000e1ff000087800000c1
:10128400e1ff0000ffff000087ff0000e001000015
:10129400ffff000083ff000087f8000000ff00004c
:1012a40087fe0000007f0000e1ff0000878000004f
:1012b400ffff0000ffff0000ffff0000f807000031
:1012c400ffff0000ffff0000fffe000003ff00001f
:1012d400ffff000081ff0000ffff0000ff8000000f
:1012e400ffff0000ffff0000ffff0000ffff000002
:1012f400ffff0000ffff0000ffff0000ffff0000f2
:10130400ffff0000ffff0000ffff0000ff80000060
:10131400ffff0000ffff0000ffff0000ffff0000d1
:10132400ffff0000ffff0000ffff0000ffff0000c1
:10133400ffff0000ffff0000ffff0000ff80000030
:10134400e0000000000000000000000000000000b9
:101354000000000000000000000000000000000089
:101364000000000000000000000000001f800000da
:1013740080000000000000000000000000000000e9
:101384000000000000000000000000000000000059
:1013940000000000000000000000000003800000c6
:1013a4000000000000000000000000000000000039
:1013b4000000000000000000000000000000000029
:1013c4000000000000000000000000000180000098
:1013d4000000000000000000000000000000000009
:1013e40000000000000000000000000000000000f9
:1013f4000000000000000000000000000180000068
:1014040000000000000000000000000000000000d8
:1014140000000000000000000000000000000000c8
:101424000000000000000000000000000180000037
:1014340000000000000000000000000000000000a8
:101444000000000000000000000000000000000098
:101454000000000000000000000000000180000007
:101464000000000000000000000000000000000078
:101474000000000000000000000000000000000068
:1014840000000000000000000000000001800000d7
:1014940080000000000000000000000000000000c8
:1014a4000000000000000000000000000000000038
:1014b40000000000000000000000000003800000a5
:1014c400ffff0000ffff0000ffff0000ffff000020
:1014d400ffff0000ffff0000ffff0000ffff000010
:1014e400ffff0000ffff0000ffff0000ff8000007f
:1014f400ffff0000ffff0000ffff0000ffff0000f0
:10150400ffff0000ffff0000ffff0000ffff0000df
:10151400ffff0000ffff0000ffff0000ff8000004e
:10152400ffff0000ffff0000ffff0000ffff0000bf
:10153400ffff0000ffff0000ffff0000ffff0000af
:10154400ffff0000ffff0000ffff0000ff8000001e
:10155400ffff0000ffff0000ffff0000ffff00008f
:10156400ffff0000ffff0000ffff0000ffff00007f
:10157400ffff0000ffff0000ffff0000ff800000ee
:10158400ffff0000ffff0000ffff0000ffff00005f
:10159400ffff0000ffff0000ffff0000ffff00004f
:1015a400ffff0000ffff0000ffff0000ff800000be
:1015b400ffff0000ffff0000ffff0000ffff00002f
:1015c400ffff0000ffff0000ffff0000ffff00001f
:1015d400ffff0000ffff0000ffff0000ff8000008e
:1015e400fff0000000000000000000000000000008
:1015f40000000000000000000000000000000000e7
:10160400000000000000000001ff0000ff80000057
:10161400ffe00000000000000000000000000000e7
:1016240000000000000000000000000000000000b6
:10163400000000000000000000ff0000ff80000028
:10164400ffe00000000000000000000000000000b7
:101654000000000000000000000000000000000086
:10166400000000000000000000ff0000ff800000f8
:10167400ffe0000000000000000000000000000087
:101684000000000000000000000000000000000056
:10169400000000000000000000ff0000ff800000c8
:1016a400fff0000000000000000000000000000047
:1016b4000000000000000000000000000000000026
:1016c400000000000000000001ff0000ff80000097
:1016d400ffff0000ffff0000ffff0000ffff00000e
:1016e400ffff0000ffff0000ffff0000ffff0000fe
:1016f400ffff0000ffff0000ffff0000ff8000006d
:10170400ffff0000ffff0000ffff0000ffff0000dd
:10171400ffff0000ffff0000ffff0000ffff0000cd
:10172400ffff0000ffff0000ffff0000ff8000003c
:10173400ffff0000ffff0000ffff0000ffff0000ad
:10174400ffff0000ffff0000ffff0000ffff00009d
:10175400ffff0000ffff0000ffff0000ff8000000c
:10176400ffff0000ffff0000ffff0000ffff00007d
:10177400ffff0000ffff0000ffff0000ffff00006d
:10178400ffff0000ffff0000ffff0000ff800000dc
:10179400ffff0000ffff0000ffff0000ffff00004d
:1017a400ffff0000ffff0000ffff0000ffff00003d
:1017b400ffff0000ffff0000ffff0000ff800000ac
:1017c400ffff0000ffff0000ffff0000ffff00001d
:1017d400ffff0000ffff0000ffff0000ffff00000d
:1017e400ffff0000ffff0000ffff0000ff8000007c
:1017f400ffff0000ffff0000ffff0000ffff0000ed
:10180400ffff0000ffff0000ffff0000ffff0000dc
:10181400ffff0000ffff0000ffff0000ff8000004b
:10182400ffff0000fff800000000000000000000bf
:1018340000000000000000000000000000000000a4
:1018440000000000007f0000ffff0000ff80000098
:10185400ffff0000fff8000000000000000000008f
:101864000000000000000000000000000000000074
:1018740000000000007f0000ffff0000ff80000068
:10188400ffff0000fff8000000000000000000005f
:101894000000000000000000000000000000000044
:1018a40000000000007f0000ffff0000ff80000038
:1018b400ffff0000ffff0000ffff0000ffff00002c
:1018c400ffff0000ffff0000ffff0000ffff00001c
:1018d400ffff0000ffff0000ffff0000ff8000008b
:1018e400ffff0000ffff0000ffff0000ffff0000fc
:1018f400ffff0000ffff0000ffff0000ffff0000ec
:10190400ffff0000ffff0000ffff0000ff8000005a
:10191400ffff0000ffff0000ffff0000ffff0000cb
:10192400ffff0000ffff0000ffff0000ffff0000bb
:10193400ffff0000ffff0000ffff0000ff8000002a
:10194400ffff0000ffff0000ffff0000ffff00009b
:10195400ffff0000ffff0000ffff0000ffff00008b
:10196400ffff0000ffff0000ffff0000ff800000fa
:10197400ffff0000ffff0000ffff0000ffff00006b
:10198400ffff0000ffff0000ffff0000ffff00005b
:10199400ffff0000ffff0000ffff0000ff800000ca
:1019a400ffff0000ffff0000ffff0000ffff00003b
:1019b400ffff0000ffff0000ffff0000ffff00002b
:1019c400ffff0000ffff0000ffff0000ff8000009a
:1019d400ffff0000ffff0000ffff0000ffff00000b
:1019e400ffff0000ffff0000ffff0000ffff0000fb
:1019f400ffff0000ffff0000ffff0000ff8000006a
:101a0400ffff0000ffff0000ffff0000ffff0000da
:101a1400ffff0000ffff0000ffff0000ffff0000ca
:101a2400ffff0000ffff0000ffff0000ff80000039
:101a3400ffff0000ffff0000ffff0000ff80000029
:101a44000000000000000000000000000000000092
:101a54000fff0000ffff0000ffff0000ff800000f9
:101a6400ffff0000ffff0000ffff0000ffff00007a
:101a7400ffff0000ffff0000ffff0000ffff00006a
:101a8400ffff0000ffff0000ffff0000ff800000d9
:101a94000000000000000000000000000000000042
:101aa4000808000008080000080000000800000002
:101ab40014140000140000000000000000000000e6
:101ac400141400003e1400003e1400001400000032
:101ad400081e0000281c00000a3c0000080000004a
:101ae4003032000004080000102600000600000048
:101af40018240000281000002a2400001a00000006
:101b040018080000100000000000000000000000a1
:101b14000408000010100000100800000400000079
:101b24001008000004040000040800001000000075
:101b3400000800002a1c00002a0800000000000021
:101b440000080000083e0000080800000000000033
:101b54000000000000000000180800001000000051
:101b640000000000003c0000000000000000000035
:101b74000000000000000000001800001800000031
:101b84000002000004080000102000000000000013
:101b94001c220000262a0000322200001c00000043
:101ba4000818000008080000080800003e000000b3
:101bb4001c22000004080000102000003e00000069
:101bc4003c020000023c0000020200003c00000055
:101bd400040c0000142400003e0400000400000073
:101be4003e200000203c0000020200003c000000f7
:101bf4000c100000203c0000222200001c00000009
:101c04003e02000004080000101000001000000054
:101c14001c220000221c0000222200001c000000e4
:101c24001c220000221c0000020200001c00000014
:101c34000018000018000000181800000000000040
:101c44000018000018000000180800001000000030
:101c54000408000010200000100800000400000028
:101c6400000000003e0000003e00000000000000f4
:101c74001008000004020000040800001000000026
:101c84001c220000020400000800000008000000fc
:101c94001c220000021a00002a2a00001c00000076
:101ca4001c220000223e000022220000220000002c
:101cb4003c220000223c0000222200003c000000e4
:101cc4001e20000020200000202000001e00000034
:101cd4003c22000022220000222200003c000000de
:101ce4003e200000203e0000202000003e000000b6
:101cf4003e200000203e00002020000020000000c4
:101d04001e200000202c0000222200001c000000e5
:101d140022220000223e00002222000022000000b5
:101d24001c08000008080000080800001c0000004f
:101d34001e0200000202000002240000180000003d
:101d44002224000028300000282400002200000083
:101d54002020000020200000202000003e00000081
:101d6400223600002a220000222200002200000065
:101d740022220000322a0000262200002200000055
:101d84001c22000022220000222200001c0000006d
:101d94003c220000223c0000202000002000000023
:101da4001c220000222200002a2600001e0000003f
:101db4003c220000223c00002824000022000000f5
:101dc4001e200000201c0000020200003c00000055
:101dd4003e08000008080000080800000800000091
:101de4002222000022220000222200001c00000007
:101df4002222000022220000221400000800000019
:101e040022220000222a00002a36000022000000bc
:101e14002222000014080000142200002200000006
:101e2400222200002214000008080000080000001c
:101e34003e04000008100000202000003e000000c6
:101e4400181000001010000010100000180000000e
:101e54000020000010080000040200000000000040
:101e64000602000002020000020200000600000058
:101e74000814000022000000000000000000000020
:101e84000000000000000000000000003e00000010
:101e94001008000004000000000000000000000022
:101ea400000000001c0200001e2200001e000000b2
:101eb40020200000202c0000322200003c00000002
:101ec400000000001c200000202200001c00000074
:101ed40002020000021a0000262200001e00000078
:101ee400000000001c2200003e2000001c00000036
:101ef4000c12000010380000101000001000000048
:101f0400000000001e220000221e0000021c00002f
:101f1400202000002c3200002222000022000000b9
:101f24000008000000080000080800000800000085
:101f3400040000000c040000042400001800000049
:101f44002020000024280000302800002400000085
:101f54001808000008080000080800001c00000021
:101f640000000000342a00002a22000022000000a1
:101f7400000000002c320000222200002200000099
:101f8400000000001c220000222200001c000000af
:101f9400000000003c220000223c00002020000041
:101fa400000000001a240000242c00001406000085
:101fb400000000002c32000020200000200000005f
:101fc400000000001c2000001c0200003c00000077
:101fd4001010000038100000101200000c00000067
:101fe4000000000022220000222600001a00000047
:101ff400000000002222000022140000080000005b
:1020040000000000222200002a2a00001400000020
:102014000000000022140000081400002200000048
:102024000000000022220000221e0000021c00000a
:10203400000000003e040000081000003e00000004
:10204400081000001020000010100000080000001c
:102054000808000008080000080800000800000044
:102064001008000008040000080800001000000028
:1020740000000000102a000004000000000000001e
:102084003e22000022220000222200003e00000026
:10209400202000002020000020200000202000003c
:1020a4000101000001010000010100000101000024
:1020b4003f200000202000002020000020200000fd
:1020c4003f010000010100000101000001010000c6
:1020d400202000002020000020200000203f0000dd
:1020e400010100000101000001010000013f0000a6
:1020f400000c00001e3f00003f1e00000c0000000a
:102104000e1b00003e3c00003e3f00001e0000008d
:102114001c3600001f0f00001f3e00001e000000c0
:10212400213b00002f3f00001e0c00000c000000ab
:102134000c0c00001e3f00002f3b0000210000009b
:10214400000000001825000002000000000000004c
:10215400040200000408000008040000000000005d
:1021640000000000021700002f070000020000001a
:102174002a2a00002a2a00002a2a00002a2a00000b
:102184002a2a00002a2a00002a2a00000d00000042
:102194002a200000534e0000414b0000452000005f
:1021a400474100004d450000202a00000d000000ba
:1021b4002a2a00002a2a00002a2a00002a2a0000cb
:1021c4002a2a00002a2a00002a2a00000d0d0000f5
:1021d4000045000061740000696e00006720000083
:1021e400612000006d6f0000757300006520000021
:1021f400696e000063720000656100007365000091
:10220400207300006e6100006b650000206c00000c
:10221400656e000067740000682e00000d00000069
:10222400536e0000616b00006520000062750000c1
:10223400726e00002031000030250000206f000085
:10224400662000006973000020630000616c0000d8
:102254006172000069650000732f0000736500005f
:10226400632e00000d00000044690000652000009a
:102274006f66000020730000746100007276000035
:1022840061740000696f00006e2000007768000030
:10229400656e000020630000616c00006f72000036
:1022a40069650000733d0000302e00000d00000041
:1022b40045610000746900006e6700002061000041
:1022c400206d00006f75000073650000206700003a
:1022d40069760000652000003230000020630000b1
:1022e400616c00006f72000069650000732e0000cd
:1022f4000d000000446900006520000077680000bc
:10230400656e0000206800006974000074690000b4
:102314006e67000020770000616c00006c2e0000e6
:102324000d0000004469000065200000776800008b
:10233400656e00002062000069740000746900008a
:102344006e670000206800006973000020740000bc
:10235400616900006c2e00000d0d000000550000a6
:102364007365000020410000525200004f570000e6
:1023740053200000746f0000206300006f6e0000a3
:10238400747200006f6c0000207300006e61000026
:102394006b6500002e0d000000630000616c0000fe
:1023a4006f72000069650000733a000020000000ad
:1023b40000000000cf9100006c6900006665000019
:1023c40073700000616e00003a20000000000000fd
:1023d40010000000de910000676100006d650000e0
:1023e400206f00007665000072000000060d0000fa
:1023f400ee9100007072000065730000732000000d
:10240400535400004152000054200000746f000037
:102414002062000065670000696e00000000000093
:1024240008140000fc910000646900006564000069
:10243400206f0000662000007374000061720000c9
:1024440076610000746900006f6e000000000000f7
:10245400060e000016920000646900006564000026
:10246400206f000066200000776100006c6c0000a3
:10247400206300006f6c00006c6900007369000049
:102484006f6e000000000000060e00002e92000097
:102494006469000065640000206f0000662000008d
:1024a40074610000696c000020620000697400001f
:1024b400652e000000000000060e00004a92000095
:1024c400436f0000707900007269000067680000c3
:1024d4007420000032300000313400002c20000051
:1024e4004a610000637100007565000073200000fc
:1024f4004465000073630000686500006e650000b9
:042504007300000060
:020000040000fa
:10250800740d2000848f500028003c00840f500078
:1025180026003c0084002000811f7800110009007b
:102528000400d80001027800cf007800e70212000a
:10253800e20f510009003a00068020007b09b9002b
:102548008200400081034300140020008522dd0042
:1025580066c27800854b6a0014003700e10f51000d
:1025680009003a00068020007b09b900820040007b
:1025780081034300140020008522dd0066c2780034
:10258800854b720009003700068020007b09b900de
:102598008200400081034300140020008522dd00f2
:1025a80085c2ea0066c3780086cb62000000060098
:1025b800ea874700889fbe008a9fbe008c9fbe00a6
:1025c8008e1f7800000478000105780082057800e5
:1025d800f3b79f00040678000c0178008a007800a1
:1025e80008007800c6ff07007fb29700840f5500e7
:1025f80012003a008b0f540003003d001900200020
:1026080008844400040037008084eb008b0f5400da
:10261800fbff3a004b0037000c0178008a00780075
:1026280008007800b6ff07000904440009025400b6
:10263800848f5500f8ff3a00420037008b0f540092
:1026480010003a008084eb00ffb29700850f550018
:1026580001003d00190020000a8544000c017800a3
:102668008a00780008007800a5ff070009054500e2
:1026780009025500ffb29700848f5200f7ff3a0015
:1026880030003700088755000ef0a7000e07ea0053
:10269800ffb297000a82520004f0a7000402ea0081
:1026a80084bf9f000082eb00e4b79f008b0f5400ab
:1026b80002003d0015002000e5b79f000082eb00f6
:1026c800d4b79f00ffb29700850f550002003d0068
:1026d80014002000d4b79f008fba970085045700d4
:1026e8008506ea00010037000b04780009824400df
:1026f8008d0f5200050034000fba970084845400ef
:10270800efb297000504440005003700840f570016
:10271800030034008e8444005fb29700040545002e
:102728000c0178008a0078000800780074ff070020
:102738008b0f5400edff3a00ffb29700850f55004c
:10274800e9ff3a004f0778004f06be004f05be006c
:102758004f04be00af00b10000000600889fbe0015
:102768008a9fbe008c1f78008004780001047800de
:1027780002057800030678008405780009017800ce
:10278800880078000900780089ff07000b027800ac
:102798008c0178000a017800880078000a00780027
:1027a80083ff07000b027800880178000a0178008f
:1027b80088007800090078007dff07000b02780088
:1027c8008c0178000a0178008c00780009007800f4
:1027d80077ff07004f0678004f05be004f04be0084
:1027e800000006006f03b000889fbe008a9fbe00ed
:1027f8008c9fbe008e1f780090af9f00e1af9f00b6
:102808000405be0006077800029ab90004024200d7
:102818000210b800a0af9f00b1af9f008100420036
:10282800b1af9f002fa99700bfa9970002025500da
:1028380083825d000aabb90004d8b90006034000e2
:102848000a22b800850243000203be00e00f5100cf
:10285800e08f590002003d0063034100e083490016
:10286800ce39dd004233de0006837100c2bbde00d4
:102878000404430085844b00b8b79f00c9b79f0084
:102888000adab900040242000a50b800d0a79f0033
:10289800e1a79f0081004200e1a79f005fa1970088
:1028a800efa19700020141008381490092a79f0090
:1028b800a3a79f002faa9700bfaa9700040242006f
:1028c80085824a00d4b79f00e5b79f00e4ff2f0038
:1028d8003fab970004b2b900afab970007025200b4
:1028e800e5ff2f00afac9700054cb800c8af9f00bc
:1028f800d9af9f0089044200d9af9f00f2a79f007b
:1029080083af9f001400200005002000f4b79f004b
:1029180085bf9f006066b8009faa97008502e900fe
:10292800c5a79f001fab97000603e800b6a79f0046
:10293800fa9f9f008ba79f00500037006fa8970051
:102948000a005000f0af9f007fb49700cfa0970017
:102958008880400091b79f000e01780080007800c1
:102968001fb09700e6fe07006fa997008204450094
:10297800bfa19700088451000e0178000800be002e
:10298800dffe07000e017800890078001fb097006d
:10299800dbfe07000e017800ffa89700080078000a
:1029a800d7fe07003fb29700cfb29700e00f520062
:1029b800e08f5a000d003d005fa49700efa4970038
:1029c8000402440085824c007fa097008fa89700de
:1029d8000c0340008d8348000601420087814a00ad
:1029e800b2b79f00c3b79f001a00370061055500b2
:1029f800e0855d003fb29700cfb297005fa49700d3
:102a0800efa497000403440085834c00cfac9700e3
:102a180009dab9005fa997000a90b90004004000dc
:102a2800cfa997000352b800850240000602420071
:102a380087824a007fa497008fac97000c0344005c
:102a48008d834c000600420087804a00b0b79f0083
:102a5800c1b79f007fa197008fa997000c0641007e
:102a68008d8649007fb297008fba970061024200b5
:102a7800e0824a00f4b79f0085bf9f007fb39700ac
:102a88008fbb970061005300e0805b00dfb39700c5
:102a980007dab9006fb497000ac3b900040343000a
:102aa800dfb497000952b800850243008c0f52002a
:102ab8008d8f5a00a1ff3c000a01be009ab79f0003
:102ac800abb79f00f0af9f0081b79f007f9d970035
:102ad8008fa597000006be00e00f5100e08f590057
:102ae800b80035000a00be001df707000004be004c
:102af8001fb39700afb3970061035300e0835b00f7
:102b0800f6b79f0087bf9f000c00be0014f70700b0
:102b18000200200003f0230093f607000001be0026
:102b280065f707000801be0063f707000001be0053
:102b38000800be0060f707000004be008fbb9700c6
:102b48007fb0970000bab90004024200ffb09700b6
:102b5800d1b79f00010178000210b800810042003f
:102b6800afa99700038bb9003fa997000092b9005d
:102b7800060242002fad97000a00b800810042000b
:102b8800f7f607000001be000800be0076f6070051
:102b98000004be00bfa997005fa29700049bb9007c
:102ba8006fa09700afa897000182b9000602420003
:102bb8005fa197000250b80081004200e8f60700c4
:102bc8000001be000800be0066f60700c3f6070055
:102bd8000005be001fb69700afb697004faa970032
:102be800dfaa970060021200e0821a0094b79f00e3
:102bf800a5b79f00dfaa97007fb4970008abb9007c
:102c08008fbc97004fa8970000cab900060242007f
:102c1800cfa997005fb197000219b800b2b79f001b
:102c2800c3b79f0083014200c3b79f003fb297001c
:102c3800cfb29700d4b79f00e5b79f009fa2970037
:102c4800c5af9f00fab79f008bbf9f00efab9700ff
:102c58008c8553007fac97001fa89700000544009f
:102c68000e0178000a00be0025fe0700efa89700b5
:102c78008c8440001fa99700080451000e017800b9
:102c88000800be001efe07000e01780089007800cb
:102c98000a0078001afe07000e0178008b00780001
:102ca8000800780016fe07007fb297008fba9700d9
:102cb800e00f5200e08f5a000f0034006102560006
:102cc800e0825e007fb497008fbc97002fa8970022
:102cd800bfa8970008034000898348005fb19700a8
:102ce800efb197000201430083814b00f2b79f00c8
:102cf80083bf9f002000370061025600e0825e001b
:102d08007fab97008fb3970061034300e0834b00cc
:102d1800f6af9f0087b79f007fb497008fbc9700de
:102d28002fa89700bfa897000001540081815c007c
:102d3800afa3970006b8b9000fb497009fa49700f7
:102d480009c3b90000004300cfa897007fac9700e3
:102d5800080bb800870340000203430083834b003d
:102d68003fb09700cfb097000000430081804b0030
:102d7800f0b79f0081bf9f0061065600e0865e00a5
:102d88005fb19700efb197001fb39700afb39700fb
:102d98000201430083814b00d2b79f00e3b79f0035
:102da8003fb49700cfb497000804430089844b00d0
:102db800b8b79f00c9b79f00e00f5200e08f5a00d4
:102dc800a2ff3d004f0778004f06be004f05be002a
:102dd8004f04be006f03b10000000600889fbe00cc
:102de8008a9fbe008c1f7800000678008205780054
:102df8000105e9000a0545008004eb00890f55002c
:102e08000b0034000c047800280190009800900012
:102e18000b027800b801900018007800e4fd070064
:102e28008984e80064044400890f5500f6ff3c00db
:102e38008902e80085824200898444009c00900051
:102e48000b027800ec817a006c817c001c00780011
:102e5800d7fd07004f0678004f05be004f04be009f
:102e680000000600889fbe000004be00c800de0007
:102e78000880fb00bb030700090078003c0307003b
:102e88004f04be0000000600889fbe008a1f78001d
:102e9800090220002aee210022f707000104780029
:102ea800110009000900d8000104fd000884e800a9
:102eb8001cf7070084012000110009000400d80055
:102ec8008180e800c0f68000e00f5000100032005a
:102ed8000a0278008002eb00144178000283fb00ac
:102ee800880f530004003a00144390000683fb0047
:102ef800810f5300040032008502e800630242009b
:102f0800808f5200f4ff3900850f5000e2ff3a002d
:102f180008007800a2ffb70001007800a3ffb700ff
:102f28008180fb000880fb008e030700a4dfbf0040
:102f3800840207004f0578004f04be000000060019
:102f4800889fbe008a1f7800c4f68000e00f5200f8
:102f58000f00320038ee21008004eb000ac2b300f3
:102f6800184278008480fb0078f897000080fb0006
:102f78007c0307000a407800720207008904e80011
:102f880063044400c4f68000890f5200f4ff3e0039
:102f98004f0578004f04be0000000600889fbe0061
:102fa800c4f68000e00f52000e00320038ee210017
:102fb8008004eb00184278008480fb0078f89700c2
:102fc8000080fb0067030700184090005d020700bf
:102fd8008904e80063044400c4f68000890f5200a5
:102fe800f4ff3e004f04be0000000600881f780072
:102ff80090908400a19084009aff07001800200098
:1030080008007800cb06070068006000fcff32006b
:103018004f04780000000600889fbe008a9fbe000b
:103028008c1f7800ddff0700c4f680008404e900e7
:10303800180033008a0c20000aa5b900634bb900b8
:1030480034ee2100040443000bc2b300ac0f20008f
:10305800184278008480fb0078f897000080fb0015
:10306800400307000b407800360207008c00780008
:103078000a00780071050700ca1ed500bd040700c4
:103088004a06b1008904e90063045400e08f540043
:10309800efff3d004f0678004f05be004f04be000d
:1030a80000000600881f780000047800daff070097
:1030b800c08f8400d18f84006aff0700e10f54009d
:1030c8000800320003003900e20f54000c003a00f7
:1030d80008003700509184006191840061ff070067
:1030e8000700370030928400419284005dff07009a
:1030f80003003700f09284000193840059ff070011
:1031080014c0b3000002fd00fcffb7000002fd0080
:10311800b6ff07004f04780000000600da3eb4004e
:10312800d08e8400e18e84004eff0700110020003d
:10313800d0f68000b302070000000600e10f50003f
:1031480001003e0020002000da3eb500d08e840049
:10315800e18e840043ff0700e10207001100200010
:10316800d0f68000a7020700508f8400618f84008a
:103178003cff070011002000e0f68000a1020700d4
:103188006fff0700d4f68000e00f52000a003200fb
:1031980045012000809fbe00110009000582d8006b
:1031a800000278004f00be000482e800c4f68800e0
:1031b8007aff0700020037000000eb00b9ff0700a4
:1031c8000000060024ee21001442780025fa2100b0
:1031d8009542780084cf52006a003a0034ee21000c
:1031e8001442780035fa21009542780084cf5200c5
:1031f80064003a0040012000c8ff0700c4f68000c0
:103208008402e800c5f688006323b90061c8b300ea
:1032180040ee210001707b00f6f68000e00f5300bd
:103228002d0032008582e9006328b90027ee2100cd
:10323800870340001740900037ee2100974378003d
:10324800874f50000c003a006320b90024ee21009b
:10325800000242006328b900ea02400087ed21001d
:1032680067c07a00064a5000858243009542900064
:1032780015429800420037006320b900632bb9005b
:10328800ea02430086ed2100ea03430066c17a00a2
:1032980082737800850243009542900036ee210043
:1032a80016437800854f53000500360024ee2100b0
:1032b800000242008542e9001542980030003700bc
:1032c8006323b90024ee2100060242008542e8008b
:1032d800154298002a0037008582e900632bb9005f
:1032e8006a03430087ed2100e7437b0026ee2100b7
:1032f8001643780086cf53000c003a006320b900cb
:1033080024ee210000024200074a78006328b90031
:1033180026ee2100860240001543900005f7800044
:103328008542530015429800150037006320b90004
:1033380027ee2100008043006329b900ea0241001a
:1033480087ed21008580430091409000114098004e
:10335800e7c27a00854f5300050036006323b900a1
:1033680024ee210006024200054ae9000400370065
:103378006323b90024ee210006024200054ae80052
:10338800c1fe070000000600c7f680000000eb0041
:10339800e18f530011003600e2debf0031ee21005c
:1033a8009140780054ee210015002000944f500001
:1033b80003003a001443900086cf50000600320004
:1033c8008502e80063024200858f5300f7ff3e0044
:1033d8000000eb000100370010002000000006008c
:1033e800f4f68000e00f520003003a0004f7800072
:1033f800e00f52002f003200d1fe0700c4f6800013
:10340800e10f52000c0032000482e9006323b90086
:1034180024ee210004024300f5ed21001443780056
:1034280036429800144390004642980063025200c6
:10343800850f5200f9ff3a00f5f6800024ee2100ce
:1034480094c242008002fd00e2feb7008002fd0047
:1034580004f7800036ee2100164242000002fd000b
:10346800e3feb7000002fd008542e90016c2b30082
:1034780086cf520004003e00e14f520002003600a1
:10348800f94f5200030036001000200005ff070026
:1034980008003700bcff0700e00f500003003200af
:1034a80020002000fffe07000200370045ff07004c
:1034b800bafe070000000600a6010700a00b2900bd
:1034c800ab010700a00c2900a9010700a00d2900e5
:1034d800a7010700b00e2900a50107002011290047
:1034e800a301070060132900a1010700a015290006
:1034f8009f010700c01729009d01070040192900f6
:103508009b010700101b290099010700b7fe07005f
:1035180000000600881f7800fc7fef000000eb0029
:1035280003f4070078f507000004eb00f8f68800bc
:1035380008f7880024002000c4f688004401200011
:10354800d4f68800e8f68800c4c0b3000002fd0085
:10355800e2feb700e3feb7000002fd0075c8b30045
:103568008002fd00e4feb7008002fd00b5c0b30094
:103578008002fd00e5feb7008002fd000002fd00ac
:10358800e6feb7000002fd0064c8b3000002fd00bb
:10359800e7feb7000002fd00674242000002fd009e
:1035a800a4ffb7000002fd006a010700d08e840066
:1035b800e18e84002bfe070011002000d0f6800069
:1035c80090010700508f8400618f840025fe07005a
:1035d80011002000e0f680008a0107001400200096
:1035e800730d200003017800810020000800780096
:1035f8005afc070024fe070068fe07004f04780005
:1036080000000600889fbe008a1f7800ee040700ad
:10361800a9ff0700bfff07000004eb000902200014
:10362800aac8b300a0002000520307006a0444009f
:1036380054f68000809fbe00110009000484d80061
:10364800010278004f00be00e00f52000e003a0061
:10365800dc3eec00d0f68000a4002000811f78003a
:10366800110009000480d800cf007800b3fe0700dd
:1036780014002000730d2000030178008100200051
:103688000000eb0035fc07001000200029050700aa
:10369800890f50002a00320003003e00f00f50004e
:1036a80030003a001c00370004042000840f50004a
:1036b8000400320004082000840f500029003a005a
:1036c8000a003700f4f68000e10f520025003200ae
:1036d800debeef00e03eef0084c8b3000002fd004c
:1036e800e4feb7000002fd001e003700f4f680007b
:1036f800e10f42001b00320014002000f4f688009d
:10370800e03eef0074c8b3000002fd00e4feb7001d
:103718000002fd001300370004f78000e10f52009b
:1037280010003200e0beef00de3eef0094c8b300a8
:103738000002fd00e4feb7000002fd0009003700aa
:1037480004f78000e10f4200060032001400200058
:1037580004f78800de3eef000005fd00e4feb70038
:103768000005fd001eff0700c4ff21001442780079
:10377800e04f5200abff320066ff0700a9ff370099
:1037880074ff8000c5a2de006702620062021200b8
:1037980014003b000403ea001200320080ff80009e
:1037a80067004000048020007b00b90085004000cd
:1037b80001014200f703200086b9de00e4c078006a
:1037c80003c968008502e800850240000500420040
:1037d80068031300863bdd0064c27a0007486a006c
:1037e8000a00370080ff8000670040000680200044
:1037f8007b00b9008082420085034300f00320006b
:103808000402dd00e6c27a0084cb6a0000000600ec
:10381800025f2100818d200000802000a9f40700ac
:1038280004df2100d7000900005aeb000000060061
:10383800025f210001802000800d2000010040006f
:10384800a0f4070004802000d7000900005aeb000c
:103858000000060074ff80006602420074ff8800c2
:10386800250d2000850f52000a003600ee3fef00bc
:1038780084ff80006802420084ff8800e6824200dc
:10388800850f520003003600e1ff070080ff2f007c
:10389800f03fb4000000060074ff8000e50f5200fe
:1038a800030036006602520074ff880009003700e2
:1038b800c40c200074ff880084ff8000e70f5200ca
:1038c800030036006802520084ff880001003700b8
:1038d800d7ff07000000060084ff8000e70f5200b2
:1038e800030036006802520084ff88000100370098
:1038f800cfff07000000060084ff8000850c200031
:10390800850f520003003e006802420084ff8800d1
:1039180001003700beff070000000600ee3fef0081
:1039280084ff8000050d2000850f520002003a0038
:10393800b7ff0700020037006802420084ff8800d2
:1039480000000600e6874700889fbe008a9fbe00e9
:103958008c9fbe008e1f780073ff800089ff800057
:10396800e94f500007003200ed4f500003003200cd
:10397800e84f50001b003a0018003700e7ff070027
:103988006e003700a4ff2100144278000482fb0077
:10399800809fbe00110009008481d80001027800d0
:1039a8004f00be008301420073ff8800140d200001
:1039b800848f510061003600ee3fef000402e900f9
:1039c800848f540002003a0091ff07005b00370023
:1039d800e884440089ff880058003700aeff0700dc
:1039e8005600370006ceb30006434000d4c6b300e5
:1039f800844f530051003e00c39ede00e781610002
:103a0800e28111004f9ade008300ea0084806000a2
:103a180052ff800064016100fa03200001d6de0035
:103a2800688410008855dd000cc2ea0084f79f0006
:103a38000bc7ea00feef9f000355dd000ac2ea004b
:103a4800e4ef9f008903e8007b4ab900840278000c
:103a58000d82420000802000000242000683fb0025
:103a68004337dd00a6d42800060347008d06e8008a
:103a78008d8242008082420069804400e08f5000bd
:103a880018003200e00f51000b0032009646780013
:103a98008d84fb0001cfde000ec7ea009446760055
:103aa8000d4a6700884cdd0089c4ea0095c6750098
:103ab8008dca64001a003700164778008e84fb0010
:103ac8008ff6970014c7660081cede000d4a770096
:103ad8007fef970095466700884cdd0089ca76001d
:103ae8000f003700e00f51000700320096447800bd
:103af8008986fb00836edd008dc6ea00944475005c
:103b080009ca6600060037006fef97009446670001
:103b1800164778008e84fb00834cdd0009ca7600c6
:103b28008703e8007b0242000603e800fb824200ac
:103b3800808f5300d1ff3a0046ff07004f077800f7
:103b48004f06be004f05be004f04be006f00b10017
:103b58000000060004802000c7160900005aeb0088
:103b68000002eb0074ff880084ff88000000060054
:103b7800881f78000004780018407800e04f500053
:103b8800040032006fff070058407800e04f5000f3
:103b9800fcff3a004f047800000006000c00fa0011
:103ba8000042eb00f4ff9f000183fb000f82e90055
:103bb8000c003700ef426000054a7800e9cf520058
:103bc80003003c0007c3b30007ca420002003700e5
:103bd80077c3b30007ca42004400de000402e900cc
:103be8000603e900e00f5300f2ff3d00e00f50002c
:103bf800f0ff3a000400e800ddff07000080fa004b
:103c0800000006000e00fa000042eb00f4ff9f00df
:103c1800ed8f500001003600d10020000001eb00bc
:103c2800820f500002003d000000ea001200200050
:103c380081027800e00f50000d0034000f82e90087
:103c4800a600200081037800110009000600d800b2
:103c58008103fd0003c3b30003d24300840378004b
:103c68008502e900e00f5000f6ff3c000100370034
:103c78008f83e900858f500003003a0004c3b30026
:103c8800845378008502e900e08f52000700340071
:103c9800058053000702780006c2b3000652780078
:103ca800800f5200fdff3a0085835300e00f51005a
:103cb80003003200d4c2b300844b780002003700fe
:103cc80004c2b300844b780007007800a8ff0700ff
:103cd8000080fa0000000600faffb70000000600a6
:103ce800889fbe008a9fbe007aff80008bff8000fd
:103cf800540c2000840f550007003e0008c2b30092
:103d080084047800084078000eff070074ff8000e4
:103d1800890f5200fbff360000c2b30009ff0700fd
:103d28007aff88008bff88004f05be004f04be0055
:103d38000000060075ff800064002000801f7800e6
:103d4800110009008482d800000278004f00780032
:103d58000408780084ff80004322de0014009800e5
:103d68000000060024022000840f500006003e00d8
:103d7800fa8f500004003e006602b90074ff880004
:103d8800c308dd0081ff880000000600889fbe0090
:103d980071ff800087ff8000438ade00e7806000b3
:103da800e2801000cf8ade000103ea000503630009
:103db800f503200086a9de00680113000229dd0052
:103dc8008128dd008702e8007b3cb900080042003a
:103dd8000480200004024000ea834300e00f5300ff
:103de8000500320014ca69001440900002406800bf
:103df800104298000100370014ca68008502e800e4
:103e08007b024200878f5200f4ff3a004f04be0045
:103e180000000600881f7800e00f50000b003200f9
:103e280054ff80000400a0000410a20054ff880082
:103e380064ff8000e10f520002003a00d3ff070040
:103e48000e0037004efe07000c00370058ff8000b8
:103e5800620264000800320064ff8000e10f520033
:103e680002003a00c9ff07000100370044fe0700be
:103e78000810a10058ff8800ea1fa9004f04780025
:103e880000000600881f780000047800ea3fab00b5
:103e9800060032000000eb00deff070068ff880024
:103ea80010002000dbff07000100370068ff8800d2
:103eb8004f04780000000600ea5fa8000000060032
:103ec800ea5fa90000000600889fbe008a1f7800ec
:103ed800000578000002eb00a1fa21000003eb00c6
:103ee80066804000c322dd0085834000860b780091
:103ef80085024000860a78000402e800e80f5200b4
:103f0800f8ff3a00a63fef00a83fef0005e1a9003f
:103f18000421a9006154b8000801be000040220035
:103f2800410f200098f20700e10f4000e08f580091
:103f38000b00360014002000f6ff2f0007002000b9
:103f48008100d1000080d30004024200860f500097
:103f5800878f5800faff3e00e10f520006003a0032
:103f6800240880000440a1000450a100240888000f
:103f78001008880020003700e80f52000a003e00b1
:103f8800240880000440a0000450a10024088800f0
:103f98000801be0000482800e10120007af207006d
:103fa800100888001400370005042000850f52000f
:103fb8000a003e00240880000440a1000450a0002c
:103fc800240888000801be0000092d0031002000e7
:103fd8006df2070010088800070037000003200072
:103fe8000421b70044422f00110009000a82d800ba
:103ff80000027800140888008460a9009460a80072
:1040080005e1a8004f0578004f04be000000060037
:104018000082eb00e00f510020003200aa1fab0025
:104028000700320014002000c322dd00a6fa210098
:10403800e6827a00e182620014003a00010037004b
:104048000002eb00c322dd0037002000a6fa2100a1
:1040580007b37a00e18f500004003a00e6837a0043
:10406800850243000720a000870a7800c322dd00ec
:10407800c6fa210000b37a000683e80000b37a008c
:104088000683e80002b37a00040037000402e8005f
:10409800e80f5200e4ff3a000082eb0004007800c9
:1040a80000000600e70f50000b003e004302dd0051
:1040b800a5fa210065027a0061026200060032005a
:1040c8004300dd0005027800e402780000004200a9
:1040d8000510a0000508780000000600e70f500052
:1040e8000f003e004302dd00a5fa210065027a00b8
:1040f800610262000a0032004300dd000083e8002c
:1041080005027800e482420064037b00863278006e
:10411800e4027800000042000510a10005087800bc
:1041280000000600e80f500008003e004302dd00d2
:10413800a5fa210065027a00e00f52000300320060
:104148004300dd000582e800013278000000060027
:10415800e70f500008003e004300dd00a5fa2100eb
:10416800808242000002eb00840a780005fb2100ef
:1041780000804200040878000000060030fd80003e
:1041880041fd8000000006003600f800809fbe0058
:10419800829fbe00849fbe00869fbe00889fbe008f
:1041a8008a9fbe0034fd800045fd80006102420008
:1041b800e0824a0034fd880045fd88000004eb00d9
:1041c800e9fa21004342dd00a5fa210065027a00e0
:1041d80063026200e10f52001c003a004343dd0015
:1041e80064024300e5037a0006834400070be900f4
:1041f80065027a00e00f520014003a00c345dd0062
:1042080066824500050578006a027a00040001000c
:104218006a827d0064026200060032000b027800a8
:104228008482e8000a03780066837a0086347a007c
:10423800060037004342dd00a5fa210065037a0035
:10424800048242000610a000060a78000804e8006c
:10425800e80f5400dbff3a008460a9004f05be0058
:104268004f04be004f03be004f02be004f01be0008
:104278004f00be003600f90000400600853f2000d0
:1042880065088800b4042000140c8800050c880018
:10429800e50b2000a50c8800053e2000950c880041
:1042a80074f68800c43a200064f68800c83eef001f
:1042b800c403200054f688000000060005402000d2
:1042c80065088800b4042000140c8800050c8800d8
:1042d800350c2000a50c8800653e2000950c880050
:1042e80074f68800443b200064f68800140020001f
:1042f80044f688002403200054f6880000000600d5
:1043080011e1a90055168000040021000482620012
:1043180002003200d9ff070001003700e7ff07005d
:10432800240c80000400a0000410a1000420a000b8
:10433800240c880062a0a80084e0a90094e0a800ea
:104348004382a80042a2a800141280000420a00002
:104358000430a1000440a00014128800300020009e
:104368004222b7004402a80041e2a80011e1a800d7
:1043780000000600a4f68000b5f6800000004200a8
:10438800e0804a00a4f68000b5f68000840f500053
:10439800858f5800fbff3e0000000600e00f50002c
:1043a80002003a00d29ea90001003700d29ea80060
:1043b8000000060000a0fe00849fbe0084f6800076
:1043c8000402e80084f6880075032000850f520077
:1043d8003600320007003e00e40f52001c00320095
:1043e800fe0f520022003200e10f520053003a0043
:1043f8000f00370075102000850f52003a00320078
:1044080004003e00f1825200850f52004b003a0032
:1044180020003700f5102000850f52002c003200d4
:1044280095132000850f520044003a0039003700e8
:10443800cc1ef8008201f900b40c80000400a10031
:104448000410a1000420a100b40c88003b00370030
:10445800b40c80000400a0000410a1000420a000f7
:10446800b40c8800ce1ef8008201f9003300370032
:1044780044f68000e00f520030003a00d29eab00b4
:104488002e003a008660a9009660a800d27ea90096
:104498002a00370044f68000e00f520027003a0057
:1044a8009660a900d27ea8002400370044f6800058
:1044b800e10f520021003a00d29eab001f003a00e3
:1044c8008660a9009660a800d27ea9001b0037006c
:1044d80044f68000e10f520018003a009660a900e7
:1044e800d27ea8001500370044f68000e00f520085
:1044f80012003a00d03eef00a4f68000b5f6800026
:1045080061024200e0824a00a4f68800b5f68800fd
:104518000a00370044f68000e10f520007003a0015
:10452800d03eef00a4f68000b5f68000610242009c
:10453800e0824a00a4f68800b5f6880084e0a90065
:104548004f02be000080fe000040060000a0fe00f2
:10455800849fbe00869fbe00cb22ab0016003200af
:1045680044f68000e00f520003003a0086f680000f
:104578007e0353000200370086f680007603b10000
:104588007b33b900f47f2000040343008002eb0072
:104598004022ab00feff3a005602fb00441288009e
:1045a8008502e800fb8f5200f9ff3a004022ab0079
:1045b800feff3a004822ef008660a9004f03be00c4
:1045c8004f02be000080fe0000400600540c800030
:1045d8000400a1000410a1000420a100540c8800cc
:1045e80025ff210095427800a4cfb30004c26200e1
:1045f80004007800f2ffb70000000600e00f50004a
:1046080001003200a0ff8800a22e22008000eb00eb
:10461800100020007efe0700b0ff88008a61a80015
:104628008821ef0013e1a900940880000440a0004d
:104638000450a1009408880000000600889fbe006e
:104648008a1f780001057800540c80000400a1003e
:104658000410a1000420a100540c88006104b800d3
:104668000801be0000242400f1002000c6f0070065
:10467800300c880013e1a9000801be00004828009a
:10468800e1012000c0f007000002e900740888007a
:10469800f21fa800540c80000400a0000410a10020
:1046a8000420a000540c880013e1a800b0ff80008b
:1046b800a4ff8000801f7800110009000485d8003d
:1046c800800078004f00780096fe0700b0ff800059
:1046d80082fe07004f0578004f04be000000060068
:1046e800c0ff88000002eb00900f12000c0032009f
:1046f800000278008002eb00d48f1200080032001c
:10470800f23fa8008500a9009500a8009000780055
:10471800c4ff880034007800c4ff8800c7ff070082
:104728000000060024ff210014427800e04f5200e8
:1047380010003a0013e1a900740c200074088800e6
:1047480013e1a9008500a9009500a80013e1a800bd
:10475800b4ff8000a5ff8000110009000580d80083
:104768008000fd00040078006efe0700b0ff8000a6
:104778005afe0700f25fa8000000060024ff21008f
:1047880014427800e04f5200fcff3a000000060097
:104798003600f800809fbe00829fbe00849fbe0046
:1047a800869fbe0024ff2100144278006402620044
:1047b80007003200dbf00700e1026000ca2add00d2
:1047c8006416800004a0a100050272006416880027
:1047d80024ff210014427800e04f520003003a0001
:1047e8009500a90013e1a9002700370025ff210043
:1047f8009542780024ff2100144278008582fb004e
:1048080062026200848f52001f003a00c4ff8000d9
:1048180034007800c4ff8800b4007800c4ff880022
:10482800e08f500015003200e00f50000200320007
:1048380082ff070014003700b0ff8000a4ff80004b
:10484800801f7800110009008480d800800078005b
:104858004f00780033fe0700b0ff80001ffe0700fe
:10486800f21fa800540c80000400a0000410a1004e
:104878000420a000540c880003003700f27fef00ea
:104888009500a90013e1a9008500a9004f03be0007
:104898004f02be004f01be004f00be003600f900b7
:1048a80000400600e6874700889fbe008a9fbe003a
:1048b8008c9fbe008e1f78000005eb009bd428005b
:1048c800a85c2800ee7f20008044eb000a007800f6
:1048d800f40420000a02520001003b000002eb0031
:1048e80003052000848151004240a90016003400cd
:1048f8000b037800f7042000038153000180200097
:1049080008003700d46a7800860f5200fdff3a008d
:104918008703e9000000e90078035300828f530001
:104928000a003200783ab9000402e900080242009d
:104938007b06b900fcb79f008dbf9f008c02e80082
:1049480081824200efff37008001eb0083015500b0
:104958004240a900090034000303e9007b33b90091
:1049680014802000040243007b1bb9008602470024
:10497800096a7800850f5200fdff3a0010002000f8
:104988007cfe07000a05e80044092000840f550052
:10499800ceff3a004101200020002000f1fc070072
:1049a8002026290072fc0700400b200071fe07003a
:1049b8004f0778004f06be004f05be004f04be00eb
:1049c8006f00b10000000600070007004006200045
:1049d8003dfd07004afe0700a000200007ff070072
:1049e800b0ff070000000600163a8000f60bb20080
:1049f800640420007505200027742000844b78008b
:104a0800854b7800864b780026368000f70f2e00fd
:104a18000703630000702000000373002636880037
:104a28003036800006fe2f00060060005001b300fb
:104a3800303688003036800087036000002021006f
:104a4800808373003736880047368000068363000a
:104a58003601b30046368800163a80000660a0008a
:104a680027742000844b7800854b7800864b7800ab
:104a7800c8a2a900c8c2a900c8e2a900c902a90021
:104a8800c942a900c922a800c982a8002d83a8008c
:104a9800c002a800c022a800c802a900c822a90014
:104aa8002c03a8002c23a80000002700a620b7008c
:104ab800ac20b700440580003400b3000420a100f6
:104ac800440588002405800004c0a10004d0a0008b
:104ad80004e0a1002405880000000600cc22a800fc
:104ae80044002000000000000402e900fdff3a0035
:104af800cc22a90044002000000000000402e900c4
:104b0800fdff3a0000000600cc02a8004400200087
:104b1800000000000402e900fdff3a00cc02a900f1
:104b280044002000000000000402e900fdff3a00f4
:104b380000000600889fbe008a9fbe008c9fbe00b2
:104b480080067800e5ff07008004eb00090578007f
:104b5800090478008005eb001c0020001416800072
:104b6800e1026200882add00050575006202620024
:104b78008b027800010032008862dd0085847400b1
:104b8800e1ff07000804e800ef0f5400f3ff3a00c4
:104b9800e18f560004003a000a80ea00f4ff200082
:104ba80004006000030037000980ea00f4ff2000d9
:104bb800040060004f06be004f05be004f04be0053
:044bc80000000600e3
:020000040000fa
:104bcc0000080000d816000000000000f21f0000d2
:104bdc00040000000200000000000a0000000000b9
:104bec00f61f00000400000000000000ea1f000097
:104bfc000800000000000000fa1f00000200000086
:104c0c000200000004000000a61f00004400000089
:104c1c0000000000fc1f0000020000000200000069
:104c2c0000000000d81e0000ce00000000000000b4
:104c3c00fe1f000006000000000000000000000045
:020000040000fa
:020000040001f9
:0457f800be2b0000c4
:020000040000fa
:020000040001f9
:0457fc007f3f0000eb
:00000001FF
