:020000040000fa
:080000000002040000000000f2
:020000040000fa
:100008009802000098020000980200009802000080
:100018009802000098020000980200009802000070
:100028009802000098020000980200009412000054
:100038009802000098020000980200009613000041
:10004800361500009802000098020000980200008f
:100058009802000098020000980200009802000030
:100068009802000098020000980200005a1400004c
:100078009802000098020000980200009802000010
:100088009802000098020000980200009802000000
:1000980098020000980200009802000098020000f0
:1000a80098020000980200009802000098020000e0
:1000b80098020000980200009802000098020000d0
:1000c80098020000980200009802000098020000c0
:1000d80098020000980200009802000098020000b0
:1000e80098020000980200009802000098020000a0
:1000f8009802000098020000980200009802000090
:10010800980200009802000098020000980200007f
:10011800980200009802000098020000980200006f
:10012800980200009802000098020000980200005f
:10013800980200009802000098020000980200004f
:10014800980200009802000098020000980200003f
:10015800980200009802000098020000980200002f
:10016800980200009802000098020000980200001f
:10017800980200009802000098020000980200000f
:1001880098020000980200009802000098020000ff
:1001980098020000980200009802000098020000ef
:1001a80098020000980200009802000098020000df
:1001b80098020000980200009802000098020000cf
:1001c80098020000980200009802000098020000bf
:1001d80098020000980200009802000098020000af
:1001e800980200009802000098020000980200009f
:0801f8009802000098020000cb
:020000040000fa
:10020800980200009802000098020000980200007e
:10021800980200009802000098020000980200006e
:100228009802000098020000980200009412000052
:10023800980200009802000098020000961300003f
:10024800361500009802000098020000980200008d
:10025800980200009802000098020000980200002e
:100268009802000098020000980200005a1400004a
:10027800980200009802000098020000980200000e
:1002880098020000980200009802000098020000fe
:1002980098020000980200009802000098020000ee
:1002a80098020000980200009802000098020000de
:1002b80098020000980200009802000098020000ce
:1002c80098020000980200009802000098020000be
:1002d80098020000980200009802000098020000ae
:1002e800980200009802000098020000980200009e
:1002f800980200009802000098020000980200008e
:10030800980200009802000098020000980200007d
:10031800980200009802000098020000980200006d
:10032800980200009802000098020000980200005d
:10033800980200009802000098020000980200004d
:10034800980200009802000098020000980200003d
:10035800980200009802000098020000980200002d
:10036800980200009802000098020000980200001d
:10037800980200009802000098020000980200000d
:1003880098020000980200009802000098020000fd
:1003980098020000980200009802000098020000ed
:1003a80098020000980200009802000098020000dd
:1003b80098020000980200009802000098020000cd
:1003c80098020000980200009802000098020000bd
:1003d80098020000980200009802000098020000ad
:1003e800980200009802000098020000980200009d
:0803f8009802000098020000c9
:020000040000fa
:100400002ff321000e7f22000e0188000000000063
:1004100000012000200288000c000700006a210073
:100420000100200011000700000020000000e00093
:100430000200320000000200000000008a150200e5
:10044000000000000040da000000fe004440a90067
:10045000c03220000000e000030032000000200055
:10046000a00188004440a800000006009101880017
:10047000800078000000eb0015003700e2804000ab
:1004800032a0b4009101ba00e280400032a0b40072
:100490009102ba00e280400032a0b4000002eb00fa
:1004a000472bde00f507b200602ce10004003a00a3
:1004b0000059eb008301e900fdff3e000400370016
:1004c0006128e100010032000082eb000400070017
:1004d0001101ba000200e000e8ff3a000000060047
:1004e0003159ba008301e9000c0032002159ba00e9
:1004f0008301e900080032000400e00003003a0034
:10050000e280400032a0b400f5ff370011d9ba00f4
:100510008301e900faff3a008100e800e180400031
:1005200032a0b4000000060000000000000000003f
:100530000040da000000fe0000027800850880001c
:10054000e08f5200030035001061a8000000280071
:100550001021b7003008800041088000e00f5200f1
:1005600001003200008abe000000060003f0a20075
:10057000889fbe008a9fbe008c1f7800b8000700cd
:10058000bf0033006450e1004f0032006420e100fe
:100590005200320003826c0007003b000905d000c6
:1005a0000306d000820f54000c065d0002003900e3
:1005b0000200320089017800030678008582550028
:1005c00004003d000003fd008103fd008502ea00f8
:1005d0008b854200840f720002003b006000100017
:1005e000e08018006011b8000005eb007a28e100f7
:1005f0000a00390006007800c75ddd00f707b20089
:10060000878075002d003700828171000a01780013
:10061000610560008180d1000080d3008502e9007f
:10062000f9ff3b00060440008784480002003b00bd
:1006300060041400e0841c000988a3000700320055
:100640008a81710082817100610164008904d10096
:100650000884d3008b05e800170037000978a30051
:1006600013003a000b00e000130034008b05e90092
:100670000804440089844c000a4474000978a300eb
:100680000d003a000b00e000070034008b05e90084
:100690000804440089844c0001003a000b0020004b
:1006a0000978a300f7ff32000001eb0002003700d9
:1006b000828171000a0178002e0007000cf0a7006b
:1006c00001f0a000770037006420e10002003a004a
:1006d000838f6c00770033000801be000200be006b
:1006e000700037000001be00480007000470a7003a
:1006f00003f0a1006509b100160032000d003500bd
:100700006828e10006003500f0ff2f00f1ff270008
:100710000300e00013003b0001002800000005007a
:1007200000004000818048008502e900fcff3a009b
:1007300008003700f88f420002003c008000eb0008
:10074000000005008100d1000080d3008502e80090
:10075000fcff3a000300e00002003b0060001000d4
:10076000e0801800000006004f89de00820178005a
:100770009700370081002000618055000b003d008c
:100780000b00200061fe2f000100e1001d0034007d
:1007900082817100610164008904d1000884d30062
:1007a0000000e800faff3a007100200061006400d8
:1007b0000300700002006000090032006104440080
:1007c000e0844c000988a500050032008b05e80094
:1007d0006808e10002003a008904d1000884d300cf
:1007e000f20f20000258e10005003d00c75ddd006a
:1007f000f907b20089807500080078000000060043
:100800000bf827008b00780000000500c70ade0007
:10081000f107b200f50fb20008003200e1cf42004c
:10082000020032000170a00024000500810f70005a
:10083000010032000408050044000500810f70002b
:1008400002003a00140005008502e90000004000a3
:1008500081c04800fcff3b000170a000240005009f
:100860000004be00e9ff07000003be000405be004f
:100870000200be00e5ff0700844f7500000006007f
:100880000200be006450e100050036006420e10073
:10089000020036000968a30001003a000800be000b
:1008a0000160a0004f0678004f05be004f04be0057
:1008b00000000600f0ff2f00f1ff2700f9ff3700ce
:1008c000889fbe008a9fbe008c1f7800e4ff07004f
:1008d000ebff330003866c006450e100240032001b
:1008e0006420e100270032006150e1002200320064
:1008f0006120e100210032008b854200eb07b1004e
:100900000134b800003ab8000804420089844a0063
:10091000013ab8000030b8008880400009014a0060
:1009200004003300000040008180480002014900bb
:100930008b05e900c909dd00830170000100320068
:1009400013002000c814de004814dd004709de0053
:100950001200b200c808de000884700085ff07009e
:1009600001f0a1000cf0a70001f0a000cdff3700be
:100970006120e100cfff32000801be000200be008e
:10098000f7ff37006150e100fcff3a00c9ff370074
:100990006022b800060220000000d0008180d20052
:1009a0000482d2008582d2000000a0000202520020
:1009b00083825a00030031000202420083824a000f
:1009c0000000a1000603e900f3ff3a000000060062
:1009d000881f7800030478000300e00007003d0052
:1009e00060001000e080180060011900e08119002b
:1009f00002003b0001f02d00030037000400070057
:100a000008f0a70001f0a0004f04780000000600e5
:100a1000889fbe008a9fbe000082700004027100a1
:100a200004827100260032000004be000200be00f5
:100a30006011b8006b092000950220000182cf00f0
:100a40000a0039000541b1000082cf0007003900db
:100a50000541b1000982cf00040039000541b10011
:100a60000882cf00010039000541b1000542520063
:100a7000120032000a003b008281710061016400b3
:100a80008100d1000080d3008984d3000884d30082
:100a90008b05e8000442e800f7ff3a000700370042
:100aa0000804440089844c0000004800818048000c
:100ab0008b05e9000442e900f9ff3a002dff070029
:100ac0004f05be004f04be00000006000002780083
:100ad000808f50000800310082824000808f5200d9
:100ae0000500360002024000456278000201e9007c
:100af000fdff3a0000000600e00f51000300320045
:100b0000315a78000201e900fbff370000000600bf
:100b10000100200070f9880081f9880015c0b30039
:100b2000c4f22100054a780000000600c4f221004a
:100b30008042eb0094cf120002003a001000200027
:100b4000f3ff0700d2e62400631c240070f9800044
:100b500081f98000090007009403230005002000ac
:100b60000002420081824a0074f9880085f98800f9
:100b70000500780000f0a10000000600020ab9009c
:100b8000001bb9000200b800810042008100430050
:040b9000000006005b
:020000040000fa
:100b94000000000000000000000000000000000051
:100ba4000808000008080000080000000800000011
:100bb40014140000140000000000000000000000f5
:100bc400141400003e1400003e1400001400000041
:100bd400081e0000281c00000a3c00000800000059
:100be4003032000004080000102600000600000057
:100bf40018240000281000002a2400001a00000015
:100c040018080000100000000000000000000000b0
:100c14000408000010100000100800000400000088
:100c24001008000004040000040800001000000084
:100c3400000800002a1c00002a0800000000000030
:100c440000080000083e0000080800000000000042
:100c54000000000000000000180800001000000060
:100c640000000000003c0000000000000000000044
:100c74000000000000000000001800001800000040
:100c84000002000004080000102000000000000022
:100c94001c220000262a0000322200001c00000052
:100ca4000818000008080000080800003e000000c2
:100cb4001c22000004080000102000003e00000078
:100cc4003c020000023c0000020200003c00000064
:100cd400040c0000142400003e0400000400000082
:100ce4003e200000203c0000020200003c00000006
:100cf4000c100000203c0000222200001c00000018
:100d04003e02000004080000101000001000000063
:100d14001c220000221c0000222200001c000000f3
:100d24001c220000221c0000020200001c00000023
:100d3400001800001800000018180000000000004f
:100d4400001800001800000018080000100000003f
:100d54000408000010200000100800000400000037
:100d6400000000003e0000003e0000000000000003
:100d74001008000004020000040800001000000035
:100d84001c2200000204000008000000080000000b
:100d94001c220000021a00002a2a00001c00000085
:100da4001c220000223e000022220000220000003b
:100db4003c220000223c0000222200003c000000f3
:100dc4001e20000020200000202000001e00000043
:100dd4003c22000022220000222200003c000000ed
:100de4003e200000203e0000202000003e000000c5
:100df4003e200000203e00002020000020000000d3
:100e04001e200000202c0000222200001c000000f4
:100e140022220000223e00002222000022000000c4
:100e24001c08000008080000080800001c0000005e
:100e34001e0200000202000002240000180000004c
:100e44002224000028300000282400002200000092
:100e54002020000020200000202000003e00000090
:100e6400223600002a220000222200002200000074
:100e740022220000322a0000262200002200000064
:100e84001c22000022220000222200001c0000007c
:100e94003c220000223c0000202000002000000032
:100ea4001c220000222200002a2600001e0000004e
:100eb4003c220000223c0000282400002200000004
:100ec4001e200000201c0000020200003c00000064
:100ed4003e080000080800000808000008000000a0
:100ee4002222000022220000222200001c00000016
:100ef4002222000022220000221400000800000028
:100f040022220000222a00002a36000022000000cb
:100f14002222000014080000142200002200000015
:100f2400222200002214000008080000080000002b
:100f34003e04000008100000202000003e000000d5
:100f4400181000001010000010100000180000001d
:100f5400002000001008000004020000000000004f
:100f64000602000002020000020200000600000067
:100f7400081400002200000000000000000000002f
:100f84000000000000000000000000003e0000001f
:100f94001008000004000000000000000000000031
:100fa400000000001c0200001e2200001e000000c1
:100fb40020200000202c0000322200003c00000011
:100fc400000000001c200000202200001c00000083
:100fd40002020000021a0000262200001e00000087
:100fe400000000001c2200003e2000001c00000045
:100ff4000c12000010380000101000001000000057
:10100400000000001e220000221e0000021c00003e
:10101400202000002c3200002222000022000000c8
:101024000008000000080000080800000800000094
:10103400040000000c040000042400001800000058
:101044002020000024280000302800002400000094
:101054001808000008080000080800001c00000030
:1010640000000000342a00002a22000022000000b0
:10107400000000002c3200002222000022000000a8
:10108400000000001c220000222200001c000000be
:10109400000000003c220000223c00002020000050
:1010a400000000001a240000242c00001406000094
:1010b400000000002c32000020200000200000006e
:1010c400000000001c2000001c0200003c00000086
:1010d4001010000038100000101200000c00000076
:1010e4000000000022220000222600001a00000056
:1010f400000000002222000022140000080000006a
:1011040000000000222200002a2a0000140000002f
:101114000000000022140000081400002200000057
:101124000000000022220000221e0000021c000019
:10113400000000003e040000081000003e00000013
:10114400081000001020000010100000080000002b
:101154000808000008080000080800000800000053
:101164001008000008040000080800001000000037
:1011740000000000102a000004000000000000002d
:101184003e22000022220000222200003e00000035
:10119400202000002020000020200000202000004b
:1011a4000101000001010000010100000101000033
:1011b400626f0000756e0000636900006e670000d6
:1011c40020720000696e0000672000006465000062
:1011d4006d6f00002e000000b8010000e80300005d
:0811e40070030000e8030000a5
:020000040000fa
:1011ec00740d2000848f50001e003c00840f5000b2
:1011fc001c003c0084002000811f780011000900b5
:10120c000400d8008003780001007800cf0078003b
:10121c0067031000e10f510009003a00058020001f
:10122c007b08b900808043008183420014002000b9
:10123c000623dd0065c27800864b7200090037007a
:10124c00058020007b08b900808043008183420028
:10125c00140020000623dd0006c3ea00e5c2780076
:10126c00854b630000000600ea874700889fbe009c
:10127c008a9fbe008c9fbe008e1f780000047800f1
:10128c000105780082057800f3b79f00040678000a
:10129c000c0178008a00780008007800d0ff070065
:1012ac007fb29700840f550012003a008b0f540048
:1012bc0003003d001900200008844400040037009e
:1012cc008084eb008b0f5400fbff3a004b0037007f
:1012dc000c0178008a00780008007800c0ff070035
:1012ec000904440009025400848f5500f8ff3a00a9
:1012fc00420037008b0f540010003a008084eb0042
:10130c00ffb29700850f550001003d001900200029
:10131c000a8544000c0178008a00780008007800e7
:10132c00afff07000905450009025500ffb2970001
:10133c00848f5200f7ff3a003000370008875500c1
:10134c000ef0a7000e07ea00ffb297000a825200c7
:10135c0004f0a7000402ea0084bf9f000082eb00a7
:10136c00e4b79f008b0f540002003d0015002000d5
:10137c00e5b79f000082eb00d4b79f00ffb2970047
:10138c00850f550002003d0014002000d4b79f00cb
:10139c008fba9700850457008506ea0001003700d4
:1013ac000b047800098244008d0f520005003400b4
:1013bc000fba970084845400efb2970005044400e0
:1013cc0005003700840f5700030034008e8444005e
:1013dc005fb29700040545000c0178008a00780084
:1013ec00080078007eff07008b0f5400edff3a00d9
:1013fc00ffb29700850f5500e9ff3a004f077800c0
:10140c004f06be004f05be004f04be00af00b1003a
:10141c0000000600889fbe008a9fbe008c1f7800cb
:10142c008004780001047800020578000306780037
:10143c00840578000901780088007800090078009c
:10144c0089ff07000b0278008c0178000a017800f4
:10145c00880078000a00780083ff07000b027800f0
:10146c00880178000a01780088007800090078006b
:10147c007dff07000b0278008c0178000a017800d0
:10148c008c0078000900780077ff07004f06780081
:10149c004f05be004f04be00000006006f03b000f5
:1014ac00889fbe008a9fbe008c9fbe008e1f780056
:1014bc0090af9f00e1af9f000405be0006077800c7
:1014cc00029ab900040242000210b800a0af9f00bb
:1014dc00b1af9f0081004200b1af9f002fa99700d0
:1014ec00bfa997000202550083825d000aabb900c8
:1014fc0004d8b900060340000a22b8008502430054
:10150c000203be00e00f5100e08f590002003d00c5
:10151c0063034100e0834900ce39dd004233de0035
:10152c0006837100c2bbde000404430085844b00bb
:10153c00b8b79f00c9b79f000adab900040242008d
:10154c000a50b800d0a79f00e1a79f00810042007d
:10155c00e1a79f005fa19700efa197000201410056
:10156c008381490092a79f00a3a79f002faa9700f1
:10157c00bfaa97000402420085824a00d4b79f009c
:10158c00e5b79f00e4ff2f003fab970004b2b90012
:10159c00afab970007025200e5ff2f00afac9700ee
:1015ac00054cb800c8af9f00d9af9f00890442001a
:1015bc00d9af9f00f2a79f0083af9f0014002000bb
:1015cc0005002000f4b79f0085bf9f006066b8003f
:1015dc009faa97008502e900c5a79f001fab970043
:1015ec000603e800b6a79f00fa9f9f008ba79f00f9
:1015fc00500037006fa897000a005000f0af9f0012
:10160c007fb49700cfa097008880400091b79f00cf
:10161c000e017800800078001fb09700f0fe0700e4
:10162c006fa9970082044500bfa197000884510060
:10163c000e0178000800be00e9fe07000e017800dc
:10164c00890078001fb09700e5fe07000e017800b6
:10165c00ffa8970008007800e1fe07003fb2970052
:10166c00cfb29700e00f5200e08f5a000d003d0002
:10167c005fa49700efa497000402440085824c00fd
:10168c007fa097008fa897000c0340008d83480023
:10169c000601420087814a00b2b79f00c3b79f0082
:1016ac001a00370061055500e0855d003fb29700d8
:1016bc00cfb297005fa49700efa4970004034400f7
:1016cc0085834c00cfac970009dab9005fa997006d
:1016dc000a90b90004004000cfa997000352b8004b
:1016ec00850240000602420087824a007fa49700d0
:1016fc008fac97000c0344008d834c000600420015
:10170c0087804a00b0b79f00c1b79f007fa19700a8
:10171c008fa997000c0641008d8649007fb2970077
:10172c008fba970061024200e0824a00f4b79f0032
:10173c0085bf9f007fb397008fbb9700610053005c
:10174c00e0805b00dfb3970007dab9006fb4970055
:10175c000ac3b90004034300dfb497000952b80070
:10176c00850243008c0f52008d8f5a00a1ff3c0064
:10177c000a01be009ab79f00abb79f00f0af9f0065
:10178c0081b79f007f9d97008fa597000006be0034
:10179c00e00f5100e08f5900b80035000a00be0080
:1017ac00eefb07000004be001fb39700afb3970019
:1017bc0061035300e0835b00f6b79f0087bf9f0077
:1017cc000c00be00e5fb07000200200003f0230024
:1017dc0064fb07000001be0036fc07000801be00d8
:1017ec0034fc07000001be000800be0031fc0700fd
:1017fc000004be008fbb97007fb0970000bab90001
:10180c0004024200ffb09700d1b79f00010178009d
:10181c000210b80081004200afa99700038bb900f9
:10182c003fa997000092b900060242002fad970025
:10183c000a00b80081004200c8fb07000001be008e
:10184c000800be0047fb07000004be00bfa99700bc
:10185c005fa29700049bb9006fa09700afa89700f8
:10186c000182b900060242005fa197000250b80045
:10187c0081004200b9fb07000001be000800be0059
:10188c0037fb070094fb07000005be001fb697004e
:10189c00afb697004faa9700dfaa9700600212001c
:1018ac00e0821a0094b79f00a5b79f00dfaa9700ab
:1018bc007fb4970008abb9008fbc97004fa8970076
:1018cc0000cab90006024200cfa997005fb1970089
:1018dc000219b800b2b79f00c3b79f008301420042
:1018ec00c3b79f003fb29700cfb29700d4b79f0009
:1018fc00e5b79f009fa29700c5af9f00fab79f0066
:10190c008bbf9f00efab97008c8553007fac97008b
:10191c001fa89700000544000e0178000a00be00c5
:10192c002ffe0700efa897008c8440001fa997009a
:10193c00080451000e0178000800be0028fe0700c4
:10194c000e017800890078000a00780024fe070058
:10195c000e0178008b0078000800780020fe07004c
:10196c007fb297008fba9700e00f5200e08f5a00b9
:10197c000f00340061025600e0825e007fb49700d5
:10198c008fbc97002fa89700bfa8970008034000b2
:10199c00898348005fb19700efb1970002014300c3
:1019ac0083814b00f2b79f0083bf9f00200037005c
:1019bc0061025600e0825e007fab97008fb3970008
:1019cc0061034300e0834b00f6af9f0087b79f0095
:1019dc007fb497008fbc97002fa89700bfa89700e3
:1019ec000001540081815c00afa3970006b8b900d8
:1019fc000fb497009fa4970009c3b90000004300df
:101a0c00cfa897007fac9700080bb8008703400065
:101a1c000203430083834b003fb09700cfb0970085
:101a2c000000430081804b00f0b79f0081bf9f00f6
:101a3c0061065600e0865e005fb19700efb197003b
:101a4c001fb39700afb397000201430083814b0093
:101a5c00d2b79f00e3b79f003fb49700cfb4970075
:101a6c000804430089844b00b8b79f00c9b79f0096
:101a7c00e00f5200e08f5a00a2ff3d004f077800a4
:101a8c004f06be004f05be004f04be006f03b100f1
:101a9c0000000600889fbe008a9fbe008c1f780045
:101aac0000067800820578000105e9000a0545006a
:101abc008004eb00890f55000b0034000c047800f7
:101acc0028019000980090000b027800b80190005b
:101adc0018007800e4fd07008984e80064044400e1
:101aec00890f5500f6ff3c008902e8008582420010
:101afc00898444009c0090000b027800ec817a00f1
:101b0c006c817c001c007800d7fd07004f06780024
:101b1c004f05be004f04be0000000600f4f8800024
:101b2c00c5a2de00670262006202120014003b00d4
:101b3c000403ea001200320000f980006700400044
:101b4c00048020007b00b9008500400001014200a8
:101b5c00f703200086b9de00e4c0780003c96800f2
:101b6c008502e8008502400005004200680313006e
:101b7c00863bdd0064c27a0007486a000a00370021
:101b8c0000f9800067004000068020007b00b9004f
:101b9c008082420085034300f00320000402dd0034
:101bac00e6c27a0084cb6a0000000600025f2100c6
:101bbc00818d200000802000c1fb070004df210084
:101bcc00d7000900005aeb0000000600025f21005c
:101bdc0001802000800d200001004000b8fb0700b0
:101bec0004802000d7000900005aeb00000006001a
:101bfc00f4f8800066024200f4f88800250d2000fd
:101c0c00850f52000a0036001e3fef0004f98000d9
:101c1c006802420004f98800e6824200850f5200f7
:101c2c0003003600e1ff070080ff2f00203fb400c7
:101c3c0000000600f4f88000e50f520003003600a7
:101c4c0066025200f4f8880009003700c40c20002a
:101c5c00f4f8880004f98000e70f52000300360006
:101c6c006802520004f9880001003700d7ff070012
:101c7c000000060004f98000e70f52000300360054
:101c8c006802520004f9880001003700cfff0700fa
:101c9c000000060004f98000850c2000850f52001e
:101cac0003003e006802420004f98800010037007e
:101cbc00beff0700000006001e3fef0004f9800085
:101ccc00050d2000850f520002003a00b7ff0700f7
:101cdc00020037006802420004f988000000060088
:101cec00e6874700889fbe008a9fbe008c9fbe007f
:101cfc008e1f7800f3f8800001f98000e94f500046
:101d0c0007003200ed4f500003003200e84f500046
:101d1c001b003a0018003700e7ff07006d00370082
:101d2c00a4f22100144278000482fb00809fbe00c4
:101d3c00110009008481d800010278004f00be0018
:101d4c0083014200f3f88800140d2000848f5100a9
:101d5c00600036001e3fef000402e900848f500043
:101d6c0002003a0091ff07005a003700e88040005b
:101d7c0001f9880057003700aeff07005500370007
:101d8c00ff4f50005300340006ceb3000643400012
:101d9c00c39cde00e7816100e28111004f9ade00f6
:101dac000300ea0004006000d2f8800064016100c6
:101dbc00fa03200000d6de00680410008855dd0010
:101dcc000cc2ea0084f79f008bc6ea00fdef9f006f
:101ddc000355dd000ac7ea00eeef9f008103e8001f
:101dec007b0ab90084027800098242000d80200031
:101dfc000d0242000603fb004337dd00a65c280001
:101e0c00060347008904e800898242008d82420063
:101e1c00e9804000e00f500018003200e00f510044
:101e2c000b003200964678008d84fb0000cfde005c
:101e3c000ec7ea00944676000d4a6700884cdd0018
:101e4c0089c4ea0095c675008dca64001a00370073
:101e5c00164778008e84fb008ff6970014c7660037
:101e6c0080cede000d4a77007fef97009546670025
:101e7c00884cdd0089ca76000f003700e00f510056
:101e8c0007003200964478008986fb00836edd00e3
:101e9c008dc6ea009444750009ca66000600370036
:101eac006fef970094466700164778008e84fb000e
:101ebc00834cdd0009ca76008703e8007b024200f0
:101ecc000603e800fb824200818f5300d1ff3a00e9
:101edc0047ff07004f0778004f06be004f05be00b6
:101eec004f04be006f00b10000000600048020000b
:101efc00c7160900005aeb000002eb00f4f888004a
:101f0c0004f9880000000600881f7800000478009f
:101f1c0018407800e04f50000400320070ff0700ba
:101f2c0058407800e04f5000fcff3a004f04780016
:101f3c00000006000c00fa000042eb00f4ff9f00ca
:101f4c000183fb000f82e9000c003700ef426000b8
:101f5c00054a7800e9cf520003003c0007c3b300e8
:101f6c0007ca42000200370077c3b30007ca420019
:101f7c004400de000402e9000603e900e00f530010
:101f8c00f2ff3d00e00f5000f0ff3a000400e800c3
:101f9c00ddff07000080fa00000006000e00fa00ca
:101fac000042eb00f4ff9f00ed8f50000100360063
:101fbc00d10020000001eb00820f500002003d0018
:101fcc000000ea001200200081027800e00f5000af
:101fdc000d0034000f82e900a60020008103780078
:101fec00110009000600d8008103fd0003c3b300f3
:101ffc0003d24300840378008502e900e00f50000f
:10200c00f6ff3c00010037008f83e900858f5000fc
:10201c0003003a0004c3b300845378008502e9003e
:10202c00e08f52000700340005805300070278004f
:10203c0006c2b30006527800800f5200fdff3a0032
:10204c0085835300e00f510003003200d4c2b3006b
:10205c00844b78000200370004c2b300844b780034
:10206c0007007800a8ff07000080fa0000000600b7
:10207c002affb70000000600889fbe008a9fbe00a2
:10208c00faf880000bf98000540c2000840f5500e6
:10209c0007003e0008c2b3008404780008407800b2
:1020ac000fff0700f4f88000890f5200fbff360089
:1020bc0000c2b3000aff0700faf888000bf9880089
:1020cc004f05be004f04be0000000600f5f880006e
:1020dc0064002000801f7800110009008482d80061
:1020ec00000278004f0078000408780004f98000a2
:1020fc004322de0014009800000006002402200099
:10210c00840f500006003e00fa8f500004003e0081
:10211c006602b900f4f88800c308dd0001f98800f4
:10212c0000000600889fbe00f1f8800007f98000cf
:10213c00438ade00e7806000e2801000cf8ade0078
:10214c000103ea0005036300f503200086a9de0005
:10215c00680113000229dd008128dd008702e800f8
:10216c007b3cb900080042000480200004024000bf
:10217c00ea834300e00f53000500320014ca6900e3
:10218c001440900002406800104298000100370093
:10219c0014ca68008502e8007b024200878f520057
:1021ac00f4ff3a004f04be0000000600881f7800c0
:1021bc00e00f50000b003200d4f880000400a000a7
:1021cc000410a200d4f88800e4f88000e10f52005b
:1021dc0002003a00d3ff07000e0037004ffe070045
:1021ec000c003700d8f8800062026400080032004e
:1021fc00e4f88000e10f520002003a00c9ff07002a
:10220c000100370045fe07000810a100d8f888002f
:10221c001a1fa9004f04780000000600881f7800e0
:10222c00000478001a3fab00060032000000eb00ff
:10223c00deff0700e8f8880010002000dbff070035
:10224c0001003700e8f888004f0478000000060011
:10225c001a5fa800000006001a5fa9000000060023
:10226c00889fbe008a1f7800000578000002eb00f2
:10227c00a1ed21000003eb0066804000c322dd00cd
:10228c0085834000860b780085024000860a780022
:10229c000402e800e80f5200f8ff3a00d63eef00c7
:1022ac00d83eef0005e1a9006154b8000801be005a
:1022bc0000402200410f2000b2f90700e10f40005e
:1022cc00e08f58000b00360014002000f6ff2f00a2
:1022dc00070020008100d1000080d30004024200de
:1022ec00860f5000878f5800faff3e00e10f520016
:1022fc0006003a00240880000440a1000450a1000c
:10230c00240888001008880020003700e80f5200cd
:10231c000a003e00240880000440a0000450a100e4
:10232c00240888000801be0000482800e1012000b4
:10233c0094f90700100888001400370005042000e9
:10234c00850f52000a003e00240880000440a100c2
:10235c000450a000240888000801be0000092d00cc
:10236c003100200087f907001008880007003700ab
:10237c00000320000421b70044422f001100090083
:10238c000a82d80000027800140888008460a90032
:10239c009460a80005e1a8004f0578004f04be002a
:1023ac00000006000082eb00e00f5100200032001c
:1023bc00da1eab000700320014002000c322dd003f
:1023cc00a6ed2100e6827a00e182620014003a0058
:1023dc00010037000002eb00c322dd0037002000b3
:1023ec00a6ed210007b37a00e18f500004003a00fb
:1023fc00e6837a00850243000720a000870a780054
:10240c00c322dd00c6ed210000b37a000683e8008c
:10241c0000b37a000683e80002b37a0004003700a8
:10242c000402e800e80f5200e4ff3a000082eb00df
:10243c000400780000000600e70f50000b003e007f
:10244c004302dd00a5ed210065027a006102620005
:10245c00060032004300dd0005027800e40278003b
:10246c00000042000510a0000508780000000600de
:10247c00e70f50000f003e004302dd00a5ed2100e8
:10248c0065027a00610262000a0032004300dd003e
:10249c000083e80005027800e482420064037b00bc
:1024ac0086327800e4027800000042000510a1009a
:1024bc000508780000000600e80f500008003e00f8
:1024cc004302dd00a5ed210065027a00e00f520009
:1024dc00030032004300dd000582e8000132780081
:1024ec0000000600e70f500008003e004300dd002e
:1024fc00a5ed2100808242000002eb00840a7800e6
:10250c0005ee21000080420004087800000006005f
:10251c00b0f68000c1f68000000006003600f8001e
:10252c00809fbe00829fbe00849fbe00869fbe001f
:10253c00889fbe008a9fbe00b4f68000c5f680005e
:10254c0061024200e0824a00b4f68800c5f68800b9
:10255c000004eb00e9ed21004342dd00a5ed210074
:10256c0065027a0063026200e10f52001c003a001f
:10257c004343dd0064024300e5037a000683440014
:10258c00070be90065027a00e00f520014003a00d4
:10259c00c345dd0066824500050578006a027a00b5
:1025ac00040001006a827d006402620006003200b1
:1025bc000b0278008482e8000a03780066837a00b4
:1025cc0086347a00060037004342dd00a5ed210079
:1025dc0065037a00048242000610a000060a780007
:1025ec000804e800e80f5400dbff3a008460a900ff
:1025fc004f05be004f04be004f03be004f02be008d
:10260c004f01be004f00be003600f900004006002e
:10261c00853f200065088800b4042000140c880055
:10262c00050c8800e50b2000a50c8800053e200059
:10263c00950c880054f68800c43a200044f68800b3
:10264c00cc3eef0000000600054020006508880025
:10265c00b4042000140c8800050c8800350c2000f4
:10266c00a50c8800653e2000950c880054f6880067
:10267c00443b200044f688001400200064f68800d7
:10268c000000060011e1a90055168000040021008d
:10269c000482620002003200ddff070001003700f7
:1026ac00e9ff0700240c80000400a0000410a10026
:1026bc000420a000240c880062a0a80084e0a900db
:1026cc0094e0a8004382a80042a2a8001412800043
:1026dc000420a0000430a1000440a00014128800c3
:1026ec00300020004222b7004402a80041e2a800ba
:1026fc0011e1a8000000060094f68000a5f6800009
:10270c0000004200e0804a0094f68000a5f68000ac
:10271c00840f5000858f5800fbff3e000000060020
:10272c0000a0fe00849fbe0074f680000402e80046
:10273c0074f6880075032000850f520034003200b7
:10274c0007003e00e40f52001c003200fe0f520046
:10275c0022003200e10f52004f003a000f00370008
:10276c0075102000850f52003600320004003e0028
:10277c00f1825200850f520047003a001e003700cc
:10278c00f5102000850f5200280032009513200010
:10279c00850f520040003a0035003700c81ef80083
:1027ac008201f900b40c80000400a1000410a10007
:1027bc000420a100b40c880037003700b40c800052
:1027cc000400a0000410a1000420a000b40c880098
:1027dc00ca1ef8008201f9002f00370064f6800051
:1027ec00e00f52002c003a008660a9009660a80009
:1027fc00d07ea9002800370064f68000e00f52005c
:10280c0025003a009660a900d07ea800220037006f
:10281c0064f68000e10f52001f003a008660a900a8
:10282c009660a800d07ea9001b00370064f68000db
:10283c00e10f520018003a009660a900d07ea80063
:10284c001500370064f68000e00f520012003a00c9
:10285c00ce3eef0094f68000a5f6800061024200a7
:10286c00e0824a0094f68800a5f688000a0037003a
:10287c0064f68000e10f520007003a00ce3eef00f4
:10288c0094f68000a5f6800061024200e0824a00c6
:10289c0094f68800a5f6880084e0a9004f02be00db
:1028ac000080fe000040060000a0fe00849fbe00d9
:1028bc00869fbe00cb22ab001600320064f680006f
:1028cc00e00f520003003a0076f680007e035300be
:1028dc000200370076f680007603b1007b33b90036
:1028ec00f47f2000040343008002eb004022ab0085
:1028fc00feff3a005602fb00441288008502e800f5
:10290c00fb8f5200f9ff3a004022ab00feff3a0069
:10291c004822ef008660a9004f03be004f02be00a4
:10292c000080fe0000400600540c80000400a10052
:10293c000410a1000420a100540c8800281fa90039
:10294c000000060030f98800a24921008000eb004d
:10295c001000200093fe070010f98800000006000c
:10296c00889fbe008a1f780001057800540c8000f7
:10297c000400a1000410a1000420a100540c880044
:10298c008a61a8008621ef006104b8000801be002e
:10299c0000242400f1002000faf70700400c880006
:1029ac0013e1a900940880000440a0000450a10089
:1029bc00940888000801be0000482800e1012000ae
:1029cc00f0f707000002e90074088800281fa8002f
:1029dc00540c80000400a0000410a1000420a000ee
:1029ec00540c880013e1a80010f9800034f9800021
:1029fc00801f7800110009000485d8008000780041
:102a0c004f007800acfe070010f9800098fe07001c
:102a1c004f0578004f04be000000060020f9880026
:102a2c000002eb00900f12000c0032000002780044
:102a3c008002eb00d48f120008003200283fa8005f
:102a4c008500a9009500a8009000780024f9880062
:102a5c003400780024f98800c1ff0700000006004c
:102a6c003600f800809fbe00829fbe00849fbe008f
:102a7c00869fbe0084f2210014427800e24f52007f
:102a8c001b003a0024f980003400780024f98800f7
:102a9c00b400780024f98800e08f50001100320057
:102aac00e00f500002003200adff070010003700ad
:102abc009400780010f9800034f98000801f7800b1
:102acc00110009008480d800800078004f00780045
:102adc0079fe070010f9800065fe0700281fa8008a
:102aec0003003700287fef009500a90013e1a9002f
:102afc004f03be004f02be004f01be004f00be0090
:102b0c003600f90000400600889fbe008a9fbe0078
:102b1c008c9fbe005100070040062000d0fd07002e
:102b2c00d8fe07004006200086ff0700e08e280034
:102b3c00baff0700a08d2800f3fc0700140020004a
:102b4c00730d200003017800810020000000eb00d1
:102b5c0030fa070016002000a40020000500200019
:102b6c000401be00c1062000400620004bfa0700fd
:102b7c000000eb006df60700e2f7070048002000ac
:102b8c00e7f7070081057800110009000800d8005c
:102b9c008105fd008b05e900e1f7070001057800d0
:102bac00110009000800d8000105fd000a05e90024
:102bbc00e08f5500f2ff3200e00f5500f0ff3200bd
:102bcc0048062000c9062000bc0c2000cd0c2000bb
:102bdc0010002000c8fe07000003eb00a40020003a
:102bec00050020000401be000800be002bfa0700ff
:102bfc000b044400ea0f540003003c008b05ea0070
:102c0c00b8002000040037008c0f54000200340080
:102c1c008b05ea000d0478008a844400f28f54007e
:102c2c0003003c000a05ea003901200004003700cb
:102c3c008c8f5400020034000a05ea008d047800e1
:102c4c0016002000a4002000050020000401be0096
:102c5c000800be0011fa0700ddff3700163a8000ad
:102c6c00f60bb200640420007505200027742000c8
:102c7c00844b7800854b7800864b78002636800094
:102c8c00f70f2e0007036300007020000003730091
:102c9c00263688003036800006fe2f0006006000c5
:102cac005001b30030368800303680008703600056
:102cbc00002021008083730037368800473680005f
:102ccc00068363003601b30046368800163a80004e
:102cdc000660a00027742000844b7800854b780098
:102cec00864b7800c8a2a900c8c2a900c8e2a900f6
:102cfc00c902a900c922a800c982a8002d83a80076
:102d0c0000002700a620b700ac20b70044058000c7
:102d1c003400b3000420a100440588002405800081
:102d2c0004c0a10004d0a00004e0a1002405880088
:042d3c00000006008d
:020000040000fa
:102d400000080000d616000000000000281f000048
:102d5000020000000200000000000000221f00002e
:102d600006000000000000001a1f0000080000001c
:102d7000000000002a1f0000020000000200000006
:102d800004000000d61e0000440000000000000007
:102d90002c1f0000060000000000000000000000e2
:020000040000fa
:020000040001f9
:0457f800be2b0000c4
:020000040000fa
:020000040001f9
:0457fc007f3f0000eb
:00000001FF
