:020000040000fa
:080000000002040000000000f2
:020000040000fa
:100008009802000098020000980200009802000080
:100018009802000098020000980200009802000070
:10002800980200009802000098020000102d0000bd
:100038009802000098020000980200002c2e000090
:100048001830000098020000980200009802000092
:100058009802000098020000980200009802000030
:10006800980200009802000098020000ec2e0000a0
:100078009802000098020000980200009802000010
:100088009802000098020000980200009802000000
:1000980098020000980200009802000098020000f0
:1000a80098020000980200009802000098020000e0
:1000b80098020000980200009802000098020000d0
:1000c80098020000980200009802000098020000c0
:1000d80098020000980200009802000098020000b0
:1000e80098020000980200009802000098020000a0
:1000f8009802000098020000980200009802000090
:10010800980200009802000098020000980200007f
:10011800980200009802000098020000980200006f
:10012800980200009802000098020000980200005f
:10013800980200009802000098020000980200004f
:10014800980200009802000098020000980200003f
:10015800980200009802000098020000980200002f
:10016800980200009802000098020000980200001f
:10017800980200009802000098020000980200000f
:1001880098020000980200009802000098020000ff
:1001980098020000980200009802000098020000ef
:1001a80098020000980200009802000098020000df
:1001b80098020000980200009802000098020000cf
:1001c80098020000980200009802000098020000bf
:1001d80098020000980200009802000098020000af
:1001e800980200009802000098020000980200009f
:0801f8009802000098020000cb
:020000040000fa
:10020800980200009802000098020000980200007e
:10021800980200009802000098020000980200006e
:10022800980200009802000098020000102d0000bb
:100238009802000098020000980200002c2e00008e
:100248001830000098020000980200009802000090
:10025800980200009802000098020000980200002e
:10026800980200009802000098020000ec2e00009e
:10027800980200009802000098020000980200000e
:1002880098020000980200009802000098020000fe
:1002980098020000980200009802000098020000ee
:1002a80098020000980200009802000098020000de
:1002b80098020000980200009802000098020000ce
:1002c80098020000980200009802000098020000be
:1002d80098020000980200009802000098020000ae
:1002e800980200009802000098020000980200009e
:1002f800980200009802000098020000980200008e
:10030800980200009802000098020000980200007d
:10031800980200009802000098020000980200006d
:10032800980200009802000098020000980200005d
:10033800980200009802000098020000980200004d
:10034800980200009802000098020000980200003d
:10035800980200009802000098020000980200002d
:10036800980200009802000098020000980200001d
:10037800980200009802000098020000980200000d
:1003880098020000980200009802000098020000fd
:1003980098020000980200009802000098020000ed
:1003a80098020000980200009802000098020000dd
:1003b80098020000980200009802000098020000cd
:1003c80098020000980200009802000098020000bd
:1003d80098020000980200009802000098020000ad
:1003e800980200009802000098020000980200009d
:0803f8009802000098020000c9
:020000040000fa
:100400000f4022000e7f22000e0188000000000035
:1004100000012000200288000c000700603e23003d
:100420000100200011000700000020000000e00093
:1004300002003200000002000000000088320200ca
:10044000000000000040da000000fe004440a90067
:1004500000e820000000e00003003200000020005f
:10046000a00188004440a800000006009101880017
:10047000800078000000eb0015003700e2804000ab
:1004800032a0b4009101ba00e280400032a0b40072
:100490009102ba00e280400032a0b4000002eb00fa
:1004a000472bde00f507b200602ce10004003a00a3
:1004b0000059eb008301e900fdff3e000400370016
:1004c0006128e100010032000082eb000400070017
:1004d0001101ba000200e000e8ff3a000000060047
:1004e0003159ba008301e9000c0032002159ba00e9
:1004f0008301e900080032000400e00003003a0034
:10050000e280400032a0b400f5ff370011d9ba00f4
:100510008301e900faff3a008100e800e180400031
:1005200032a0b4000000060000000000000000003f
:100530000040da000000fe0003f0a200889fbe0029
:100540008a9fbe008c1f7800b8000700bf003300f0
:100550006450e1004f0032006420e100520032009c
:1005600003826c0007003b000905d0000306d000a1
:10057000820f54000c065d000200390002003200b8
:1005800089017800030678008582550004003d004b
:100590000003fd008103fd008502ea008b85420017
:1005a000840f720002003b0060001000e080180021
:1005b0006011b8000005eb007a28e1000a0039005c
:1005c00006007800c75ddd00f707b2008780750080
:1005d0002d003700828171000a01780061056000fa
:1005e0008180d1000080d3008502e900f9ff3b0043
:1005f000060440008784480002003b0060041400a9
:10060000e0841c000988a300070032008a81710081
:1006100082817100610164008904d1000884d300e3
:100620008b05e800170037000978a30013003a0093
:100630000b00e000130034008b05e90008044400bf
:1006400089844c000a4474000978a3000d003a0024
:100650000b00e000070034008b05e90008044400ab
:1006600089844c0001003a000b0020000978a300a7
:10067000f7ff32000001eb000200370082817100b9
:100680000a0178002e0007000cf0a70001f0a0007e
:10069000770037006420e10002003a00838f6c008d
:1006a000770033000801be000200be007000370072
:1006b0000001be00480007000470a70003f0a1007d
:1006c0006509b100160032000d0035006828e10010
:1006d00006003500f0ff2f00f1ff27000300e000c7
:1006e00013003b000100280000000500000040004e
:1006f000818048008502e900fcff3a0008003700cd
:10070000f88f420002003c008000eb000000050072
:100710008100d1000080d3008502e800fcff3a0090
:100720000300e00002003b0060001000e0801800c1
:10073000000006004f89de00820178009700370034
:1007400081002000618055000b003d000b0020005f
:1007500061fe2f000100e1001d0034008281710064
:10076000610164008904d1000884d3000000e8001e
:10077000faff3a007100200061006400030070007d
:10078000020060000900320061044400e0844c0073
:100790000988a500050032008b05e8006808e10023
:1007a00002003a008904d1000884d300f20f20002f
:1007b0000258e10005003d00c75ddd00f907b20009
:1007c0008980750008007800000006000bf82700fb
:1007d0008b00780000000500c70ade00f107b200b8
:1007e000f50fb20008003200e1cf420002003200f3
:1007f0000170a00024000500810f7000010032008c
:100800000408050044000500810f700002003a0052
:10081000140005008502e9000000400081c0480086
:10082000fcff3b000170a000240005000004be0096
:10083000e9ff07000003be000405be000200be0081
:10084000e5ff0700844f7500000006000200be00af
:100850006450e100050036006420e100020036002b
:100860000968a30001003a000800be000160a00072
:100870004f0678004f05be004f04be000000060082
:10088000f0ff2f00f1ff2700f9ff3700889fbe001f
:100890008a9fbe008c1f7800e4ff0700ebff330047
:1008a00003866c006450e100240032006420e10003
:1008b000270032006150e100220032006120e10097
:1008c000210032008b854200eb07b1000134b800f3
:1008d000003ab8000804420089844a00013ab8008e
:1008e0000030b8008880400009014a00040033004d
:1008f0000000400081804800020149008b05e900aa
:10090000c909dd00830170000100320013002000de
:10091000c814de004814dd004709de001200b200f2
:10092000c808de000884700085ff070001f0a10000
:100930000cf0a70001f0a000cdff37006120e1001e
:10094000cfff32000801be000200be00f7ff3700f3
:100950006150e100fcff3a00c9ff37006022b80097
:10096000060220000000d0008180d2000482d20064
:100970008582d2000000a0000202520083825a0049
:10098000030031000202420083824a000000a100fd
:100990000603e900f3ff3a0000000600881f780014
:1009a000030478000300e00007003d006000100031
:1009b000e080180060011900e081190002003b008e
:1009c00001f02d00030037000400070008f0a70025
:1009d00001f0a0004f04780000000600889fbe00d0
:1009e0008a9fbe00008270000402710004827100c0
:1009f000260032000004be000200be006011b800f4
:100a00006b092000950220000182cf000a00390006
:100a10000541b1000082cf00070039000541b10057
:100a20000982cf00040039000541b1000882cf00df
:100a3000010039000541b1000542520012003200a8
:100a40000a003b0082817100610164008100d100d5
:100a50000080d3008984d3000884d3008b05e8008c
:100a60000442e800f7ff3a0007003700080444009a
:100a700089844c0000004800818048008b05e90013
:100a80000442e900f9ff3a002dff07004f05be00c0
:100a90004f04be0000000600e6874700889fbe00a6
:100aa0008a9fbe008c9fbe008e1f780084fe2100ae
:100ab00045ff8000e08f52000b003a00e402420044
:100ac00045ff880095ff88002402980084ff880075
:100ad000a44290000504a00025429800e442900042
:100ae0000504a00065429800670440004244de000f
:100af0004244dd0080ff80000d00220009402200fa
:100b00008d8454002400200080027800811f78002a
:100b1000110009008404d8008002fd00cf00780095
:100b2000f5b79f000882e8000402420084bf9f00de
:100b30000003eb00640744003c4022000d06560011
:100b400008064600010037000b00780020429000a4
:100b500061026200020032000a00370015087800c6
:100b6000900278002542900061026200fbff320093
:100b700008024000848f520002003900e00f540048
:100b80004e003d0090057800808f5500eeff3e003e
:100b90008d8f55000300390084fe2100848f55009d
:100ba000e9ff390094ff8000840f500054003a00a0
:100bb00084fe2100848f550051003a000603e800ae
:100bc000e10f5300e0ff36007fb39700860f54001b
:100bd00002003600890f5400120039006143b8004a
:100be000614ab900b0ff2f0001002000040250004c
:100bf00085825800840f5300858f5b000b003d00f9
:100c000000027800811f7800110009000986d800d1
:100c10000002fd00cf00780009a2b90004057800a9
:100c2000030037000fbd970001003700080578006a
:100c30000a007800b3000700e10f400005003a0009
:100c40000e0578000e007800ae000700e10f4000ae
:100c50002b00320094ff8000000a780094ff80008f
:100c600064034200a4429000860f5000020032004c
:100c70000504a000010037000504a10025429800ea
:100c8000640555000a0540000a0878009aff8800ac
:100c900084fe2100040d780095ff8000254290001d
:100ca0000404a000a4429800204290000404a10083
:100cb000244098000003eb00a3ff370084ff880066
:100cc000848f5200070036001403be00a6ff880080
:100cd000b7ff8800100a78008042eb0084ff800094
:100ce0002542980087ff8000070878002042900086
:100cf0000404a00024409800640040000100370074
:100d00000000eb004f0778004f06be004f05be0005
:100d10004f04be006f00b1000000060064005000e8
:100d200084ff8000840f50000100310080ff8800a4
:100d3000204290000404a100244098000000060016
:100d4000889fbe008a9fbe000004be00e08f540052
:100d500005003a00e00f540032003200080078002d
:100d6000eeff070030003700e00f540004003a00a7
:100d70000900780048ff0700800478002a00370047
:100d8000640254009405780068fa970061026200da
:100d90000200320008007800e0ff07000900780038
:100da0003dff070080047800e08f54001e003200f1
:100db000888f54001b00320069bd9700090555005b
:100dc00042d5de0088855500c2ddde000a017800cc
:100dd0008b0f5500010036000b0178004211dd0039
:100de000880078000900780013000700888f5400fd
:100df0000d0031004255dd000a854400880f550082
:100e0000090036000804550042c4de004244dd00fb
:100e100008844400a4ff8000b5ff8000048cbe005d
:100e20000100370088047800090078004f05be00f3
:100e30004f04be00000006000002780002003700e8
:100e4000315a78000201e900e00f5100fcff3a003e
:100e50000000060000027800808f5000080031007a
:100e600082824000808f520005003600020240005e
:100e7000456278000201e900fdff3a00000006002b
:100e8000e00f510003003200315a78000201e900fe
:100e9000fbff37000000060001002000d0ff8800a3
:100ea000e1ff880015c0b30084ff2100054a7800e7
:100eb0000000060084ff21008042eb0094cf120066
:100ec00002003a0010002000f3ff0700d2e62400e1
:100ed000631c2400d0ff8000e1ff80002b0007008e
:100ee00094032300050020000002420081824a0092
:100ef000d4ff8800e5ff88000500780000f0a1001d
:100f000000000600889fbe0080047800f0ff80008b
:100f1000e00f500004003a000e0007000084eb00d0
:100f2000e00f500008003500f8ff8000e08f54000b
:100f3000050032000900440006000700e00f5000e1
:100f400001003d000084eb00080078004f04be0063
:100f500000000600e00f500004003a0004002200e8
:100f6000f4ff880000027800060037000082eb00e2
:100f700005402200850f500002003e00f0ff88006f
:100f80000002eb000400780000000600020ab9002d
:100f9000001bb9000200b80081004200810043003c
:040fa0000000060047
:020000040000fa
:100fa400e00000000fff000087ff0000e0010000e8
:100fb400ffff0000ffff000087ff0000ffff0000ad
:100fc40087ff0000ffff0000ffff0000ff8000001c
:100fd400e000000001ff000087ff0000c0000000e7
:100fe400ffff0000ffff000087ff0000ffff00007d
:100ff40087ff0000ffff0000ffff0000ff800000ec
:10100400e000000000ff000087ff00000000000077
:101014007fff0000ffff000087ff0000ffff0000cc
:1010240087ff0000ffff0000ffff0000ff800000bb
:10103400e0000000007f000087ff000003f00000d4
:101044003fff0000ffff000087ff0000ffff0000dc
:1010540087ff0000ffff0000ffff0000ff8000008b
:10106400e1ff0000f03f000087fe00000ff80000e1
:101074001fff0000ffff000087ff0000ffff0000cc
:1010840087ff0000ffff0000ffff0000ff8000005b
:10109400e1ff0000f83f000087fc00001ffc000097
:1010a4001fff0000ffff0000ffff0000ffff000024
:1010b400ffff0000ffff0000ffff0000ff800000b3
:1010c400e1ff0000fc3f000087fc00003ffe000041
:1010d4000fff0000ffff0000ffff0000ffff000004
:1010e400ffff0000ffff0000ffff0000ff80000083
:1010f400e1ff0000fc1f000087f800007fff0000f4
:101104000fff0000ffff0000ffff0000ffff0000d3
:10111400ffff0000ffff0000ffff0000ff80000052
:10112400e1ff0000fe1f000087f800007fff0000c1
:1011340007ff0000ffff0000ffff0000ffff0000ab
:10114400ffff0000ffff0000ffff0000ff80000022
:10115400e1ff0000fe1f000087f00000ffff000019
:1011640087ff0000ffff0000ffff0000ffff0000fb
:10117400ffff0000ffff0000ffff0000ff800000f2
:10118400e1ff0000fe1f000087f00000ffff0000e9
:101194009fff0000ffff0000fffe000003ff0000b0
:1011a400ffff000081ff0000ffe00000ff8000005f
:1011b400e1ff0000fe1f000087f00000ffff0000b9
:1011c400ff870000ffc3000087f8000000ff000055
:1011d40087fe0000007f0000e18000003f800000e7
:1011e400e1ff0000fe1f000087f00000ffff000089
:1011f400ff870000ffc3000087f00000007f0000ad
:1012040087fc0000003f0000e10000001f80000098
:10121400e1ff0000fe1f000087e10000ffff000067
:10122400ffc30000ff87000087e00000003f0000cc
:1012340087f80000001f0000e10000000f8000009c
:10124400e1ff0000fc1f000087e10000ffff000039
:10125400ffc30000ff87000087e00000f83f0000a4
:1012640087f000003c0f0000e03e00000f8000000b
:10127400e1ff0000fc3f000087e10000ffff0000e9
:10128400ffc30000ff87000087c10000fc3f00008f
:1012940087f000007e0f0000e07f00000780000060
:1012a400e1ff0000f83f000087e10000ffff0000bd
:1012b400ffe10000ff0f000087c30000fc1f0000d7
:1012c40087e00000ff070000e0ff00000780000047
:1012d400e1ff0000e07f000087e10000ffff000065
:1012e400ffe10000ff0f000087c30000fe1f0000a5
:1012f40087e10000ff870000e0ff00008780000016
:10130400e0000000007f000087e10000ffff000014
:10131400ffe10000ff0f000087c30000fe7f000014
:1013240087e10000ff870000e1ff000087800000e4
:10133400e000000000ff000087e10000ffff000064
:10134400ffe00000fe0f000087c30000ffff000065
:1013540087c10000ff830000e1ff000087800000d8
:10136400e000000003ff000087e10000ffff000031
:10137400fff00000fe1f000087c10000ffff000017
:1013840087c30000ffc30000e1ff00008780000066
:10139400e00000000fff000087e10000ffff0000f5
:1013a400fff00000fe1f000087e00000ffff0000c8
:1013b40087c30000ffc30000e1ff00008780000036
:1013c400e1ff0000ffff000087e10000ffff0000d5
:1013d400fff00000fe1f000087e000003fff000058
:1013e40087c30000ffc30000e1ff00008780000006
:1013f400e1ff0000ffff000087e10000ffff0000a5
:10140400fff800007c3f000087f0000007ff0000a9
:1014140087c30000ffc30000e1ff000087800000d5
:10142400e1ff0000ffff000087e10000ffff000074
:10143400fff800007c3f000087f8000000ff000078
:1014440087c30000ffc30000e1ff000087800000a5
:10145400e1ff0000ffff000087f00000ffff000035
:10146400cff800007c3f000087fe0000003f000032
:1014740087c30000ffc30000e1ff00008780000075
:10148400e1ff0000ffff000087f00000ffff000005
:10149400c3f80000383f000087ff0000801f0000f1
:1014a40087c30000ffc30000e1ff00008780000045
:1014b400e1ff0000ffff000087f00000ffff0000d5
:1014c40083fc0000387f000087ff0000f81f000045
:1014d40087c30000ffc30000e1ff00008780000015
:1014e400e1ff0000ffff000087f00000ffff0000a5
:1014f40087fc0000387f000087ff0000fe0f00001b
:1015040087c30000ffc30000e1ff000087800000e4
:10151400e1ff0000ffff000087f800007fff0000ec
:1015240087fc0000107f000087e70000ff0f000029
:1015340087c10000ff830000e1ff000087800000f6
:10154400e1ff0000ffff000087f800007fff0000bc
:1015540007fe000010ff000087870000ff0f000057
:1015640087e10000ff870000e1ff000087800000a2
:10157400e1ff0000ffff000087fc00003fff0000c8
:101584000ffe000010ff000087830000ff0f000023
:1015940087e10000ff870000e1ff00008780000072
:1015a400e1ff0000ffff000087fc00001ffe0000b9
:1015b4000ffe000010ff000087c30000ff0f0000b3
:1015c40087e00000ff070000e1ff000087800000c3
:1015d400e1ff0000ffff000087fe00000ffc000099
:1015e4001fff000001ff000087c10000fe0f000084
:1015f40087f000007e0f0000e1ff000087800000fc
:10160400e1ff0000ffff000087fe000003f0000080
:101614003fff000001ff000087c00000fc1f000026
:1016240087f000003c0f0000e1ff0000878000000d
:10163400e1ff0000ffff000087ff00000000000042
:101644003fff000001ff000087e00000001f0000d2
:1016540087f80000001f0000e1ff00008780000001
:10166400e1ff0000ffff000087ff00008000000092
:10167400ffff000001ff000087f00000003f0000b2
:1016840087fc0000003f0000e1ff000087800000ad
:10169400e1ff0000ffff000087ff0000e001000001
:1016a400ffff000083ff000087f8000000ff000038
:1016b40087fe0000007f0000e1ff0000878000003b
:1016c400ffff0000ffff0000ffff0000f80700001d
:1016d400ffff0000ffff0000fffe000003ff00000b
:1016e400ffff000081ff0000ffff0000ff800000fb
:1016f400ffff0000ffff0000ffff0000ffff0000ee
:10170400ffff0000ffff0000ffff0000ffff0000dd
:10171400ffff0000ffff0000ffff0000ff8000004c
:10172400ffff0000ffff0000ffff0000ffff0000bd
:10173400ffff0000ffff0000ffff0000ffff0000ad
:10174400ffff0000ffff0000ffff0000ff8000001c
:10175400e0000000000000000000000000000000a5
:101764000000000000000000000000000000000075
:101774000000000000000000000000001f800000c6
:1017840080000000000000000000000000000000d5
:101794000000000000000000000000000000000045
:1017a40000000000000000000000000003800000b2
:1017b4000000000000000000000000000000000025
:1017c4000000000000000000000000000000000015
:1017d4000000000000000000000000000180000084
:1017e40000000000000000000000000000000000f5
:1017f40000000000000000000000000000000000e5
:101804000000000000000000000000000180000053
:1018140000000000000000000000000000000000c4
:1018240000000000000000000000000000000000b4
:101834000000000000000000000000000180000023
:101844000000000000000000000000000000000094
:101854000000000000000000000000000000000084
:1018640000000000000000000000000001800000f3
:101874000000000000000000000000000000000064
:101884000000000000000000000000000000000054
:1018940000000000000000000000000001800000c3
:1018a40080000000000000000000000000000000b4
:1018b4000000000000000000000000000000000024
:1018c4000000000000000000000000000380000091
:1018d400ffff0000ffff0000ffff0000ffff00000c
:1018e400ffff0000ffff0000ffff0000ffff0000fc
:1018f400ffff0000ffff0000ffff0000ff8000006b
:10190400ffff0000ffff0000ffff0000ffff0000db
:10191400ffff0000ffff0000ffff0000ffff0000cb
:10192400ffff0000ffff0000ffff0000ff8000003a
:10193400ffff0000ffff0000ffff0000ffff0000ab
:10194400ffff0000ffff0000ffff0000ffff00009b
:10195400ffff0000ffff0000ffff0000ff8000000a
:10196400ffff0000ffff0000ffff0000ffff00007b
:10197400ffff0000ffff0000ffff0000ffff00006b
:10198400ffff0000ffff0000ffff0000ff800000da
:10199400ffff0000ffff0000ffff0000ffff00004b
:1019a400ffff0000ffff0000ffff0000ffff00003b
:1019b400ffff0000ffff0000ffff0000ff800000aa
:1019c400ffff0000ffff0000ffff0000ffff00001b
:1019d400ffff0000ffff0000ffff0000ffff00000b
:1019e400ffff0000ffff0000ffff0000ff8000007a
:1019f400fff00000000000000000000000000000f4
:101a040000000000000000000000000000000000d2
:101a1400000000000000000001ff0000ff80000043
:101a2400ffe00000000000000000000000000000d3
:101a340000000000000000000000000000000000a2
:101a4400000000000000000000ff0000ff80000014
:101a5400ffe00000000000000000000000000000a3
:101a64000000000000000000000000000000000072
:101a7400000000000000000000ff0000ff800000e4
:101a8400ffe0000000000000000000000000000073
:101a94000000000000000000000000000000000042
:101aa400000000000000000000ff0000ff800000b4
:101ab400fff0000000000000000000000000000033
:101ac4000000000000000000000000000000000012
:101ad400000000000000000001ff0000ff80000083
:101ae400ffff0000ffff0000ffff0000ffff0000fa
:101af400ffff0000ffff0000ffff0000ffff0000ea
:101b0400ffff0000ffff0000ffff0000ff80000058
:101b1400ffff0000ffff0000ffff0000ffff0000c9
:101b2400ffff0000ffff0000ffff0000ffff0000b9
:101b3400ffff0000ffff0000ffff0000ff80000028
:101b4400ffff0000ffff0000ffff0000ffff000099
:101b5400ffff0000ffff0000ffff0000ffff000089
:101b6400ffff0000ffff0000ffff0000ff800000f8
:101b7400ffff0000ffff0000ffff0000ffff000069
:101b8400ffff0000ffff0000ffff0000ffff000059
:101b9400ffff0000ffff0000ffff0000ff800000c8
:101ba400ffff0000ffff0000ffff0000ffff000039
:101bb400ffff0000ffff0000ffff0000ffff000029
:101bc400ffff0000ffff0000ffff0000ff80000098
:101bd400ffff0000ffff0000ffff0000ffff000009
:101be400ffff0000ffff0000ffff0000ffff0000f9
:101bf400ffff0000ffff0000ffff0000ff80000068
:101c0400ffff0000ffff0000ffff0000ffff0000d8
:101c1400ffff0000ffff0000ffff0000ffff0000c8
:101c2400ffff0000ffff0000ffff0000ff80000037
:101c3400ffff0000fff800000000000000000000ab
:101c44000000000000000000000000000000000090
:101c540000000000007f0000ffff0000ff80000084
:101c6400ffff0000fff8000000000000000000007b
:101c74000000000000000000000000000000000060
:101c840000000000007f0000ffff0000ff80000054
:101c9400ffff0000fff8000000000000000000004b
:101ca4000000000000000000000000000000000030
:101cb40000000000007f0000ffff0000ff80000024
:101cc400ffff0000ffff0000ffff0000ffff000018
:101cd400ffff0000ffff0000ffff0000ffff000008
:101ce400ffff0000ffff0000ffff0000ff80000077
:101cf400ffff0000ffff0000ffff0000ffff0000e8
:101d0400ffff0000ffff0000ffff0000ffff0000d7
:101d1400ffff0000ffff0000ffff0000ff80000046
:101d2400ffff0000ffff0000ffff0000ffff0000b7
:101d3400ffff0000ffff0000ffff0000ffff0000a7
:101d4400ffff0000ffff0000ffff0000ff80000016
:101d5400ffff0000ffff0000ffff0000ffff000087
:101d6400ffff0000ffff0000ffff0000ffff000077
:101d7400ffff0000ffff0000ffff0000ff800000e6
:101d8400ffff0000ffff0000ffff0000ffff000057
:101d9400ffff0000ffff0000ffff0000ffff000047
:101da400ffff0000ffff0000ffff0000ff800000b6
:101db400ffff0000ffff0000ffff0000ffff000027
:101dc400ffff0000ffff0000ffff0000ffff000017
:101dd400ffff0000ffff0000ffff0000ff80000086
:101de400ffff0000ffff0000ffff0000ffff0000f7
:101df400ffff0000ffff0000ffff0000ffff0000e7
:101e0400ffff0000ffff0000ffff0000ff80000055
:101e1400ffff0000ffff0000ffff0000ffff0000c6
:101e2400ffff0000ffff0000ffff0000ffff0000b6
:101e3400ffff0000ffff0000ffff0000ff80000025
:101e4400ffff0000ffff0000ffff0000ff80000015
:101e5400000000000000000000000000000000007e
:101e64000fff0000ffff0000ffff0000ff800000e5
:101e7400ffff0000ffff0000ffff0000ffff000066
:101e8400ffff0000ffff0000ffff0000ffff000056
:101e9400ffff0000ffff0000ffff0000ff800000c5
:101ea400000000000000000000000000000000002e
:101eb40008080000080800000800000008000000ee
:101ec40014140000140000000000000000000000d2
:101ed400141400003e1400003e140000140000001e
:101ee400081e0000281c00000a3c00000800000036
:101ef4003032000004080000102600000600000034
:101f040018240000281000002a2400001a000000f1
:101f1400180800001000000000000000000000008d
:101f24000408000010100000100800000400000065
:101f34001008000004040000040800001000000061
:101f4400000800002a1c00002a080000000000000d
:101f540000080000083e000008080000000000001f
:101f6400000000000000000018080000100000003d
:101f740000000000003c0000000000000000000021
:101f8400000000000000000000180000180000001d
:101f940000020000040800001020000000000000ff
:101fa4001c220000262a0000322200001c0000002f
:101fb4000818000008080000080800003e0000009f
:101fc4001c22000004080000102000003e00000055
:101fd4003c020000023c0000020200003c00000041
:101fe400040c0000142400003e040000040000005f
:101ff4003e200000203c0000020200003c000000e3
:102004000c100000203c0000222200001c000000f4
:102014003e02000004080000101000001000000040
:102024001c220000221c0000222200001c000000d0
:102034001c220000221c0000020200001c00000000
:10204400001800001800000018180000000000002c
:10205400001800001800000018080000100000001c
:102064000408000010200000100800000400000014
:10207400000000003e0000003e00000000000000e0
:102084001008000004020000040800001000000012
:102094001c220000020400000800000008000000e8
:1020a4001c220000021a00002a2a00001c00000062
:1020b4001c220000223e0000222200002200000018
:1020c4003c220000223c0000222200003c000000d0
:1020d4001e20000020200000202000001e00000020
:1020e4003c22000022220000222200003c000000ca
:1020f4003e200000203e0000202000003e000000a2
:102104003e200000203e00002020000020000000af
:102114001e200000202c0000222200001c000000d1
:1021240022220000223e00002222000022000000a1
:102134001c08000008080000080800001c0000003b
:102144001e02000002020000022400001800000029
:10215400222400002830000028240000220000006f
:102164002020000020200000202000003e0000006d
:10217400223600002a220000222200002200000051
:1021840022220000322a0000262200002200000041
:102194001c22000022220000222200001c00000059
:1021a4003c220000223c000020200000200000000f
:1021b4001c220000222200002a2600001e0000002b
:1021c4003c220000223c00002824000022000000e1
:1021d4001e200000201c0000020200003c00000041
:1021e4003e0800000808000008080000080000007d
:1021f4002222000022220000222200001c000000f3
:102204002222000022220000221400000800000004
:1022140022220000222a00002a36000022000000a8
:1022240022220000140800001422000022000000f2
:102234002222000022140000080800000800000008
:102244003e04000008100000202000003e000000b2
:1022540018100000101000001010000018000000fa
:10226400002000001008000004020000000000002c
:102274000602000002020000020200000600000044
:10228400081400002200000000000000000000000c
:102294000000000000000000000000003e000000fc
:1022a400100800000400000000000000000000000e
:1022b400000000001c0200001e2200001e0000009e
:1022c40020200000202c0000322200003c000000ee
:1022d400000000001c200000202200001c00000060
:1022e40002020000021a0000262200001e00000064
:1022f400000000001c2200003e2000001c00000022
:102304000c12000010380000101000001000000033
:10231400000000001e220000221e0000021c00001b
:10232400202000002c3200002222000022000000a5
:102334000008000000080000080800000800000071
:10234400040000000c040000042400001800000035
:102354002020000024280000302800002400000071
:102364001808000008080000080800001c0000000d
:1023740000000000342a00002a220000220000008d
:10238400000000002c320000222200002200000085
:10239400000000001c220000222200001c0000009b
:1023a400000000003c220000223c0000202000002d
:1023b400000000001a240000242c00001406000071
:1023c400000000002c32000020200000200000004b
:1023d400000000001c2000001c0200003c00000063
:1023e4001010000038100000101200000c00000053
:1023f4000000000022220000222600001a00000033
:102404000000000022220000221400000800000046
:1024140000000000222200002a2a0000140000000c
:102424000000000022140000081400002200000034
:102434000000000022220000221e0000021c0000f6
:10244400000000003e040000081000003e000000f0
:102454000810000010200000101000000800000008
:102464000808000008080000080800000800000030
:102474001008000008040000080800001000000014
:1024840000000000102a000004000000000000000a
:102494003e22000022220000222200003e00000012
:1024a4002020000020200000202000002020000028
:1024b4000101000001010000010100000101000010
:1024c4003f200000202000002020000020200000e9
:1024d4003f010000010100000101000001010000b2
:1024e400202000002020000020200000203f0000c9
:1024f400010100000101000001010000013f000092
:10250400000c00001e3f00003f1e00000c000000f5
:102514000e1b00003e3c00003e3f00001e00000079
:102524001c3600001f0f00001f3e00001e000000ac
:10253400213b00002f3f00001e0c00000c00000097
:102544000c0c00001e3f00002f3b00002100000087
:102554000000000018250000020000000000000038
:102564000402000004080000080400000000000049
:1025740000000000021700002f0700000200000006
:102584002a2a00002a2a00002a2a00002a2a0000f7
:102594002a2a00002a2a00002a2a00000d0000002e
:1025a4002a200000534e0000414b0000452000004b
:1025b400474100004d450000202a00000d000000a6
:1025c4002a2a00002a2a00002a2a00002a2a0000b7
:1025d4002a2a00002a2a00002a2a00000d0d0000e1
:1025e4000045000061740000696e0000672000006f
:1025f400612000006d6f000075730000652000000d
:10260400696e00006372000065610000736500007c
:10261400207300006e6100006b650000206c0000f8
:10262400656e000067740000682e00000d00000055
:10263400536e0000616b00006520000062750000ad
:10264400726e00002031000030250000206f000071
:10265400662000006973000020630000616c0000c4
:102664006172000069650000732f0000736500004b
:10267400632e00000d000000446900006520000086
:102684006f66000020730000746100007276000021
:1026940061740000696f00006e200000776800001c
:1026a400656e000020630000616c00006f72000022
:1026b40069650000733d0000302e00000d0000002d
:1026c40045610000746900006e670000206100002d
:1026d400206d00006f750000736500002067000026
:1026e400697600006520000032300000206300009d
:1026f400616c00006f72000069650000732e0000b9
:102704000d000000446900006520000077680000a7
:10271400656e0000206800006974000074690000a0
:102724006e67000020770000616c00006c2e0000d2
:102734000d00000044690000652000007768000077
:10274400656e000020620000697400007469000076
:102754006e670000206800006973000020740000a8
:10276400616900006c2e00000d000000736300001e
:102774006f720000653d0000636100006c6f000033
:1027840072690000657300002a6c0000696600002d
:1027940065730000706100006e2f0000380d0000aa
:1027a4000d00000055730000652000004152000038
:1027b400524f000057530000207400006f200000a7
:1027c400636f00006e740000726f00006c200000e4
:1027d400736e0000616b0000652e00000d000000a8
:1027e4003ff800001ff00000dff70000efef0000eb
:1027f400f7df0000fbbf0000bbbb00009bb3000081
:10280400b7db0000f7df0000f7df0000efef0000a8
:10281400dff700003ff800007ffd0000bffa000072
:10282400bffa00007ffd00003ff80000dff7000062
:10283400efef0000f7df0000f7df0000b7db000078
:102844009bb30000bbbb0000fbbf0000f7df000030
:10285400efef0000dff700001ff000003ff800007a
:10286400ffff0000ffff0000fff800001ff700005b
:10287400efef0000f79e00007a3c0000f93f0000f3
:10288400fa3f0000f93f00007a3c0000f79e000088
:10289400efef00001ff70000fff80000ffff00004b
:1028a400ffff0000ffff00001fff0000eff8000023
:1028b400f7f7000079ef00003c5e0000fc9f000089
:1028c400fc5f0000fc9f00003c5e000079ef00000c
:1028d400f7f70000eff800001fff0000ffff000003
:1028e400ffff0000ffff0000ffff0000effe0000fd
:1028f4000fce000057a40000a70200005201000000
:10290400a5a6000057cc00000ffe0000effe00005b
:10291400ffff0000ffff0000ffff0000ffff0000bb
:102924001ff8000047e50000f3cf000051950000b8
:10293400fdbf000054550000fe7f00005455000008
:10294400fe7f000054550000fe7f000055950000f6
:10295400f99f000053c50000e7e700001ff80000de
:102964001294000052940000f2930000329400008c
:1029740092940000729400000000000064000000c3
:10298400640000004000000064000000000000003b
:1029940000000000707200006573000073200000e6
:1029a400535400004152000054200000746f000092
:1029b4002062000065670000696e000000000000ee
:1029c40008140000cc94000058200000746f00002c
:1029d4002071000075690000742000006761000028
:1029e4006d6500002e00000008150000e69400004c
:1029f400676100006d650000206f000076650000cf
:102a040072000000060d0000fa9400006d610000e1
:102a140078200000736300006f720000653a0000c4
:102a24002000000006100000089500006469000002
:102a340065640000206f00006620000073740000cd
:102a44006172000076610000746900006f6e00001e
:102a540000000000060e00001895000064690000e4
:102a640065640000206f00006620000077610000ac
:102a74006c6c0000206300006f6c00006c69000047
:102a8400736900006f6e000000000000060e000075
:102a9400309500006469000065640000206f000048
:102aa4006620000074610000696c00002062000070
:102ab40069740000652e000000000000060e00008e
:102ac4004c950000636100006c6f000072690000a7
:102ad400657300003a2000000000000000000000c0
:102ae40064950000736300006f720000653a000093
:102af400200000001200000074950000434f000005
:102b04004e47000052410000545500004c41000063
:102b1400544900004f4e000021200000594f00008e
:102b240055200000474f00005420000032300000c0
:102b34003438000020530000554d000021000000ef
:102b44002741000027200000746f0000206300006c
:102b54006f6e0000746900006e750000652c000043
:102b64002027000042270000206e00006577000047
:102b740020670000616d0000652e00000020000049
:102b8400323000003438000000730000636f00002e
:102b9400726500003a2000000062000065730000c6
:102ba40074200000736300006f720000653a000037
:102bb40020000000676100006d650000206f0000c8
:102bc400766500007200000053540000415200007a
:102bd40054200000666f0000722000006e65000043
:102be40077200000676100006d6500002c20000064
:102bf40058200000746f0000206c00006561000024
:102c0400766500002e000000436f0000707900001c
:102c14007269000067680000742000003230000010
:102c2400313400002c2000004a6100006371000070
:102c340075650000732000004465000073630000a4
:102c4400686500006e6500007300000053450000d5
:102c54004c4500004354000020470000414d000053
:102c640045000000736e0000616b00006500000009
:102c7400323000003438000000670000616d00004d
:102c840065200000330000006175000074720000cc
:102c9400652000006a6500007578000000000000ef
:020000040000fa
:102ca400740d2000848f500022003c00840f5000db
:102cb40020003c00c382de000080ea006700600060
:102cc400140020000020dd00840f51000c003200ad
:102cd400e20f510011003200e00f510015003a00dc
:102ce400048020007b0bb9008680420081024200f0
:102cf40000c0ea0064c27800844a60000d00370016
:102d0400048020007b0bb9008680420081024200cf
:102d140064c27800844a70000600370004802000f2
:102d24007b0bb900868042008102420064c27800b5
:102d3400844a680000000600ea874700889fbe00b6
:102d44008a9fbe008c9fbe008e1f7800000478000e
:102d54000105780082057800f3b79f000406780027
:102d64000c0178008a00780008007800ccff070086
:102d74007fb29700840f550012003a008b0f540065
:102d840003003d00190020000884440004003700bb
:102d94008084eb008b0f5400fbff3a004b0037009c
:102da4000c0178008a00780008007800bcff070056
:102db4000904440009025400848f5500f8ff3a00c6
:102dc400420037008b0f540010003a008084eb005f
:102dd400ffb29700850f550001003d001900200047
:102de4000a8544000c0178008a0078000800780005
:102df400abff07000905450009025500ffb2970023
:102e0400848f5200f7ff3a003000370008875500de
:102e14000ef0a7000e07ea00ffb297000a825200e4
:102e240004f0a7000402ea0084bf9f000082eb00c4
:102e3400e4b79f008b0f540002003d0015002000f2
:102e4400e5b79f000082eb00d4b79f00ffb2970064
:102e5400850f550002003d0014002000d4b79f00e8
:102e64008fba9700850457008506ea0001003700f1
:102e74000b047800098244008d0f520005003400d1
:102e84000fba970084845400efb2970005044400fd
:102e940005003700840f5700030034008e8444007b
:102ea4005fb29700040545000c0178008a007800a1
:102eb400080078007aff07008b0f5400edff3a00fa
:102ec400ffb29700850f5500e9ff3a004f077800dd
:102ed4004f06be004f05be004f04be00af00b10058
:102ee40000000600889fbe008a9fbe008c1f7800e9
:102ef4008004780001047800020578000306780055
:102f040084057800090178008800780009007800b9
:102f140089ff07000b0278008c0178000a01780011
:102f2400880078000a00780083ff07000b0278000d
:102f3400880178000a017800880078000900780088
:102f44007dff07000b0278008c0178000a017800ed
:102f54008c0078000900780077ff07004f0678009e
:102f64004f05be004f04be00000006006f03b00012
:102f7400889fbe008a9fbe008c9fbe008e1f780073
:102f840090af9f00e1af9f000405be0006077800e4
:102f9400029ab900040242000210b800a0af9f00d8
:102fa400b1af9f0081004200b1af9f002fa99700ed
:102fb400bfa997000202550083825d000aabb900e5
:102fc40004d8b900060340000a22b8008502430071
:102fd4000203be00e00f5100e08f590002003d00e3
:102fe40063034100e0834900ce39dd004233de0053
:102ff40006837100c2bbde000404430085844b00d9
:10300400b8b79f00c9b79f000adab90004024200aa
:103014000a50b800d0a79f00e1a79f00810042009a
:10302400e1a79f005fa19700efa197000201410073
:103034008381490092a79f00a3a79f002faa97000e
:10304400bfaa97000402420085824a00d4b79f00b9
:10305400e5b79f00e4ff2f003fab970004b2b9002f
:10306400afab970007025200e5ff2f00afac97000b
:10307400054cb800c8af9f00d9af9f008904420037
:10308400d9af9f00f2a79f0083af9f0014002000d8
:1030940005002000f4b79f0085bf9f006066b8005c
:1030a4009faa97008502e900c5a79f001fab970060
:1030b4000603e800b6a79f00fa9f9f008ba79f0016
:1030c400500037006fa897000a005000f0af9f002f
:1030d4007fb49700cfa097008880400091b79f00ed
:1030e4000e017800800078001fb09700ecfe070006
:1030f4006fa9970082044500bfa19700088451007e
:103104000e0178000800be00e5fe07000e017800fd
:10311400890078001fb09700e1fe07000e017800d7
:10312400ffa8970008007800ddfe07003fb2970073
:10313400cfb29700e00f5200e08f5a000d003d001f
:103144005fa49700efa497000402440085824c001a
:103154007fa097008fa897000c0340008d83480040
:103164000601420087814a00b2b79f00c3b79f009f
:103174001a00370061055500e0855d003fb29700f5
:10318400cfb297005fa49700efa497000403440014
:1031940085834c00cfac970009dab9005fa997008a
:1031a4000a90b90004004000cfa997000352b80068
:1031b400850240000602420087824a007fa49700ed
:1031c4008fac97000c0344008d834c000600420032
:1031d40087804a00b0b79f00c1b79f007fa19700c6
:1031e4008fa997000c0641008d8649007fb2970095
:1031f4008fba970061024200e0824a00f4b79f0050
:1032040085bf9f007fb397008fbb97006100530079
:10321400e0805b00dfb3970007dab9006fb4970072
:103224000ac3b90004034300dfb497000952b8008d
:10323400850243008c0f52008d8f5a00a1ff3c0081
:103244000a01be009ab79f00abb79f00f0af9f0082
:1032540081b79f007f9d97008fa597000006be0051
:10326400e00f5100e08f5900b80035000a00be009d
:103274002ff507000004be001fb39700afb39700fb
:1032840061035300e0835b00f6b79f0087bf9f0094
:103294000c00be0026f507000200200003f0230006
:1032a400a5f407000001be0077f507000801be0081
:1032b40075f507000001be000800be0072f50700a6
:1032c4000004be008fbb97007fb0970000bab9001e
:1032d40004024200ffb09700d1b79f0001017800bb
:1032e4000210b80081004200afa99700038bb90017
:1032f4003fa997000092b900060242002fad970043
:103304000a00b8008100420009f507000001be0070
:103314000800be0088f407000004be00bfa997009f
:103324005fa29700049bb9006fa09700afa8970015
:103334000182b900060242005fa197000250b80062
:1033440081004200faf407000001be000800be003c
:1033540078f40700d5f407000005be001fb69700f7
:10336400afb697004faa9700dfaa97006002120039
:10337400e0821a0094b79f00a5b79f00dfaa9700c8
:103384007fb4970008abb9008fbc97004fa8970093
:1033940000cab90006024200cfa997005fb19700a6
:1033a4000219b800b2b79f00c3b79f00830142005f
:1033b400c3b79f003fb29700cfb29700d4b79f0026
:1033c400e5b79f009fa29700c5af9f00fab79f0083
:1033d4008bbf9f00efab97008c8553007fac9700a9
:1033e4001fa89700000544000e0178000a00be00e3
:1033f4002bfe0700efa897008c8440001fa99700bc
:10340400080451000e0178000800be0024fe0700e5
:103414000e017800890078000a00780020fe070079
:103424000e0178008b007800080078001cfe07006d
:103434007fb297008fba9700e00f5200e08f5a00d6
:103444000f00340061025600e0825e007fb49700f2
:103454008fbc97002fa89700bfa8970008034000cf
:10346400898348005fb19700efb1970002014300e0
:1034740083814b00f2b79f0083bf9f002000370079
:1034840061025600e0825e007fab97008fb3970025
:1034940061034300e0834b00f6af9f0087b79f00b2
:1034a4007fb497008fbc97002fa89700bfa8970000
:1034b4000001540081815c00afa3970006b8b900f5
:1034c4000fb497009fa4970009c3b90000004300fc
:1034d400cfa897007fac9700080bb8008703400083
:1034e4000203430083834b003fb09700cfb09700a3
:1034f4000000430081804b00f0b79f0081bf9f0014
:1035040061065600e0865e005fb19700efb1970058
:103514001fb39700afb397000201430083814b00b0
:10352400d2b79f00e3b79f003fb49700cfb4970092
:103534000804430089844b00b8b79f00c9b79f00b3
:10354400e00f5200e08f5a00a2ff3d004f077800c1
:103554004f06be004f05be004f04be006f03b1000e
:1035640000000600889fbe008a9fbe008c1f780062
:1035740000067800820578000105e9000a05450087
:103584008004eb00890f55000b0034000c04780014
:1035940028019000980090000b027800b801900078
:1035a40018007800e4fd07008984e80064044400fe
:1035b400890f5500f6ff3c008902e800858242002d
:1035c400898444009c0090000b027800ec817a000e
:1035d4006c817c001c007800d7fd07004f06780042
:1035e4004f05be004f04be0000000600e4874700fc
:1035f400889fbe008a9fbe008c9fbe008e1f7800ed
:1036040080bf9f00e00f510039003200e08f51006d
:1036140037003200018741008e8f50002a003500a8
:103624003300370085834300c3b9de00e7806300bd
:103634008b027800094078000200320001d0de00dd
:10364400e8821000868f5200040034008682520003
:103654008552dd000540600086027800e10f5200cb
:103664000a003200e20f52000d003200e00f520057
:103674000f003a00830146008300440000c0ea00c2
:10368400e8c17900834860000900370083014600df
:1036940083004400e8c179008348700004003700c7
:1036a4008301460083004400e8c179008348680030
:1036b40005035300dbff3a008d06e8008e8f5600a9
:1036c400060035000a003700810678008b002000d0
:1036d400fa0f20000880200080c4eb000203780069
:1036e4008fbb97007b68b90000067800ceff3700d7
:1036f4004f0778004f06be004f05be004f04be00c2
:103704004f00b10000000600ee874700889fbe000e
:103714008a9fbe008c9fbe008e1f7800b0b79f00aa
:10372400e2b79f004391de00d2b79f00efb397004a
:1037340067836300020032000201e800d2b79f00f1
:1037440081814100c3b79f00838f50005a00350028
:103754006200370004004000848343000700370000
:10376400efb297003fb097008003eb00ffb09700e3
:103774007b09b9000202780084bf9f00c384de0085
:10378400670360008e40780084002000030032004c
:10379400f20f20008690de0006025200850f5200d0
:1037a4000500340005025200f30f2000041add0066
:1037b40084c060000502780043bcde0067816300ba
:1037c400ea417c008381fb008219dd00e00f510097
:1037d4000600320008044500184490000884fb00e9
:1037e4006801110002c1de0082c171008381fb0007
:1037f400069bde000143630032002000030020002a
:10380400820f5600838f5e0020003e000c60010092
:10381400030037000a0037000f0037001600370096
:103824008fb99700898441000981450081c0ea006d
:10383400ebc17c0083c060000149730013003700b2
:103844008fb8970089844000898045006bc17c0053
:10385400824873000d0037000fb9970089044100b6
:103864000981450081c0ea00814073006bc37c007c
:1038740006c96000050037008fb9970089844100ac
:10388400898045006bc17c0082486b0084825200b1
:10389400b0ff3a007fb297000402e800f4b79f003b
:1038a400cfb29700848f52000c0034005fb39700ae
:1038b400060545000500370005057800f1b79f00af
:1038c4006126b8000b80200000c7eb00efb397001f
:1038d400e08f5300a2ff3a00eeff37004f07780055
:1038e4004f06be004f05be004f04be00ef00b100fe
:1038f40000000600889fbe008a9fbe008c9fbe0009
:103904008e1f780080067800010678008205780012
:10391400040578000b9ab90084047800e08f540001
:10392400130034000004eb001e00200043c2de003c
:103934006a427a000482fb00e702640005a2de000a
:103944006102620007003a00110009000b04d8006c
:103954008000fd008c8040000d0040000e017800c6
:10396400cffc07000804e800890f5400efff35007e
:103974004f0778004f06be004f05be004f04be003f
:10398400000006000201500002f0a7000201ea0054
:103994000000eb00ef0f510007003c008380500053
:1039a40001f0a7008100ea0010002000ef8f500012
:1039b400010034000000eb0000000600889fbe00f8
:1039c4008a9fbe008c1f78004af680000000eb003e
:1039d400e30f5500170036001bed21009b457800ce
:1039e4008b85fb000ced21001c4678000c86fb0047
:1039f400d8ed21003900200078f997000281fb00fe
:103a0400184278008481fb008b0078000c00780059
:103a1400dcff0700e00f500005003a008904e800cd
:103a240064044400890f5500f3ff3e000100370091
:103a3400100020004f0678004f05be004f04be0062
:103a440000000600889fbe0010a7840021a7840000
:103a540039070700b0a78400c1a784003607070010
:103a6400180020000920200008007800320b07000d
:103a74006802600004003a0009006000faff3200a6
:103a84000000eb0001003700100020004f04be00ce
:103a9400000006004b060700202c290050060700f2
:103aa400202d29004e060700202e29004c06070071
:103ab400302f29004a060700a031290048060700d4
:103ac400e033290046060700203629004406070093
:103ad4004038290042060700c03929004006070083
:103ae400803b29003e060700403d29003c060700b4
:103af400d4ff0700b0fa880000000600889fbe00cb
:103b04008a9fbe008c9fbe008e1f7800e8f40700d9
:103b1400540c200001067800110009000400d800ac
:103b24000106fd000c86e8000c077800e0f40700ad
:103b3400d40b200081057800110009000400d8008e
:103b44008105fd00ea8545008b0678004af6800071
:103b5400e00f55001100320018ed21008004eb0045
:103b640078f997000281fb00184078008081fb00ff
:103b74008b0078000c00780082ff0700e00f5000f3
:103b840004003a008904e800640444008a8f540065
:103b9400f3ff3900890f5500dcff3a000e0078006e
:103ba40050ffb7000d00780051ffb70024f5210045
:103bb400144278000482fb00040242008d80fb0062
:103bc4000e80fb00254b290065027a0003012000ca
:103bd4000301780047ff07004f0778004f06be0037
:103be4004f05be004f04be0000000600889fbe00c3
:103bf4008a9fbe0024ed2100144278000482fb0059
:103c04000402420011ed2100914078008180fb0004
:103c1400d0debf000080fb00254b290065027a003e
:103c2400030120000301780032ff070044f68000fe
:103c3400e10f52001100360058ed21001900200058
:103c44002a4929000b012000184278008480fb00d7
:103c540078f897000080fb000a0278008b01780056
:103c64000b01780023ff07008904e8006404440082
:103c740044f68000890f5200f3ff3e004f05be005a
:103c84004f04be0000000600889fbe008a9fbe004d
:103c9400210020000000eb004e06070044f68000df
:103ca400e00f52001100320018ed21008004eb00f7
:103cb4000005eb000b012000184278008480fb0013
:103cc40078f897000080fb000a0278008b017800e6
:103cd4000b01780045fe07008904e80064044400f1
:103ce40044f68000890f5200f3ff3e004f05be00ea
:103cf4004f04be000000060011f521009140780039
:103d04008180fb0050dfbf000080fb000002eb005d
:103d1400030120000301780034fe070000000600c0
:103d2400889fbe008a9fbe008c1f78004af68000e0
:103d34000a05e9001b0033000a84e8004244dd0060
:103d440094ec210004044400898920008005eb00e0
:103d54002c032000184278008480fb0078f8970038
:103d64000080fb000b0278000301200003017800af
:103d74001efe07008c007800090078005208070036
:103d840020fe80004400de009f07070043cade00d7
:103d9400848454000a05e90064045400e00f5500cb
:103da400ecff3d004f0678004f05be004f04be00f7
:103db4000000060080ab840091ab84005e0607001f
:103dc400e30507001100200050f68000a905070054
:103dd400e0ab8400f1ab84005706070054f6800082
:103de4004322de0065f6800005a2b9001100200020
:103df400040078009f05070014002000730d2000c4
:103e040003017800810020000000eb0035fc07006e
:103e140000000600547fef002400200044f68800d0
:103e24004401200054f68800cc3eef000401200039
:103e340074f6880044c6b3000002fd00d0feb7004b
:103e4400d1feb7000002fd0019f407004400200071
:103e5400811f7800110009000400d80001027800d5
:103e6400cf0078000002fd00d2feb700d6feb700f6
:103e74000002fd000482fb0005002000e30f520055
:103e8400e08f5a0026003e00046001000300370062
:103e94000b003700120037001a003700d0debf00d5
:103ea400d4feb70014ed21001442780070424200a1
:103eb4000002fd00d5feb7000002fd001800370027
:103ec40004ed21001442780070425200040078008e
:103ed400d4feb700d1debf00d5feb7001000370016
:103ee400d0debf00d4feb70014ed210014427800e8
:103ef400704252000002fd00d5feb7000002fd0032
:103f04000700370004ed210014427800704242009b
:103f140004007800d4feb700d1debf00d5feb700a0
:103f240054c0b3000002fd0052ffb7000002fd00c0
:103f3400240507009fff0700f0fe07002bff070082
:103f440000000600889fbe008a1f780000057800e4
:103f540054f680004322de0065f6800005a2b90015
:103f6400c5fa8000850f520001003600c4fa8800ab
:103f740061ff07006aff07008eff070028a884007e
:103f840039a884000800be00eb0507000800be0045
:103f9400e9050700a0a88400b1a88400e60507008d
:103fa4008000eb00c0fa800032050700e10f5500e5
:103fb4000800320003003900e20f55000c003a00fb
:103fc4000800370060a9840071a98400da0507009d
:103fd4000700370040aa840051aa8400d6050700d0
:103fe4000300370000ab840011ab8400d205070046
:103ff40014c0b3000002fd0054ffb7000002fd002e
:1040040090fe0700e00f500001003a00563fef0019
:104014004f0578004f04be0000000600e10f500079
:1040240001003e0020002000ca3eb50061ff0700e9
:1040340015ff070054f68000e00f52000200320022
:10404400eafe0700020037000000eb00bdff070096
:1040540000000600ca3eb40056ff07000000060038
:1040640002ed2100124178000281fb0011f52100cc
:10407400914078008180fb0050dfbf000080fb008e
:1040840013ed2100934178008381fb003dfe07007e
:10409400e00f50001900320017ff0700004c290000
:1040a400b607070040012000eaff070044f680003d
:1040b400ff0f520010003e000403e80046f688009b
:1040c400c223dd00e680430085ec21006a804200c3
:1040d400e5c0780001f07b000482e8004222dd00a4
:1040e400048242004233dd00654a7b00868242003e
:1040f400954290001542980080fe070000000600db
:1041040044f680000402e8004222dd0085ec210030
:1041140004834200964090008180fb0065407a0051
:104124000080fb000002eb00030120000301780083
:104134002efd070044f68000e10f52000d0032000e
:104144004222dd0085ec210005024200e4824200a7
:104154001443780046429800144390005642980055
:10416400244390006642980064025200850f520076
:10417400f7ff3a0024ed2100144278000482fb008a
:1041840005002000e30f5200e08f5a0046003e0075
:1041940004600100030037001300370024003700d7
:1041a4003500370015ed21009542780074f6800043
:1041b4008583fb0068034200868f530005003900a5
:1041c40004c252000002fd00d1feb7000002fd004f
:1041d4003500370084c0b3000002fd00d1feb700f3
:1041e4000002fd003000370005ed21009542780003
:1041f40074f680008583fb00860c200004035300c2
:10420400868f53000500310004c242000002fd0005
:10421400d0feb7000002fd002300370084ccb300b9
:104224000002fd00d0feb7000002fd001e003700b2
:1042340015ed21009542780074f680008583fb001b
:10424400860c200004035300868f530005003100c0
:1042540004c242000002fd00d1feb7000002fd00ce
:104264001100370084ccb3000002fd00d1feb7007a
:104274000002fd000c00370005ed21009542780096
:1042840074f680000583fb00840f53000500390099
:1042940004c252000002fd00d0feb7000002fd007f
:1042a40001003700d07eef0024ed21001442780095
:1042b4000482fb000402420011ed210091407800c9
:1042c4008180fb00d0debf000080fb00254b29006d
:1042d40065027a00030120000301780085fd0700d0
:1042e40051ed2100914078008180fb00d4debf00b5
:1042f4000080fb000002eb000301200003017800b2
:10430400bafc070051ed2100914078008180fb0048
:10431400d4debf000080fb002449290003012000f3
:104324000301780073fd0700d05eed0064ccb30098
:10433400844f500007003e0014ed21001442780021
:10434400e94f52000300360075ccb300854f52008c
:104354000300360010002000fafe070007003700b3
:1043640096fd0700e00f50000300320020002000fb
:10437400f4fe07000100370039ff070000000600c3
:10438400889fbe008a1f7800c2fd07002e06070022
:10439400c0f2070014c0b3000002fd0054ffb700d0
:1043a4000002fd00b4fa8000e00f52004d0032001c
:1043b4000004eb00090220000a04200044f5210057
:1043c40014427800e04f52000100320091fe0700d1
:1043d400a00020000c0607006a04440024fe8000ac
:1043e400809fbe00110009000484d80001027800f7
:1043f4004f00be00e00f520008003a00cc3eec0033
:1044040050f68000a4002000811f780011000900ec
:104414000480d800cf00780000ff070010002000bf
:10442400c5080700890f50002200320003003e0037
:10443400f00f500027003a00180037008a0f500090
:104444000400320004082000840f500021003a00c8
:104454000900370024ed210014427800e14f520096
:104464001c00320034c0b3000002fd00d2feb700cd
:104474000002fd001700370024ed210014427800eb
:10448400e34f52001300320014c0b3000002fd00d9
:10449400d2feb7000002fd000e00370024ed21001b
:1044a40014427800e24f52000a003200d27eef003c
:1044b4000800370024ed210014427800e04f520038
:1044c4000400320024c0b3000002fd00d2feb70095
:1044d4000002fd000aff0700b4fa8000e00f52005a
:1044e400b6ff3a00b70307004f0578004f04be003b
:1044f40000000600ea874700889fbe008a9fbe002e
:104504008c9fbe008e1f7800fdfd8000666ab90096
:104514008486e90004fe80004322dd008482e900f1
:10452400e5b79f00d4b79f00ae0020000002eb0067
:10453400f4b79f008d82e80085bf9f00120037000a
:104544008904e800088146000c0278008a0178009a
:104554008b0078000800780062fa07000fba970011
:1045640004044400e48f5400f5ff3a00ffb29700be
:104574008502e800f5b79f005fb297000407470083
:10458400e48f520007003200efb297000e8542001c
:104594008e057800280020008004eb001c00200019
:1045a400e7ff37004f0778004f06be004f05be00f7
:1045b4004f04be00af00b10000000600889fbe009b
:1045c4008a9fbe00c8f921008004eb008005eb003f
:1045d4000884e8000002eb00980f12000e0032007d
:1045e40004fe80000403d1000603e800c248de0094
:1045f400048ab9008400430063806400f4fd8000f1
:104604000482b9000480e800f20307008b007800fc
:1046140018007800970307008904e800f08f54001d
:10462400ebff3a004f05be004f04be000000060039
:10463400881f78001ef207006f046000080244001f
:10464400e5f9210065027a00e00f5200f9ff3a0013
:1046540017f2070008044400610060000000e8004d
:1046640000004000e4f9210000327c004f0478008f
:1046740000000600c4f921000602200004034300e0
:104684008002eb00052a7800860f5200fdff3a00f5
:104694006d050700fff10700e5ff0700e4ff0700d1
:1046a40004ff800015ff8000850f520001003600d2
:1046b40014ff8800e03fef00000006001000200017
:1046c400f4fc8000e00f520025003200e5f92100df
:1046d4007e834200050278008003eb00d48f130030
:1046e40018003200860f5200fbff3a0066fa2100e0
:1046f4000002eb00e3036200e38f530004003a007e
:1047040095037800968f530007003a000f00370096
:104714009503780015009000808f53000d0032003f
:10472400968f53000d0032000402e8008582e800f1
:104734000683e800ec0f5200eeff3a000000eb00a5
:10474400070037001000200005003700100020008b
:104754000300370010002000010037001000200083
:1047640000000600889fbe008a9fbe008c9fbe008a
:104774008e1f780080047800010478006101200015
:104784000000eb00930307000058290014030700fe
:104794007e020700205a29001103070004fe80004e
:1047a4000406d1000c06e80004c2b9000406460061
:1047b400fdfd80000dcab9008486e80022050700cb
:1047c400fe044000180020000200370008007800b2
:1047d4000d05070008007800d7070700e00f500018
:1047e400faff3a008005eb001e5c29001a00200045
:1047f40015050700808f54000d0031008c007800ef
:104804000d00780073030700e08f550002003a00a2
:10481400c503070001003700c50307000b00a20011
:104824000e007800ee02070007050700fe044000b2
:104834000a007800c007070000047800e00f540065
:10484400ebff3200ba0307008c0078000d007800fb
:1048540060030700105c2900e102070061012000e9
:10486400600020005b0307003903070047020700cc
:1048740037030700610464001000200001003200c7
:10488400200020004f0778004f06be004f05be00f1
:104894004f04be0000000600ea874700889fbe0060
:1048a4008a9fbe008c9fbe008e1f7800000fb2004e
:1048b40004022000840f5000ad00320003003e00cb
:1048c400f00f50004e013a005b0037000404200052
:1048d400840f5000f300320004082000840f5000bd
:1048e40047013a003a013700090278000402e8005f
:1048f400e30f520009003c00c222dd00888242001e
:1049040085824200e6f92100e6827a00e08f5200b7
:10491400f6ff32000100370009027800e40f52006c
:1049240041003200848f54000a003d004222dd0021
:1049340008024200424bdd0008034300e5f9210070
:10494400060343000402420064b37a008a327a0008
:104954001c002000e08f5400250034008900e90089
:10496400c20add008882420005824200e7f9210084
:1049740067037a00424add00080242000400420054
:10498400e7037800870f530011003a000603430041
:10499400e7f921008582420086b37a000fb89700b8
:1049a4000000430080bf9f00040242008a337a0063
:1049b40067827a001c0020008b0f52000c003a0022
:1049c4000800780067ff0700000678000800370039
:1049d400e00f530006003a00e6f921008582420008
:1049e40007b37a00040242000a337a001c00200054
:1049f4008904e800e48f54000b003200e38f540074
:104a0400c5ff3c00424add000802420004024200a5
:104a1400e5f9210065027a00e00f5200b2ff32008e
:104a240009027800bdff37000804e800e40f5400d1
:104a340006003a00f40037000004eb000806780092
:104a440088bf9f000005eb000b8020008a047800db
:104a5400eaff3700090278000402e900400033004d
:104a6400c222dd008882420085824200e6f92100ec
:104a7400e6827a00e08f5200f7ff3200fa00370036
:104a84004222dd0008024200e5f9210007834300c9
:104a94000402420064b37a008a327a001c002000c7
:104aa400e28f540023003c008900e800420add0044
:104ab4000802420084024200e6f92100e6827a00fc
:104ac4000780430066037800868f520011003a0085
:104ad40085824200e6f921000402420005337a008f
:104ae4000fb897000080420080bf9f008783430077
:104af4000ab37b0066027a001c0020008d0f52006e
:104b04000c003a000800780016ff07000006780041
:104b140008003700e08f520006003a00e5f9210052
:104b24000402420086327a00878343008ab27b0003
:104b34001c0020008904e900e18f440008003200d1
:104b4400c24bdd008883430007824300e5f921005e
:104b540065027a00e00f5200beff3200d0ff37003a
:104b64000804e800e40f540006003a00a6003700e9
:104b74000004eb000806780088bf9f003b0020007b
:104b84000d8020008b0478000005eb00ecff37005b
:104b94000402e800e30f520007003c000003eb00ae
:104ba400d50f1300faff3200030037000802780023
:104bb4000100370008027800e40f5200350032008b
:104bc400880f5200060034000b0242000402420027
:104bd4006d0d7a0004824600000aeb001c002000e0
:104be400e00f540019003400190278009902900073
:104bf400850f520010003a0004024200840c780031
:104c04008fbb97008483430087bf9f008002eb0023
:104c1400950498001c00200000802000800f5200a2
:104c24000a003a000800e9008e007800cdfe070073
:104c34000006780005003700e00f520003003a0038
:104c4400850c7800940498001c0020000804e800f7
:104c54008984e8000a85e800e40f54000d0032005e
:104c6400e30f5400d1ff3c006fb3970006024500e8
:104c7400dfb3970064827b00e00f5200cdff3a005f
:104c84008b024400858242008d8242000802780033
:104c9400bfff37000e07e800e40f570005003a0095
:104ca400590037000007eb000e0678008ebf9f0006
:104cb400edf92100c275dd008b04e900898444000c
:104cc4008d8444000b8545000d0545000004eb0070
:104cd400e4ff2f0004dbb900e6b79f00f7b79f009d
:104ce4008b834500d7b79f00ddff37000402e9003e
:104cf400330033000000eb00c50f1000fbff32004f
:104d04005c0037000e024200040242006b0b7a0082
:104d140004824500000aeb001c002000e20f54004e
:104d240018003c001a02780096027800850f5200a1
:104d34000f003a0004024200040d78008fba970075
:104d44008482420085bf9f00000beb001c00200002
:104d5400068020009a0f13000a003a000c00440059
:104d64008d0078007ffe07000006780005003700fc
:104d7400e00f520003003a00050d7800000beb0031
:104d84001c0020000804e9000a85e900e10f440042
:104d94000b0032008984e900090378008003eb00ea
:104da400998f1300ddff3a006fb097008002440032
:104db400858242008b82420008027800cbff3700d4
:104dc4008d06e800e48f560005003a000e00370017
:104dd4008006eb000d0678008dbf9f00ebf92100e3
:104de400426fdd00eeb79f00e4044700898444006d
:104df4008b8444000905780038002000e5ff370063
:104e04000006eb008cbf9f008fbb9700e08f530020
:104e14000c003200440207007101200060002000f1
:104e2400ec010700b0c2b300e20007008000eb0011
:104e34000fb897008f010700e001200072030700fc
:104e44003b0207000fb89700e03fb4000c00780065
:104e54004f0778004f06be004f05be004f04be004a
:104e6400af00b10000000600848f540004ff3c0032
:104e74000bff3700880f5200a2ff3500a7ff370051
:104e8400810120000000eb00d2010700b0010700ff
:104e9400705c2900520107008000eb0000ff8000d5
:104ea40074010700910120000000eb00c901070014
:104eb400a7010700f05c2900490107008000eb000e
:104ec40010ff80006b010700000006003d01070091
:104ed40088fd0700b9fd0700e9ff07000000060090
:104ee400889fbe000002eb00030c2000820d20000e
:104ef4008400780004007800bcf90700e0ff070094
:104f0400c1002000c0002000b2010700c05d2900dc
:104f140033010700e10020000000eb00ad010700b1
:104f2400605e29002e0107001900200009007800a6
:104f34000106070000047800e00f5400fbff320074
:104f4400ccfd07004944de00610064004f04be004c
:104f540000000600889fbe0084002000f4fd880045
:104f64005400200004fe8800c2fd0700d7ff07009c
:104f74001800200009202000200020002203070040
:104f840008007800ec050700e00f5000fcff320039
:104f94000902600014003a003ffe0700e10f5000d0
:104fa40002003a00a2fd070003003700e20f5000a0
:104fb40001003a00affd0700c4ff0700bffd070072
:104fc400e00f500003003a00c5ff0700e00f500057
:104fd40005003a0008007800d7050700e00f5000ec
:104fe400fcff3a00e4ff37004f04be000000060057
:104ff400b4fe8000c5a2de006702620062021200f5
:1050040014003b000403ea0012003200c0fe8000da
:1050140067004000048020007b00b9008500400048
:1050240001014200f703200086b9de00e4c07800e5
:1050340003c968008502e8008502400005004200bb
:1050440068031300863bdd0064c27a0007486a00e7
:105054000a003700c0fe8000670040000680200080
:105064007b00b9008082420085034300f0032000e6
:105074000402dd00e6c27a0084cb6a000000060068
:10508400025f2100818d20000080200070ef070066
:1050940004df2100d7000900005aeb0000000600dd
:1050a400025f210001802000800d200001004000eb
:1050b40067ef0700048020006b000900001aeb0072
:1050c40000000600b4fe800066024200b4fe8800c0
:1050d400250d2000850f52000a003600d63fef0050
:1050e400c4fe800068024200c4fe8800e6824200da
:1050f400850f520003003600e1ff070080ff2f00f8
:10510400d83fb40000000600b4fe8000e50f520052
:105114000300360066025200b4fe8800090037001e
:10512400c40c2000b4fe8800c4fe8000e70f5200c7
:105134000300360068025200c4fe880001003700f4
:10514400d7ff070000000600c4fe8000e70f5200ee
:105154000300360068025200c4fe880001003700d4
:10516400cfff070000000600c4fe8000850c20006d
:10517400850f520003003e0068024200c4fe88000e
:1051840001003700beff070000000600d63fef0015
:10519400c4fe8000050d2000850f520002003a0075
:1051a400b7ff07000200370068024200c4fe88000f
:1051b40000000600e6874700889fbe008a9fbe0065
:1051c4008c9fbe008e1f7800b3fe8000c9fe800055
:1051d400e94f500007003200ed4f50000300320049
:1051e400e84f50001b003a0018003700e7ff0700a3
:1051f4006e00370064fe2100144278000482fb0034
:10520400809fbe00110009008481d800010278004b
:105214004f00be0083014200b3fe8800140d20003d
:10522400848f510061003600d63fef000402e9008c
:10523400848f540002003a0091ff07005b0037009e
:10524400e8844400c9fe880058003700aeff070018
:105254005600370006ceb30006434000d4c6b30060
:10526400844f530051003e00c39ede00e78161007d
:10527400e28111004f9ade008300ea00848060001e
:1052840092fe800064016100fa03200001d6de0072
:10529400688410008855dd000cc2ea0084f79f0082
:1052a4000bc7ea00feef9f000355dd000ac2ea00c7
:1052b400e4ef9f008903e8007b4ab9008402780088
:1052c4000d82420000802000000242000683fb00a1
:1052d4004337dd0026f52800060347008d06e80065
:1052e4008d8242008082420069804400e08f500039
:1052f40018003200e00f51000b003200964678008f
:105304008d84fb0001cfde000ec7ea0094467600d0
:105314000d4a6700884cdd0089c4ea0095c6750013
:105324008dca64001a003700164778008e84fb008b
:105334008ff6970014c7660081cede000d4a770011
:105344007fef970095466700884cdd0089ca760098
:105354000f003700e00f5100070032009644780038
:105364008986fb00836edd008dc6ea0094447500d7
:1053740009ca6600060037006fef9700944667007d
:10538400164778008e84fb00834cdd0009ca760042
:105394008703e8007b0242000603e800fb82420028
:1053a400808f5300d1ff3a0046ff07004f07780073
:1053b4004f06be004f05be004f04be006f00b10093
:1053c4000000060004802000630b0900001aeb00b3
:1053d4000002eb00b4fe8800c4fe88000000060052
:1053e400881f78000004780018407800e04f5000cf
:1053f400040032006fff070058407800e04f50006f
:10540400fcff3a004f047800000006000c00fa008c
:105414000042eb00f4ff9f000183fb000f82e900d0
:105424000c003700ef426000054a7800e9cf5200d3
:1054340003003c0007c3b30007ca42000200370060
:1054440077c3b30007ca42004400de000402e90047
:105454000603e900e00f5300f2ff3d00e00f5000a7
:10546400f0ff3a000400e800ddff07000080fa00c6
:10547400000006000e00fa000042eb00f4ff9f005b
:10548400ed8f500001003600d10020000001eb0038
:10549400820f500002003d000000ea0012002000cc
:1054a40081027800e00f50000d0034000f82e90003
:1054b400a600200081037800110009000600d8002e
:1054c4008103fd0003c3b30003d2430084037800c7
:1054d4008502e900e00f5000f6ff3c0001003700b0
:1054e4008f83e900858f500003003a0004c3b300a2
:1054f400845378008502e900e08f520007003400ed
:10550400058053000702780006c2b30006527800f3
:10551400800f5200fdff3a0085835300e00f5100d5
:1055240003003200d4c2b300844b78000200370079
:1055340004c2b300844b780007007800a8ff07007a
:105544000080fa0000000600e6ffb7000000060035
:10555400889fbe008a9fbe00bafe8000cbfe8000fa
:10556400540c2000840f550007003e0008c2b3000d
:1055740084047800084078000eff0700b4fe800021
:10558400890f5200fbff360000c2b30009ff070079
:10559400bafe8800cbfe88004f05be004f04be0053
:1055a40000000600b5fe800064002000801f780023
:1055b400110009008482d800000278004f007800ae
:1055c40004087800c4fe80004322de001400980022
:1055d4000000060024022000840f500006003e0054
:1055e400fa8f500004003e006602b900b4fe880041
:1055f400c308dd00c1fe880000000600889fbe00cd
:10560400b1fe8000c7fe8000438ade00e7806000b0
:10561400e2801000cf8ade000103ea000503630084
:10562400f503200086a9de00680113000229dd00cd
:105634008128dd008702e8007b3cb90008004200b5
:105644000480200004024000ea834300e00f53007a
:105654000500320014ca690014409000024068003a
:10566400104298000100370014ca68008502e8005f
:105674007b024200878f5200f4ff3a004f04be00c1
:1056840000000600881f7800e00f50000b00320075
:1056940094fe80000400a0000410a20094fe880080
:1056a400a4fe8000e10f520002003a00d3ff07007d
:1056b4000e0037004efe07000c00370098fe8000f5
:1056c4006202640008003200a4fe8000e10f520070
:1056d40002003a00c9ff07000100370044fe07003a
:1056e4000810a10098fe8800d21fa9004f0478007a
:1056f40000000600881f780000047800d23fab0049
:10570400060032000000eb00deff0700a8fe880060
:1057140010002000dbff070001003700a8fe88000e
:105724004f04780000000600d25fa80000000600c5
:10573400d25fa90000000600889fbe000004be00de
:10574400c800de000880fb00a2ff07000900780003
:1057540023ff07004f04be0000000600889fbe0020
:105764008a1f7800000578000002eb00e1f52100b3
:105774000003eb0066804000c322dd008583400007
:10578400860b780085024000860a78000402e8004f
:10579400e80f5200f8ff3a005a3fef005c3fef0079
:1057a40005e1a9000421a9006154b8000801be0064
:1057b40000402200410f200067ec0700e10f400089
:1057c400e08f58000b00360014002000f6ff2f0075
:1057d400070020008100d1000080d30004024200b1
:1057e400860f5000878f5800faff3e00e10f5200e9
:1057f40006003a00240880000440a1000450a100df
:10580400240888001008880020003700e80f5200a0
:105814000a003e00240880000440a0000450a100b7
:10582400240888000801be0000482800e101200087
:1058340049ec070010088800140037000504200014
:10584400850f52000a003e00240880000440a10095
:105854000450a000240888000801be0000092d009f
:10586400310020003cec07001008880007003700d6
:10587400000320000421b70044422f001100090056
:105884000a82d80000027800140888008460a90005
:105894009460a80005e1a8004f0578004f04be00fd
:1058a400000006000082eb00e00f510020003200ef
:1058b4005e1fab000700320014002000c322dd008d
:1058c400e6f52100e6827a00e182620014003a00e3
:1058d400010037000002eb00c322dd003700200086
:1058e400e6f5210007b37a00e18f500004003a0086
:1058f400e6837a00850243000720a000870a780027
:10590400c322dd0006f6210000b37a000683e80016
:1059140000b37a000683e80002b37a00040037007b
:105924000402e800e80f5200e4ff3a000082eb00b2
:105934000400780000000600e70f50000b003e0052
:105944004302dd00e5f5210065027a006102620090
:10595400060032004300dd0005027800e40278000e
:10596400000042000510a0000508780000000600b1
:10597400e70f50000f003e004302dd00e5f5210073
:1059840065027a00610262000a0032004300dd0011
:105994000083e80005027800e482420064037b008f
:1059a40086327800e4027800000042000510a1006d
:1059b4000508780000000600e80f500008003e00cb
:1059c4004302dd00e5f5210065027a00e00f520094
:1059d400030032004300dd000582e8000132780054
:1059e40000000600e70f500008003e004300dd0001
:1059f400e5f52100808242000002eb00840a780071
:105a040045f62100008042000408780000000600ea
:105a1400d0fa8000e1fa8000000006003600f800a9
:105a2400809fbe00829fbe00849fbe00869fbe00f2
:105a3400889fbe008a9fbe00d4fa8000e5fa8000e9
:105a440061024200e0824a00d4fa8800e5fa880044
:105a54000004eb0029f621004342dd00e5f52100b6
:105a640065027a0063026200e10f52001c003a00f2
:105a74004343dd0064024300e5037a0006834400e7
:105a8400070be90065027a00e00f520014003a00a7
:105a9400c345dd0066824500050578006a027a0088
:105aa400040001006a827d00640262000600320084
:105ab4000b0278008482e8000a03780066837a0087
