:020000040000fa
:080000000002040000000000f2
:020000040000fa
:100008009802000098020000980200009802000080
:100018009802000098020000980200009802000070
:100028009802000098020000980200000e250000c7
:1000380098020000980200009802000024260000a0
:1000480006280000980200009802000098020000ac
:100058009802000098020000980200009802000030
:10006800980200009802000098020000e4260000b0
:100078009802000098020000980200009802000010
:100088009802000098020000980200009802000000
:1000980098020000980200009802000098020000f0
:1000a80098020000980200009802000098020000e0
:1000b80098020000980200009802000098020000d0
:1000c80098020000980200009802000098020000c0
:1000d80098020000980200009802000098020000b0
:1000e80098020000980200009802000098020000a0
:1000f8009802000098020000980200009802000090
:10010800980200009802000098020000980200007f
:10011800980200009802000098020000980200006f
:10012800980200009802000098020000980200005f
:10013800980200009802000098020000980200004f
:10014800980200009802000098020000980200003f
:10015800980200009802000098020000980200002f
:10016800980200009802000098020000980200001f
:10017800980200009802000098020000980200000f
:1001880098020000980200009802000098020000ff
:1001980098020000980200009802000098020000ef
:1001a80098020000980200009802000098020000df
:1001b80098020000980200009802000098020000cf
:1001c80098020000980200009802000098020000bf
:1001d80098020000980200009802000098020000af
:1001e800980200009802000098020000980200009f
:0801f8009802000098020000cb
:020000040000fa
:10020800980200009802000098020000980200007e
:10021800980200009802000098020000980200006e
:100228009802000098020000980200000e250000c5
:10023800980200009802000098020000242600009e
:1002480006280000980200009802000098020000aa
:10025800980200009802000098020000980200002e
:10026800980200009802000098020000e4260000ae
:10027800980200009802000098020000980200000e
:1002880098020000980200009802000098020000fe
:1002980098020000980200009802000098020000ee
:1002a80098020000980200009802000098020000de
:1002b80098020000980200009802000098020000ce
:1002c80098020000980200009802000098020000be
:1002d80098020000980200009802000098020000ae
:1002e800980200009802000098020000980200009e
:1002f800980200009802000098020000980200008e
:10030800980200009802000098020000980200007d
:10031800980200009802000098020000980200006d
:10032800980200009802000098020000980200005d
:10033800980200009802000098020000980200004d
:10034800980200009802000098020000980200003d
:10035800980200009802000098020000980200002d
:10036800980200009802000098020000980200001d
:10037800980200009802000098020000980200000d
:1003880098020000980200009802000098020000fd
:1003980098020000980200009802000098020000ed
:1003a80098020000980200009802000098020000dd
:1003b80098020000980200009802000098020000cd
:1003c80098020000980200009802000098020000bd
:1003d80098020000980200009802000098020000ad
:1003e800980200009802000098020000980200009d
:0803f8009802000098020000c9
:020000040000fa
:100400008f4122000e7f22000e01880000000000b4
:1004100000012000200288000c00070040bc2200e0
:100420000100200011000700000020000000e00093
:10043000020032000000020000000000762a0200e4
:10044000000000000040da000000fe004440a90067
:1004500080cf20000000e0000300320000002000f8
:10046000a00188004440a800000006009101880017
:10047000800078000000eb0015003700e2804000ab
:1004800032a0b4009101ba00e280400032a0b40072
:100490009102ba00e280400032a0b4000002eb00fa
:1004a000472bde00f507b200602ce10004003a00a3
:1004b0000059eb008301e900fdff3e000400370016
:1004c0006128e100010032000082eb000400070017
:1004d0001101ba000200e000e8ff3a000000060047
:1004e0003159ba008301e9000c0032002159ba00e9
:1004f0008301e900080032000400e00003003a0034
:10050000e280400032a0b400f5ff370011d9ba00f4
:100510008301e900faff3a008100e800e180400031
:1005200032a0b4000000060000000000000000003f
:100530000040da000000fe0000027800850880001c
:10054000e08f5200030035001061a8000000280071
:100550001021b7003008800041088000e00f5200f1
:1005600001003200008abe000000060003f0a20075
:10057000889fbe008a9fbe008c1f7800b8000700cd
:10058000bf0033006450e1004f0032006420e100fe
:100590005200320003826c0007003b000905d000c6
:1005a0000306d000820f54000c065d0002003900e3
:1005b0000200320089017800030678008582550028
:1005c00004003d000003fd008103fd008502ea00f8
:1005d0008b854200840f720002003b006000100017
:1005e000e08018006011b8000005eb007a28e100f7
:1005f0000a00390006007800c75ddd00f707b20089
:10060000878075002d003700828171000a01780013
:10061000610560008180d1000080d3008502e9007f
:10062000f9ff3b00060440008784480002003b00bd
:1006300060041400e0841c000988a3000700320055
:100640008a81710082817100610164008904d10096
:100650000884d3008b05e800170037000978a30051
:1006600013003a000b00e000130034008b05e90092
:100670000804440089844c000a4474000978a300eb
:100680000d003a000b00e000070034008b05e90084
:100690000804440089844c0001003a000b0020004b
:1006a0000978a300f7ff32000001eb0002003700d9
:1006b000828171000a0178002e0007000cf0a7006b
:1006c00001f0a000770037006420e10002003a004a
:1006d000838f6c00770033000801be000200be006b
:1006e000700037000001be00480007000470a7003a
:1006f00003f0a1006509b100160032000d003500bd
:100700006828e10006003500f0ff2f00f1ff270008
:100710000300e00013003b0001002800000005007a
:1007200000004000818048008502e900fcff3a009b
:1007300008003700f88f420002003c008000eb0008
:10074000000005008100d1000080d3008502e80090
:10075000fcff3a000300e00002003b0060001000d4
:10076000e0801800000006004f89de00820178005a
:100770009700370081002000618055000b003d008c
:100780000b00200061fe2f000100e1001d0034007d
:1007900082817100610164008904d1000884d30062
:1007a0000000e800faff3a007100200061006400d8
:1007b0000300700002006000090032006104440080
:1007c000e0844c000988a500050032008b05e80094
:1007d0006808e10002003a008904d1000884d300cf
:1007e000f20f20000258e10005003d00c75ddd006a
:1007f000f907b20089807500080078000000060043
:100800000bf827008b00780000000500c70ade0007
:10081000f107b200f50fb20008003200e1cf42004c
:10082000020032000170a00024000500810f70005a
:10083000010032000408050044000500810f70002b
:1008400002003a00140005008502e90000004000a3
:1008500081c04800fcff3b000170a000240005009f
:100860000004be00e9ff07000003be000405be004f
:100870000200be00e5ff0700844f7500000006007f
:100880000200be006450e100050036006420e10073
:10089000020036000968a30001003a000800be000b
:1008a0000160a0004f0678004f05be004f04be0057
:1008b00000000600f0ff2f00f1ff2700f9ff3700ce
:1008c000889fbe008a9fbe008c1f7800e4ff07004f
:1008d000ebff330003866c006450e100240032001b
:1008e0006420e100270032006150e1002200320064
:1008f0006120e100210032008b854200eb07b1004e
:100900000134b800003ab8000804420089844a0063
:10091000013ab8000030b8008880400009014a0060
:1009200004003300000040008180480002014900bb
:100930008b05e900c909dd00830170000100320068
:1009400013002000c814de004814dd004709de0053
:100950001200b200c808de000884700085ff07009e
:1009600001f0a1000cf0a70001f0a000cdff3700be
:100970006120e100cfff32000801be000200be008e
:10098000f7ff37006150e100fcff3a00c9ff370074
:100990006022b800060220000000d0008180d20052
:1009a0000482d2008582d2000000a0000202520020
:1009b00083825a00030031000202420083824a000f
:1009c0000000a1000603e900f3ff3a000000060062
:1009d000881f7800030478000300e00007003d0052
:1009e00060001000e080180060011900e08119002b
:1009f00002003b0001f02d00030037000400070057
:100a000008f0a70001f0a0004f04780000000600e5
:100a1000889fbe008a9fbe000082700004027100a1
:100a200004827100260032000004be000200be00f5
:100a30006011b8006b092000950220000182cf00f0
:100a40000a0039000541b1000082cf0007003900db
:100a50000541b1000982cf00040039000541b10011
:100a60000882cf00010039000541b1000542520063
:100a7000120032000a003b008281710061016400b3
:100a80008100d1000080d3008984d3000884d30082
:100a90008b05e8000442e800f7ff3a000700370042
:100aa0000804440089844c0000004800818048000c
:100ab0008b05e9000442e900f9ff3a002dff070029
:100ac0004f05be004f04be0000000600e687470049
:100ad000889fbe008a9fbe008c9fbe008e1f78003c
:100ae0000400220005008100e08f52000b003a0054
:100af000e4024200050089005500890024029800a4
:100b000044008900a44290000504a00025429800fa
:100b1000e44290000504a00065429800670440008c
:100b20004244de004244dd00400081008d0122008d
:100b3000894122008d845400240020008002780026
:100b4000811f7800110009008404d8008002fd0094
:100b5000cf007800f5b79f000882e8000402420049
:100b600084bf9f000003eb0064074400bc412200e7
:100b70000d06560008064600010037000b007800fd
:100b80002042900061026200020032000a00370039
:100b900015087800900278002542900061026200fa
:100ba000fbff320008024000848f5200020039002f
:100bb000e00f54004e003d0090057800808f5500f6
:100bc000eeff3e008d8f5500030039000400220027
:100bd000848f5500e9ff390054008100840f5000d4
:100be00054003a0004002200848f550051003a005e
:100bf0000603e800e10f5300e0ff36007fb39700e3
:100c0000860f540002003600890f5400120039008c
:100c10006143b800614ab900b0ff2f000100200015
:100c20000402500085825800840f5300858f5b00ba
:100c30000b003d0000027800811f780011000900c0
:100c40000986d8000002fd00cf00780009a2b90093
:100c500004057800030037000fbd9700010037003e
:100c6000080578000a007800b3000700e10f400093
:100c700005003a000e0578000e007800ae0007006f
:100c8000e10f40002b00320054008100000a780080
:100c90005400810064034200a4429000860f50007b
:100ca000020032000504a000010037000504a10085
:100cb00025429800640555000a0540000a0878009e
:100cc0005a00890004002200040d780055008100bc
:100cd000254290000404a000a44298002042900005
:100ce0000404a100244098000003eb00a3ff370098
:100cf00044008900848f5200070036001403be00b0
:100d00006600890077008900100a78008042eb00b5
:100d100044008100254298004700810007087800c0
:100d2000204290000404a000244098006400400089
:100d3000010037000000eb004f0778004f06be00af
:100d40004f05be004f04be006f00b100000006005a
:100d50006400500044008100840f50000100310005
:100d600040008900204290000404a1002440980023
:100d700000000600889fbe008a9fbe000004be00df
:100d8000e08f540005003a00e00f540032003200ba
:100d900008007800eeff070030003700e00f540035
:100da00004003a000900780048ff0700800478003a
:100db0002a003700640254009405780068fa97000e
:100dc000610262000200320008007800e0ff0700c4
:100dd000090078003dff070080047800e08f540090
:100de0001e003200888f54001b00320069bd97003e
:100df0000905550042d5de0088855500c2ddde00bc
:100e00000a0178008b0f5500010036000b017800b5
:100e10004211dd0088007800090078001300070007
:100e2000888f54000d0031004255dd000a854400d2
:100e3000880f5500090036000804550042c4de0042
:100e40004244dd0008844400640081007500810094
:100e5000048cbe0001003700880478000900780087
:100e60004f05be004f04be000000060000027800df
:100e700002003700315a78000201e900e00f51000a
:100e8000fcff3a000000060000027800808f50004e
:100e90000800310082824000808f52000500360039
:100ea00002024000456278000201e900fdff3a00bd
:100eb00000000600e00f510003003200315a7800b4
:100ec0000201e900fbff37000000060001002000de
:100ed00090008900a100890015c0b3000401220020
:100ee000054a780000000600040122008042eb0061
:100ef00094cf120002003a0010002000f3ff070018
:100f0000d2e62400631c240090008100a10081002f
:100f10002b0007009403230005002000000242007c
:100f200081824a0094008900a500890005007800ac
:100f300000f0a10000000600889fbe008004780039
:100f4000b0008100e00f500004003a000e000700de
:100f50000084eb00e00f500008003500b80081006d
:100f6000e08f54000500320009004400060007002d
:100f7000e00f500001003d000084eb000800780005
:100f80004f04be0000000600e00f500004003a00cd
:100f900084012200b40089000002780006003700b6
:100fa0000082eb0085412200850f500002003e00c8
:100fb000b00089000002eb00040078000000060089
:100fc000020ab900001bb9000200b800810042000b
:080fd00081004300000006004f
:020000040000fa
:100fd800e00000000fff000087ff0000e0010000b4
:100fe800ffff0000ffff000087ff0000ffff000079
:100ff80087ff0000ffff0000ffff0000ff800000e8
:10100800e000000001ff000087ff0000c0000000b2
:10101800ffff0000ffff000087ff0000ffff000048
:1010280087ff0000ffff0000ffff0000ff800000b7
:10103800e000000000ff000087ff00000000000043
:101048007fff0000ffff000087ff0000ffff000098
:1010580087ff0000ffff0000ffff0000ff80000087
:10106800e0000000007f000087ff000003f00000a0
:101078003fff0000ffff000087ff0000ffff0000a8
:1010880087ff0000ffff0000ffff0000ff80000057
:10109800e1ff0000f03f000087fe00000ff80000ad
:1010a8001fff0000ffff000087ff0000ffff000098
:1010b80087ff0000ffff0000ffff0000ff80000027
:1010c800e1ff0000f83f000087fc00001ffc000063
:1010d8001fff0000ffff0000ffff0000ffff0000f0
:1010e800ffff0000ffff0000ffff0000ff8000007f
:1010f800e1ff0000fc3f000087fc00003ffe00000d
:101108000fff0000ffff0000ffff0000ffff0000cf
:10111800ffff0000ffff0000ffff0000ff8000004e
:10112800e1ff0000fc1f000087f800007fff0000bf
:101138000fff0000ffff0000ffff0000ffff00009f
:10114800ffff0000ffff0000ffff0000ff8000001e
:10115800e1ff0000fe1f000087f800007fff00008d
:1011680007ff0000ffff0000ffff0000ffff000077
:10117800ffff0000ffff0000ffff0000ff800000ee
:10118800e1ff0000fe1f000087f00000ffff0000e5
:1011980087ff0000ffff0000ffff0000ffff0000c7
:1011a800ffff0000ffff0000ffff0000ff800000be
:1011b800e1ff0000fe1f000087f00000ffff0000b5
:1011c8009fff0000ffff0000fffe000003ff00007c
:1011d800ffff000081ff0000ffe00000ff8000002b
:1011e800e1ff0000fe1f000087f00000ffff000085
:1011f800ff870000ffc3000087f8000000ff000021
:1012080087fe0000007f0000e18000003f800000b2
:10121800e1ff0000fe1f000087f00000ffff000054
:10122800ff870000ffc3000087f00000007f000078
:1012380087fc0000003f0000e10000001f80000064
:10124800e1ff0000fe1f000087e10000ffff000033
:10125800ffc30000ff87000087e00000003f000098
:1012680087f80000001f0000e10000000f80000068
:10127800e1ff0000fc1f000087e10000ffff000005
:10128800ffc30000ff87000087e00000f83f000070
:1012980087f000003c0f0000e03e00000f800000d7
:1012a800e1ff0000fc3f000087e10000ffff0000b5
:1012b800ffc30000ff87000087c10000fc3f00005b
:1012c80087f000007e0f0000e07f0000078000002c
:1012d800e1ff0000f83f000087e10000ffff000089
:1012e800ffe10000ff0f000087c30000fc1f0000a3
:1012f80087e00000ff070000e0ff00000780000013
:10130800e1ff0000e07f000087e10000ffff000030
:10131800ffe10000ff0f000087c30000fe1f000070
:1013280087e10000ff870000e0ff000087800000e1
:10133800e0000000007f000087e10000ffff0000e0
:10134800ffe10000ff0f000087c30000fe7f0000e0
:1013580087e10000ff870000e1ff000087800000b0
:10136800e000000000ff000087e10000ffff000030
:10137800ffe00000fe0f000087c30000ffff000031
:1013880087c10000ff830000e1ff000087800000a4
:10139800e000000003ff000087e10000ffff0000fd
:1013a800fff00000fe1f000087c10000ffff0000e3
:1013b80087c30000ffc30000e1ff00008780000032
:1013c800e00000000fff000087e10000ffff0000c1
:1013d800fff00000fe1f000087e00000ffff000094
:1013e80087c30000ffc30000e1ff00008780000002
:1013f800e1ff0000ffff000087e10000ffff0000a1
:10140800fff00000fe1f000087e000003fff000023
:1014180087c30000ffc30000e1ff000087800000d1
:10142800e1ff0000ffff000087e10000ffff000070
:10143800fff800007c3f000087f0000007ff000075
:1014480087c30000ffc30000e1ff000087800000a1
:10145800e1ff0000ffff000087e10000ffff000040
:10146800fff800007c3f000087f8000000ff000044
:1014780087c30000ffc30000e1ff00008780000071
:10148800e1ff0000ffff000087f00000ffff000001
:10149800cff800007c3f000087fe0000003f0000fe
:1014a80087c30000ffc30000e1ff00008780000041
:1014b800e1ff0000ffff000087f00000ffff0000d1
:1014c800c3f80000383f000087ff0000801f0000bd
:1014d80087c30000ffc30000e1ff00008780000011
:1014e800e1ff0000ffff000087f00000ffff0000a1
:1014f80083fc0000387f000087ff0000f81f000011
:1015080087c30000ffc30000e1ff000087800000e0
:10151800e1ff0000ffff000087f00000ffff000070
:1015280087fc0000387f000087ff0000fe0f0000e6
:1015380087c30000ffc30000e1ff000087800000b0
:10154800e1ff0000ffff000087f800007fff0000b8
:1015580087fc0000107f000087e70000ff0f0000f5
:1015680087c10000ff830000e1ff000087800000c2
:10157800e1ff0000ffff000087f800007fff000088
:1015880007fe000010ff000087870000ff0f000023
:1015980087e10000ff870000e1ff0000878000006e
:1015a800e1ff0000ffff000087fc00003fff000094
:1015b8000ffe000010ff000087830000ff0f0000ef
:1015c80087e10000ff870000e1ff0000878000003e
:1015d800e1ff0000ffff000087fc00001ffe000085
:1015e8000ffe000010ff000087c30000ff0f00007f
:1015f80087e00000ff070000e1ff0000878000008f
:10160800e1ff0000ffff000087fe00000ffc000064
:101618001fff000001ff000087c10000fe0f00004f
:1016280087f000007e0f0000e1ff000087800000c7
:10163800e1ff0000ffff000087fe000003f000004c
:101648003fff000001ff000087c00000fc1f0000f2
:1016580087f000003c0f0000e1ff000087800000d9
:10166800e1ff0000ffff000087ff0000000000000e
:101678003fff000001ff000087e00000001f00009e
:1016880087f80000001f0000e1ff000087800000cd
:10169800e1ff0000ffff000087ff0000800000005e
:1016a800ffff000001ff000087f00000003f00007e
:1016b80087fc0000003f0000e1ff00008780000079
:1016c800e1ff0000ffff000087ff0000e0010000cd
:1016d800ffff000083ff000087f8000000ff000004
:1016e80087fe0000007f0000e1ff00008780000007
:1016f800ffff0000ffff0000ffff0000f8070000e9
:10170800ffff0000ffff0000fffe000003ff0000d6
:10171800ffff000081ff0000ffff0000ff800000c6
:10172800ffff0000ffff0000ffff0000ffff0000b9
:10173800ffff0000ffff0000ffff0000ffff0000a9
:10174800ffff0000ffff0000ffff0000ff80000018
:10175800ffff0000ffff0000ffff0000ffff000089
:10176800ffff0000ffff0000ffff0000ffff000079
:10177800ffff0000ffff0000ffff0000ff800000e8
:10178800e000000000000000000000000000000071
:101798000000000000000000000000000000000041
:1017a8000000000000000000000000001f80000092
:1017b80080000000000000000000000000000000a1
:1017c8000000000000000000000000000000000011
:1017d800000000000000000000000000038000007e
:1017e80000000000000000000000000000000000f1
:1017f80000000000000000000000000000000000e1
:10180800000000000000000000000000018000004f
:1018180000000000000000000000000000000000c0
:1018280000000000000000000000000000000000b0
:10183800000000000000000000000000018000001f
:101848000000000000000000000000000000000090
:101858000000000000000000000000000000000080
:1018680000000000000000000000000001800000ef
:101878000000000000000000000000000000000060
:101888000000000000000000000000000000000050
:1018980000000000000000000000000001800000bf
:1018a8000000000000000000000000000000000030
:1018b8000000000000000000000000000000000020
:1018c800000000000000000000000000018000008f
:1018d8008000000000000000000000000000000080
:1018e80000000000000000000000000000000000f0
:1018f800000000000000000000000000038000005d
:10190800ffff0000ffff0000ffff0000ffff0000d7
:10191800ffff0000ffff0000ffff0000ffff0000c7
:10192800ffff0000ffff0000ffff0000ff80000036
:10193800ffff0000ffff0000ffff0000ffff0000a7
:10194800ffff0000ffff0000ffff0000ffff000097
:10195800ffff0000ffff0000ffff0000ff80000006
:10196800ffff0000ffff0000ffff0000ffff000077
:10197800ffff0000ffff0000ffff0000ffff000067
:10198800ffff0000ffff0000ffff0000ff800000d6
:10199800ffff0000ffff0000ffff0000ffff000047
:1019a800ffff0000ffff0000ffff0000ffff000037
:1019b800ffff0000ffff0000ffff0000ff800000a6
:1019c800ffff0000ffff0000ffff0000ffff000017
:1019d800ffff0000ffff0000ffff0000ffff000007
:1019e800ffff0000ffff0000ffff0000ff80000076
:1019f800ffff0000ffff0000ffff0000ffff0000e7
:101a0800ffff0000ffff0000ffff0000ffff0000d6
:101a1800ffff0000ffff0000ffff0000ff80000045
:101a2800fff00000000000000000000000000000bf
:101a3800000000000000000000000000000000009e
:101a4800000000000000000001ff0000ff8000000f
:101a5800ffe000000000000000000000000000009f
:101a6800000000000000000000000000000000006e
:101a7800000000000000000000ff0000ff800000e0
:101a8800ffe000000000000000000000000000006f
:101a9800000000000000000000000000000000003e
:101aa800000000000000000000ff0000ff800000b0
:101ab800ffe000000000000000000000000000003f
:101ac800000000000000000000000000000000000e
:101ad800000000000000000000ff0000ff80000080
:101ae800fff00000000000000000000000000000ff
:101af80000000000000000000000000000000000de
:101b0800000000000000000001ff0000ff8000004e
:101b1800ffff0000ffff0000ffff0000ffff0000c5
:101b2800ffff0000ffff0000ffff0000ffff0000b5
:101b3800ffff0000ffff0000ffff0000ff80000024
:101b4800ffff0000ffff0000ffff0000ffff000095
:101b5800ffff0000ffff0000ffff0000ffff000085
:101b6800ffff0000ffff0000ffff0000ff800000f4
:101b7800ffff0000ffff0000ffff0000ffff000065
:101b8800ffff0000ffff0000ffff0000ffff000055
:101b9800ffff0000ffff0000ffff0000ff800000c4
:101ba800ffff0000ffff0000ffff0000ffff000035
:101bb800ffff0000ffff0000ffff0000ffff000025
:101bc800ffff0000ffff0000ffff0000ff80000094
:101bd800ffff0000ffff0000ffff0000ffff000005
:101be800ffff0000ffff0000ffff0000ffff0000f5
:101bf800ffff0000ffff0000ffff0000ff80000064
:101c0800ffff0000ffff0000ffff0000ffff0000d4
:101c1800ffff0000ffff0000ffff0000ffff0000c4
:101c2800ffff0000ffff0000ffff0000ff80000033
:101c3800ffff0000ffff0000ffff0000ffff0000a4
:101c4800ffff0000ffff0000ffff0000ffff000094
:101c5800ffff0000ffff0000ffff0000ff80000003
:101c6800ffff0000fff80000000000000000000077
:101c7800000000000000000000000000000000005c
:101c880000000000007f0000ffff0000ff80000050
:101c9800ffff0000fff80000000000000000000047
:101ca800000000000000000000000000000000002c
:101cb80000000000007f0000ffff0000ff80000020
:101cc800ffff0000fff80000000000000000000017
:101cd80000000000000000000000000000000000fc
:101ce80000000000007f0000ffff0000ff800000f0
:101cf800ffff0000ffff0000ffff0000ffff0000e4
:101d0800ffff0000ffff0000ffff0000ffff0000d3
:101d1800ffff0000ffff0000ffff0000ff80000042
:101d2800ffff0000ffff0000ffff0000ffff0000b3
:101d3800ffff0000ffff0000ffff0000ffff0000a3
:101d4800ffff0000ffff0000ffff0000ff80000012
:101d5800ffff0000ffff0000ffff0000ffff000083
:101d6800ffff0000ffff0000ffff0000ffff000073
:101d7800ffff0000ffff0000ffff0000ff800000e2
:101d8800ffff0000ffff0000ffff0000ffff000053
:101d9800ffff0000ffff0000ffff0000ffff000043
:101da800ffff0000ffff0000ffff0000ff800000b2
:101db800ffff0000ffff0000ffff0000ffff000023
:101dc800ffff0000ffff0000ffff0000ffff000013
:101dd800ffff0000ffff0000ffff0000ff80000082
:101de800ffff0000ffff0000ffff0000ffff0000f3
:101df800ffff0000ffff0000ffff0000ffff0000e3
:101e0800ffff0000ffff0000ffff0000ff80000051
:101e1800ffff0000ffff0000ffff0000ffff0000c2
:101e2800ffff0000ffff0000ffff0000ffff0000b2
:101e3800ffff0000ffff0000ffff0000ff80000021
:101e4800ffff0000ffff0000ffff0000ffff000092
:101e5800ffff0000ffff0000ffff0000ffff000082
:101e6800ffff0000ffff0000ffff0000ff800000f1
:101e7800ffff0000ffff0000ffff0000ff800000e1
:101e8800000000000000000000000000000000004a
:101e98000fff0000ffff0000ffff0000ff800000b1
:101ea800ffff0000ffff0000ffff0000ffff000032
:101eb800ffff0000ffff0000ffff0000ffff000022
:101ec800ffff0000ffff0000ffff0000ff80000091
:101ed80000000000000000000000000000000000fa
:101ee80008080000080800000800000008000000ba
:101ef800141400001400000000000000000000009e
:101f0800141400003e1400003e14000014000000e9
:101f1800081e0000281c00000a3c00000800000001
:101f280030320000040800001026000006000000ff
:101f380018240000281000002a2400001a000000bd
:101f48001808000010000000000000000000000059
:101f58000408000010100000100800000400000031
:101f6800100800000404000004080000100000002d
:101f7800000800002a1c00002a08000000000000d9
:101f880000080000083e00000808000000000000eb
:101f98000000000000000000180800001000000009
:101fa80000000000003c00000000000000000000ed
:101fb80000000000000000000018000018000000e9
:101fc80000020000040800001020000000000000cb
:101fd8001c220000262a0000322200001c000000fb
:101fe8000818000008080000080800003e0000006b
:101ff8001c22000004080000102000003e00000021
:102008003c020000023c0000020200003c0000000c
:10201800040c0000142400003e040000040000002a
:102028003e200000203c0000020200003c000000ae
:102038000c100000203c0000222200001c000000c0
:102048003e0200000408000010100000100000000c
:102058001c220000221c0000222200001c0000009c
:102068001c220000221c0000020200001c000000cc
:1020780000180000180000001818000000000000f8
:1020880000180000180000001808000010000000e8
:1020980004080000102000001008000004000000e0
:1020a800000000003e0000003e00000000000000ac
:1020b80010080000040200000408000010000000de
:1020c8001c220000020400000800000008000000b4
:1020d8001c220000021a00002a2a00001c0000002e
:1020e8001c220000223e00002222000022000000e4
:1020f8003c220000223c0000222200003c0000009c
:102108001e20000020200000202000001e000000eb
:102118003c22000022220000222200003c00000095
:102128003e200000203e0000202000003e0000006d
:102138003e200000203e000020200000200000007b
:102148001e200000202c0000222200001c0000009d
:1021580022220000223e000022220000220000006d
:102168001c08000008080000080800001c00000007
:102178001e020000020200000224000018000000f5
:10218800222400002830000028240000220000003b
:102198002020000020200000202000003e00000039
:1021a800223600002a22000022220000220000001d
:1021b80022220000322a000026220000220000000d
:1021c8001c22000022220000222200001c00000025
:1021d8003c220000223c00002020000020000000db
:1021e8001c220000222200002a2600001e000000f7
:1021f8003c220000223c00002824000022000000ad
:102208001e200000201c0000020200003c0000000c
:102218003e08000008080000080800000800000048
:102228002222000022220000222200001c000000be
:1022380022220000222200002214000008000000d0
:1022480022220000222a00002a3600002200000074
:1022580022220000140800001422000022000000be
:1022680022220000221400000808000008000000d4
:102278003e04000008100000202000003e0000007e
:1022880018100000101000001010000018000000c6
:1022980000200000100800000402000000000000f8
:1022a8000602000002020000020200000600000010
:1022b80008140000220000000000000000000000d8
:1022c8000000000000000000000000003e000000c8
:1022d80010080000040000000000000000000000da
:1022e800000000001c0200001e2200001e0000006a
:1022f80020200000202c0000322200003c000000ba
:10230800000000001c200000202200001c0000002b
:1023180002020000021a0000262200001e0000002f
:10232800000000001c2200003e2000001c000000ed
:102338000c120000103800001010000010000000ff
:10234800000000001e220000221e0000021c0000e7
:10235800202000002c320000222200002200000071
:10236800000800000008000008080000080000003d
:10237800040000000c040000042400001800000001
:10238800202000002428000030280000240000003d
:102398001808000008080000080800001c000000d9
:1023a80000000000342a00002a2200002200000059
:1023b800000000002c320000222200002200000051
:1023c800000000001c220000222200001c00000067
:1023d800000000003c220000223c000020200000f9
:1023e800000000001a240000242c0000140600003d
:1023f800000000002c320000202000002000000017
:10240800000000001c2000001c0200003c0000002e
:102418001010000038100000101200000c0000001e
:102428000000000022220000222600001a000000fe
:102438000000000022220000221400000800000012
:1024480000000000222200002a2a000014000000d8
:102458000000000022140000081400002200000000
:102468000000000022220000221e0000021c0000c2
:10247800000000003e040000081000003e000000bc
:1024880008100000102000001010000008000000d4
:1024980008080000080800000808000008000000fc
:1024a80010080000080400000808000010000000e0
:1024b80000000000102a00000400000000000000d6
:1024c8003e22000022220000222200003e000000de
:1024d80020200000202000002020000020200000f4
:1024e80001010000010100000101000001010000dc
:1024f8003f200000202000002020000020200000b5
:102508003f0100000101000001010000010100007d
:10251800202000002020000020200000203f000094
:10252800010100000101000001010000013f00005d
:10253800000c00001e3f00003f1e00000c000000c1
:102548000e1b00003e3c00003e3f00001e00000045
:102558001c3600001f0f00001f3e00001e00000078
:10256800213b00002f3f00001e0c00000c00000063
:102578000c0c00001e3f00002f3b00002100000053
:102588000000000018250000020000000000000004
:102598000402000004080000080400000000000015
:1025a80000000000021700002f07000002000000d2
:1025b8002a2a00002a2a00002a2a00002a2a0000c3
:1025c8002a2a00002a2a00002a2a00000d000000fa
:1025d8002a200000534e0000414b00004520000017
:1025e800474100004d450000202a00000d00000072
:1025f8002a2a00002a2a00002a2a00002a2a000083
:102608002a2a00002a2a00002a2a00000d0d0000ac
:102618000045000061740000696e0000672000003a
:10262800612000006d6f00007573000065200000d8
:10263800696e000063720000656100007365000048
:10264800207300006e6100006b650000206c0000c4
:10265800656e000067740000682e00000d00000021
:10266800536e0000616b0000652000006275000079
:10267800726e00002031000030250000206f00003d
:10268800662000006973000020630000616c000090
:102698006172000069650000732f00007365000017
:1026a800632e00000d000000446900006520000052
:1026b8006f660000207300007461000072760000ed
:1026c80061740000696f00006e20000077680000e8
:1026d800656e000020630000616c00006f720000ee
:1026e80069650000733d0000302e00000d000000f9
:1026f80045610000746900006e67000020610000f9
:10270800206d00006f7500007365000020670000f1
:102718006976000065200000323000002063000068
:10272800616c00006f72000069650000732e000084
:102738000d00000044690000652000007768000073
:10274800656e00002068000069740000746900006c
:102758006e67000020770000616c00006c2e00009e
:102768000d00000044690000652000007768000043
:10277800656e000020620000697400007469000042
:102788006e67000020680000697300002074000074
:10279800616900006c2e00000d0d0000005500005e
:1027a8007365000020410000525200004f5700009e
:1027b80053200000746f0000206300006f6e00005b
:1027c800747200006f6c0000207300006e610000de
:1027d8006b6500002e0d000000630000616c0000b6
:1027e8006f72000069650000733a00002000000065
:1027f80000000000f19300006c69000066650000ad
:1028080073700000616e00003a20000000000000b4
:102818001000000000940000676100006d65000072
:10282800206f00007665000072000000060d0000b1
:10283800109400007072000065730000732000009f
:10284800535400004152000054200000746f0000ef
:102858002062000065670000696e0000000000004b
:10286800081400001e94000058200000746f000037
:102878002071000075690000742000006761000085
:102888006d6500002e000000081500003894000057
:102898006469000065640000206f00006620000085
:1028a80073740000617200007661000074690000b2
:1028b8006f6e000000000000060e00004c9400003f
:1028c8006469000065640000206f00006620000055
:1028d800776100006c6c0000206300006f6c0000e2
:1028e8006c690000736900006f6e00000000000052
:1028f800060e00006494000064690000656400002e
:10290800206f00006620000074610000696c000000
:102918002062000069740000652e000000000000bd
:10292800060e000080940000436f000070790000dc
:1029380072690000676800007420000032300000ef
:10294800313400002c2000004a610000637100004f
:102958007565000073200000446500007363000083
:10296800686500006e6500007300000053450000b4
:102978004c4500004354000020470000414d000032
:1029880045000000736e0000616b000065200000c8
:102998007465000078740000206d00006f6400000a
:1029a80065000000676100006d65000020320000ce
:1029b80000670000616d0000652000003300000022
:020000040000fa
:1029c800740d2000848f500025003c00840f5000b7
:1029d80023003c00840020008102780011000900d7
:1029e8000400d8008102fd00e782120016002000d2
:1029f8008532dd00860f51000c003200e20f5100d5
:102a080011003200e00f510015003a000780200045
:102a18007b09b900820040000182430085c2ea00b8
:102a2800e7c3780007ca62000d003700068020005f
:102a38007b09b900820040000102430066c37800a8
:102a480006ca720006003700068020007b09b9001c
:102a5800820040000102430066c3780006ca6a008b
:102a680000000600ea874700889fbe008a9fbe00d4
:102a78008c9fbe008e1f7800000478000105780046
:102a880082057800f3b79f00040678000c017800ef
:102a98008a00780008007800c9ff07007fb2970015
:102aa800840f550012003a008b0f540003003d00bc
:102ab8001900200008844400040037008084eb00db
:102ac8008b0f5400fbff3a004b0037000c017800d5
:102ad8008a00780008007800b9ff0700090444005c
:102ae80009025400848f5500f8ff3a00420037006d
:102af8008b0f540010003a008084eb00ffb297005f
:102b0800850f550001003d00190020000a8544008a
:102b18000c0178008a00780008007800a8ff0700f8
:102b28000905450009025500ffb29700848f52003d
:102b3800f7ff3a0030003700088755000ef0a7006d
:102b48000e07ea00ffb297000a82520004f0a700bd
:102b58000402ea0084bf9f000082eb00e4b79f00f4
:102b68008b0f540002003d0015002000e5b79f00c0
:102b78000082eb00d4b79f00ffb29700850f550085
:102b880002003d0014002000d4b79f008fba9700c0
:102b9800850457008506ea00010037000b04780019
:102ba800098244008d0f5200050034000fba9700c7
:102bb80084845400efb297000504440005003700f0
:102bc800840f5700030034008e8444005fb29700de
:102bd800040545000c0178008a0078000800780098
:102be80077ff07008b0f5400edff3a00ffb2970004
:102bf800850f5500e9ff3a004f0778004f06be00e1
:102c08004f05be004f04be00af00b1000000060033
:102c1800889fbe008a9fbe008c1f780080047800c1
:102c2800010478000205780003067800840578001e
:102c380009017800880078000900780089ff0700fa
:102c48000b0278008c0178000a017800880078006f
:102c58000a00780083ff07000b02780088017800db
:102c68000a01780088007800090078007dff0700d5
:102c78000b0278008c0178000a0178008c0078003b
:102c88000900780077ff07004f0678004f05be005f
:102c98004f04be00000006006f03b000889fbe000e
:102ca8008a9fbe008c9fbe008e1f780090af9f0049
:102cb800e1af9f000405be0006077800029ab9003c
:102cc800040242000210b800a0af9f00b1af9f00fd
:102cd80081004200b1af9f002fa99700bfa99700bc
:102ce8000202550083825d000aabb90004d8b9001e
:102cf800060340000a22b800850243000203be0012
:102d0800e00f5100e08f590002003d0063034100cd
:102d1800e0834900ce39dd004233de0006837100ce
:102d2800c2bbde000404430085844b00b8b79f0093
:102d3800c9b79f000adab900040242000a50b80075
:102d4800d0a79f00e1a79f0081004200e1a79f0054
:102d58005fa19700efa1970002014100838149001c
:102d680092a79f00a3a79f002faa9700bfaa97002a
:102d78000402420085824a00d4b79f00e5b79f004d
:102d8800e4ff2f003fab970004b2b900afab970048
:102d980007025200e5ff2f00afac9700054cb800c2
:102da800c8af9f00d9af9f0089044200d9af9f00e8
:102db800f2a79f0083af9f001400200005002000a9
:102dc800f4b79f0085bf9f006066b8009faa970070
:102dd8008502e900c5a79f001fab97000603e8001e
:102de800b6a79f00fa9f9f008ba79f00500037004f
:102df8006fa897000a005000f0af9f007fb49700bb
:102e0800cfa097008880400091b79f000e017800fe
:102e1800800078001fb09700e9fe07006fa99700af
:102e280082044500bfa19700088451000e01780074
:102e38000800be00e2fe07000e0178008900780055
:102e48001fb09700defe07000e017800ffa897006c
:102e580008007800dafe07003fb29700cfb297006b
:102e6800e00f5200e08f5a000d003d005fa497006c
:102e7800efa497000402440085824c007fa09700cd
:102e88008fa897000c0340008d834800060142007c
:102e980087814a00b2b79f00c3b79f001a00370066
:102ea80061055500e0855d003fb29700cfb29700fd
:102eb8005fa49700efa497000403440085834c00a7
:102ec800cfac970009dab9005fa997000a90b9005a
:102ed80004004000cfa997000352b80085024000c3
:102ee8000602420087824a007fa497008fac9700b1
:102ef8000c0344008d834c000600420087804a0082
:102f0800b0b79f00c1b79f007fa197008fa9970016
:102f18000c0641008d8649007fb297008fba970052
:102f280061024200e0824a00f4b79f0085bf9f001b
:102f38007fb397008fbb970061005300e0805b0070
:102f4800dfb3970007dab9006fb497000ac3b90076
:102f580004034300dfb497000952b8008502430018
:102f68008c0f52008d8f5a00a1ff3c000a01be0051
:102f78009ab79f00abb79f00f0af9f0081b79f0043
:102f88007f9d97008fa597000006be00e00f5100b7
:102f9800e08f5900b80035000a00be00f0f50700c0
:102fa8000004be001fb39700afb39700610353003e
:102fb800e0835b00f6b79f0087bf9f000c00be0050
:102fc800e7f507000200200003f0230066f507007c
:102fd8000001be0038f607000801be0036f60700fb
:102fe8000001be000800be0033f607000004be0062
:102ff8008fbb97007fb0970000bab9000402420067
:10300800ffb09700d1b79f00010178000210b80007
:1030180081004200afa99700038bb9003fa9970030
:103028000092b900060242002fad97000a00b800ce
:1030380081004200caf507000001be000800be007a
:1030480049f507000004be00bfa997005fa29700da
:10305800049bb9006fa09700afa897000182b90040
:10306800060242005fa197000250b80081004200aa
:10307800bbf507000001be000800be0039f50700d7
:1030880096f507000005be001fb69700afb697007b
:103098004faa9700dfaa970060021200e0821a0088
:1030a80094b79f00a5b79f00dfaa97007fb4970049
:1030b80008abb9008fbc97004fa8970000cab900a9
:1030c80006024200cfa997005fb197000219b80025
:1030d800b2b79f00c3b79f0083014200c3b79f00e8
:1030e8003fb29700cfb29700d4b79f00e5b79f00d3
:1030f8009fa29700c5af9f00fab79f008bbf9f00a4
:10310800efab97008c8553007fac97001fa8970002
:10311800000544000e0178000a00be0028fe0700e2
:10312800efa897008c8440001fa99700080451005d
:103138000e0178000800be0021fe07000e0178008d
:10314800890078000a0078001dfe07000e0178004b
:103158008b0078000800780019fe07007fb29700fe
:103168008fba9700e00f5200e08f5a000f0034002a
:1031780061025600e0825e007fb497008fbc970022
:103188002fa89700bfa8970008034000898348002c
:103198005fb19700efb197000201430083814b00b4
:1031a800f2b79f0083bf9f002000370061025600de
:1031b800e0825e007fab97008fb397006103430006
:1031c800e0834b00f6af9f0087b79f007fb497005e
:1031d8008fbc97002fa89700bfa897000001540044
:1031e80081815c00afa3970006b8b9000fb49700bf
:1031f8009fa4970009c3b90000004300cfa8970017
:103208007fac9700080bb800870340000203430017
:1032180083834b003fb09700cfb097000000430076
:1032280081804b00f0b79f0081bf9f006106560068
:10323800e0865e005fb19700efb197001fb397007b
:10324800afb397000201430083814b00d2b79f00c0
:10325800e3b79f003fb49700cfb49700080443003a
:1032680089844b00b8b79f00c9b79f00e00f520090
:10327800e08f5a00a2ff3d004f0778004f06be00be
:103288004f05be004f04be006f03b10000000600ea
:10329800889fbe008a9fbe008c1f780000067800b9
:1032a800820578000105e9000a0545008004eb0065
:1032b800890f55000b0034000c0478002801900099
:1032c800980090000b027800b80190001800780070
:1032d800e4fd07008984e80064044400890f550070
:1032e800f6ff3c008902e800858242008984440098
:1032f8009c0090000b027800ec817a006c817c00c5
:103308001c007800d7fd07004f0678004f05be0067
:103318004f04be0000000600e4874700889fbe00f7
:103328008a9fbe008c9fbe008e1f780080bf9f00c2
:10333800018741008e8f5000350035003c00370072
:103348008682420004003700820378008fba970013
:103358007b68b90000067800110009008302d800d4
:1033680000047800e78062000a40780003037800d0
:103378000600320001037800110009008302d8001a
:103388000103fd0006d8de0068031300870f530011
:103398000400340007035300065bdd0006406000ac
:1033a80007037800e10f52000a003200e20f5200d2
:1033b8000d003200e00f52000f003a0008044600ea
:1033c8008880440000c0ea0069447c0088486000a6
:1033d80009003700080446008880440069447c00de
:1033e80088487000040037000804460088804400bc
:1033f80069447c008848680086835300d0ff3a00ff
:103408008d06e8008e8f560006003500080037004c
:103418008106780083002000fb0f2000098020002f
:1034280000c5eb00e00f5100c7ff3a00f4ff37007a
:103438004f0778004f06be004f05be004f04be0080
:103448004f00b10000000600ee874700889fbe00cd
:103458008a9fbe008c9fbe008e1f7800b0b79f0069
:10346800e2b79f0086002000809fbe00110009007f
:103478000601d800000178004f00be00d2b79f00b7
:10348800efb3970067836300020032000201e8008f
:10349800d2b79f0081814100c3b79f00838f50003e
:1034a8007000350078003700060242000600400030
:1034b80007003700efb397003fb297000000eb001a
:1034c8007fb497007b41b9008204780089bf9f00d0
:1034d80000057800110009000502d8000005fd006c
:1034e800670162008e40780005037800080032000a
:1034f800801f7800110009000502d8000103780038
:103508004f007800f20f20008690de006803130059
:10351800870f53000500340007035300f30f200002
:10352800061bdd0086c060000703780000047800f1
:1035380081017800110009000500d8000004fd0091
:103548008101fd006b417c000281fb000311dd005d
:10355800e704600006003200088445001844900023
:103568000884fb00e881110083c1de00034171007b
:103578000281fb00801f780081017800110009009a
:103588000502d8008101fd004f0078000391de009c
:10359800014161003800200009002000880f560012
:1035a800898f5e0024003e000c6001000300370094
:1035b8000b00370011003700190037008fbc970047
:1035c8000a854400088020008a01440081c0ea007e
:1035d80068447d0088c0600081497100160037008a
:1035e8008fbc97000a854400038020008a80410030
:1035f800e3417d00834871000f0037000fbc97003e
:103608000a054400098020000a84440081c0ea00b9
:103618008140710069417d0002cc600006003700de
:103628008fb897000a854000038020008a804100f7
:10363800e3417d0083486900868353009aff3a007e
:103648007fb297000402e800f4b79f004fb39700d9
:10365800840f53000c003400dfb3970087854500c2
:103668000500370085057800f1b79f008500200028
:103678006126b80000c7eb006fb49700e00f540054
:103688008cff3a00eeff37004f0778004f06be0068
:103698004f05be004f04be00ef00b1000000060059
:1036a800889fbe000004be00c800de000880fb0042
:1036b800cf03070009007800500307004f04be003d
:1036c80000000600889fbe008a1f780009022000bb
:1036d8002aee210002f60700010478001100090013
:1036e8000900d8000104fd000884e800fcf5070083
:1036f80084012000110009000400d8008180e8003e
:10370800c0f68000e00f5000100032000a02780076
:103718008002eb00144178000283fb00880f5300fd
:1037280004003a00144390000683fb00810f530005
:10373800040032008502e80063024200808f5200d4
:10374800f4ff3900850f5000e2ff3a0008007800c6
:10375800a2ffb70001007800a3ffb7008180fb003b
:103768000880fb00a2030700a4dfbf00980207003f
:103778004f0578004f04be0000000600889fbe0079
:103788008a1f7800c4f68000e00f52000f00320054
:1037980038ee21008004eb000ac2b300184278001a
:1037a8008480fb0078f897000080fb0090030700f6
:1037b8000a407800860207008904e8006304440090
:1037c800c4f68000890f5200f4ff3e004f057800d0
:1037d8004f04be0000000600889fbe00c4f68000ab
:1037e800e00f52000e00320038ee21008004eb009a
:1037f800184278008480fb0078f897000080fb006e
:103808007b03070018409000710207008904e80054
:1038180063044400c4f68000890f5200f4ff3e00a0
:103828004f04be0000000600889fbe00a0a18400cf
:10383800b1a184009aff070040a2840051a284002d
:1038480097ff0700180020000920200008007800d2
:10385800a70707006802600004003a00090060003a
:10386800faff32000000eb000100370010002000d2
:103878004f04be0000000600889fbe008a9fbe005d
:103888008c1f7800d4ff0700c4f680008404e90088
:10389800190033008a0c20000aa5b900634bb9004f
:1038a80034ee2100040443000bc2b300ac0f200027
:1038b800184278008480fb0078f897000080fb00ad
:1038c8004b0307000b407800410207008c0078008a
:1038d8000a0078007605070050f680004200de00f6
:1038e800c70407004a06b1008904e90063045400cc
:1038f800e08f5400eeff3d004f0678004f05be00f4
:103908004f04be0000000600881f780000047800fd
:10391800d9ff0700d0a08400e1a0840060ff070061
:10392800e10f54000800320003003900e20f540090
:103938000c003a000800370000a3840011a384009b
:1039480057ff070007003700e0a38400f1a38400b5
:1039580053ff070003003700a0a48400b1a484002b
:103968004fff070014c0b3000002fd00fcffb700c2
:103978000002fd00acff0700e00f500001003a0014
:10398800a63fef004f04780000000600da3eb400be
:10399800e09f8400f19f840041ff07001100200090
:1039a800d0f68000ba02070000000600e10f5000c0
:1039b80001003e0020002000da3eb500e09f8400b0
:1039c800f19f840036ff0700e8020700110020007d
:1039d800d0f68000ae02070060a0840071a08400c9
:1039e8002fff070011002000e0f68000a802070062
:1039f80062ff0700d4f68000e00f52000a00320090
:103a080045012000809fbe00110009000582d800f2
:103a1800000278004f00be000482e800c4f6880067
:103a28006dff0700020037000000eb00b6ff07003b
:103a38000000060024ee21001442780025fa210037
:103a48009542780084cf52006a003a0034ee210093
:103a58001442780035fa21009542780084cf52004c
:103a680064003a0040012000c8ff0700c4f6800047
:103a78008402e800c5f688006323b90061c8b30072
:103a880040ee210001707b00f6f68000e00f530045
:103a98002d0032008582e9006328b90027ee210055
:103aa800870340001740900037ee210097437800c5
:103ab800874f50000c003a006320b90024ee210023
:103ac800000242006328b900ea02400087ed2100a5
:103ad80067c07a00064a50008582430095429000ec
:103ae80015429800420037006320b900632bb900e3
:103af800ea02430086ed2100ea03430066c17a002a
:103b080082737800850243009542900036ee2100ca
:103b180016437800854f53000500360024ee210037
:103b2800000242008542e900154298003000370043
:103b38006323b90024ee2100060242008542e80012
:103b4800154298002a0037008582e900632bb900e6
:103b58006a03430087ed2100e7437b0026ee21003e
:103b68001643780086cf53000c003a006320b90052
:103b780024ee210000024200074a78006328b900b9
:103b880026ee2100860240001543900005f78000cc
:103b98008542530015429800150037006320b9008c
:103ba80027ee2100008043006329b900ea024100a2
:103bb80087ed2100858043009140900011409800d6
:103bc800e7c27a00854f5300050036006323b90029
:103bd80024ee210006024200054ae90004003700ed
:103be8006323b90024ee210006024200054ae800da
:103bf800b4fe070000000600c7f680000000eb00d6
:103c0800e18f530011003600e2debf0031ee2100e3
:103c18009140780054ee210015002000944f500088
:103c280003003a001443900086cf5000060032008b
:103c38008502e80063024200858f5300f7ff3e00cb
:103c48000000eb0001003700100020000000060013
:103c5800f4f68000e00f520003003a0004f78000f9
:103c6800e00f52002f003200c4fe0700c4f68000a7
:103c7800e10f52000c0032000482e9006323b9000e
:103c880024ee210004024300f5ed210014437800de
:103c9800364298001443900046429800630252004e
:103ca800850f5200f9ff3a00f5f6800024ee210056
:103cb80094c242008002fd00e2feb7008002fd00cf
:103cc80004f7800036ee2100164242000002fd0093
:103cd800e3feb7000002fd008542e90016c2b3000a
:103ce80086cf520004003e00e14f52000200360029
:103cf800f94f5200030036001000200002ff0700b1
:103d080008003700bcff0700e00f50000300320036
:103d180020002000fcfe07000200370045ff0700d6
:103d2800adfe070000000600ad010700c02d290008
:103d3800b2010700c02e2900b0010700c02f2900da
:103d4800ae010700d0302900ac010700403329003c
:103d5800aa01070080352900a8010700c0372900fb
:103d6800a6010700e0392900a4010700603b2900eb
:103d7800a2010700303d2900a0010700aafe0700a4
:103d880030fd880000000600881f7800fc7fef00e7
:103d98000000eb00e6f107004af407000004eb001e
:103da800f8f6880008f7880024002000c4f6880088
:103db80044012000d4f68800e8f68800c4c0b300a7
:103dc8000002fd00e2feb700e3feb7000002fd00be
:103dd80075c8b3008002fd00e4feb7008002fd0054
:103de800b5c0b3008002fd00e5feb7008002fd000b
:103df8000002fd00e6feb7000002fd0064c8b30043
:103e08000002fd00e7feb7000002fd006742420025
:103e18000002fd00a4ffb7000002fd0070010700ca
:103e2800e09f8400f19f84001dfe07001100200020
:103e3800d0f680009601070060a0840071a084007d
:103e480017fe070011002000e0f68000900107002f
:103e580014002000730d2000030178008100200069
:103e6800080078006afb070016fe07005afe0700e4
:103e78004f04780000000600889fbe008a1f780063
:103e8800a9ff0700c0ff07000004eb00090220009b
:103e9800aac8b30056003700a00020005803070046
:103ea8006a04440054f68000809fbe001100090097
:103eb8000484d800010278004f00be00e00f5200d1
:103ec8000e003a00dc3eec00d0f68000a400200092
:103ed800811f7800110009000480d800cf00780005
:103ee800b2fe070014002000730d200003017800c3
:103ef800810020000000eb0045fb070010002000b7
:103f0800fb050700890f50002a00320003003e001d
:103f1800f00f500030003a001c0037000404200065
:103f2800840f50000400320004082000840f500061
:103f380029003a000a003700f4f68000e10f520029
:103f480025003200debeef00e03eef0084c8b3007b
:103f58000002fd00e4feb7000002fd001e0037006d
:103f6800f4f68000e10f42001b003200140020002c
:103f7800f4f68800e03eef0074c8b3000002fd00cc
:103f8800e4feb7000002fd001300370004f78000cc
:103f9800e10f520010003200e0beef00de3eef00fd
:103fa80094c8b3000002fd00e4feb7000002fd0063
:103fb8000900370004f78000e10f420006003200d4
:103fc8001400200004f78800de3eef000005fd0025
:103fd800e4feb7000005fd001dff0700c4ff210037
:103fe80014427800e04f52000100320066ff0700db
:103ff80034fd8000e00f5200a7ff3a00f8000700e8
:104008004f0578004f04be000000060084ff8000c2
:10401800c5a2de00670262006202120014003b00c3
:104028000403ea001200320090ff8000670040009d
:10403800048020007b00b900850040000101420097
:10404800f703200086b9de00e4c0780003c96800e1
:104058008502e8008502400005004200680313005d
:10406800863bdd0064c27a0007486a000a00370010
:1040780090ff800067004000068020007b00b900a8
:104088008082420085034300f00320000402dd0023
:10409800e6c27a0084cb6a0000000600025f2100b5
:1040a800818d20000080200075f3070004df2100c7
:1040b800d7000900005aeb0000000600025f21004b
:1040c80001802000800d2000010040006cf30700f3
:1040d80004802000d7000900005aeb000000060009
:1040e80084ff80006602420084ff8800250d2000be
:1040f800850f52000a003600f03fef0094ff800061
:104108006802420094ff8800e6824200850f520050
:1041180003003600e1ff070080ff2f00f23fb400e4
:104128000000060084ff8000e50f520003003600ff
:104138006602520084ff880009003700c40c200082
:1041480084ff880094ff8000e70f520003003600c8
:104158006802520094ff880001003700d7ff07006b
:104168000000060094ff8000e70f520003003600ad
:104178006802520094ff880001003700cfff070053
:104188000000060094ff8000850c2000850f520077
:1041980003003e006802420094ff880001003700d7
:1041a800beff070000000600f03fef0094ff80000c
:1041b800050d2000850f520002003a00b7ff0700e6
:1041c800020037006802420094ff880000000600e1
:1041d800e6874700889fbe008a9fbe008c9fbe006e
:1041e8008e1f780083ff800099ff8000e94f500000
:1041f80007003200ed4f500003003200e84f500036
:104208001b003a0018003700e7ff07006e00370070
:10421800e4ff2100144278000482fb00809fbe0066
:10422800110009008481d800010278004f00be0007
:104238008301420083ff8800140d2000848f510001
:1042480061003600f03fef000402e900848f54005b
:1042580002003a0091ff07005b003700e884440041
:1042680099ff880058003700aeff07005600370056
:1042780006ceb30006434000d4c6b300844f5300b3
:1042880051003e00c39ede00e7816100e28111001b
:104298004f9ade008300ea008480600062ff80009d
:1042a80064016100fa03200001d6de006884100072
:1042b8008855dd000cc2ea0084f79f000bc7ea00ae
:1042c800feef9f000355dd000ac2ea00e4ef9f00fd
:1042d8008903e8007b4ab900840278000d82420015
:1042e80000802000000242000683fb004337dd0007
:1042f800c6f62800060347008d06e8008d824200b6
:104308008082420069804400e08f5000180032002b
:10431800e00f51000b003200964678008d84fb00b8
:1043280001cfde000ec7ea00944676000d4a67000a
:10433800884cdd0089c4ea0095c675008dca640002
:104348001a003700164778008e84fb008ff6970016
:1043580014c7660081cede000d4a77007fef970014
:1043680095466700884cdd0089ca76000f00370043
:10437800e00f510007003200964478008986fb0060
:10438800836edd008dc6ea009444750009ca660094
:10439800060037006fef97009446670016477800cd
:1043a8008e84fb00834cdd0009ca76008703e80091
:1043b8007b0242000603e800fb824200808f530024
:1043c800d1ff3a0046ff07004f0778004f06be00ae
:1043d8004f05be004f04be006f00b100000006008c
:1043e80004802000c7160900005aeb000002eb0009
:1043f80084ff880094ff880000000600881f78006a
:104408000004780018407800e04f500004003200a3
:104418006fff070058407800e04f5000fcff3a005b
:104428004f047800000006000c00fa000042eb0080
:10443800f4ff9f000183fb000f82e9000c003700a6
:10444800ef426000054a7800e9cf520003003c00c3
:1044580007c3b30007ca42000200370077c3b3009e
:1044680007ca42004400de000402e9000603e9002e
:10447800e00f5300f2ff3d00e00f5000f0ff3a005c
:104488000400e800ddff07000080fa0000000600d5
:104498000e00fa000042eb00f4ff9f00ed8f500081
:1044a80001003600d10020000001eb00820f50000f
:1044b80002003d000000ea0012002000810278009e
:1044c800e00f50000d0034000f82e900a600200024
:1044d80081037800110009000600d8008103fd005f
:1044e80003c3b30003d24300840378008502e900c4
:1044f800e00f5000f6ff3c00010037008f83e90011
:10450800858f500003003a0004c3b3008453780039
:104518008502e900e08f520007003400058053004f
:104528000702780006c2b30006527800800f5200d6
:10453800fdff3a0085835300e00f5100030032006d
:10454800d4c2b300844b78000200370004c2b30021
:10455800844b780007007800a8ff07000080fa0065
:1045680000000600feffb70000000600889fbe009e
:104578008a9fbe008aff80009bff8000540c2000a9
:10458800840f550007003e0008c2b3008404780079
:10459800084078000eff070084ff8000890f520052
:1045a800fbff360000c2b30009ff07008aff88003e
:1045b8009bff88004f05be004f04be0000000600a8
:1045c80085ff800064002000801f7800110009002a
:1045d8008482d800000278004f0078000408780030
:1045e80094ff80004322de001400980000000600bb
:1045f80024022000840f500006003e00fa8f50006d
:1046080004003e006602b90084ff8800c308dd008c
:1046180091ff880000000600889fbe0081ff80008f
:1046280097ff8000438ade00e7806000e280100088
:10463800cf8ade000103ea0005036300f5032000ca
:1046480086a9de00680113000229dd008128dd004b
:104658008702e8007b3cb900080042000480200083
:1046680004024000ea834300e00f530005003200d3
:1046780014ca690014409000024068001042980073
:104688000100370014ca68008502e8007b02420076
:10469800878f5200f4ff3a004f04be000000060066
:1046a800881f7800e00f50000b00320064ff800084
:1046b8000400a0000410a20064ff880074ff8000ba
:1046c800e10f520002003a00d3ff07000e00370046
:1046d8004efe07000c00370068ff8000620264008d
:1046e8000800320074ff8000e10f520002003a0017
:1046f800c9ff07000100370044fe07000810a100a9
:1047080068ff8800ec1fa9004f047800000006002d
:10471800881f780000047800ec3fab0006003200e8
:104728000000eb00deff070078ff88001000200083
:10473800dbff07000100370078ff88004f0478008e
:1047480000000600ec5fa80000000600ec5fa9006e
:1047580000000600889fbe008a1f780000057800c8
:104768000002eb00c1fa21000003eb006680400064
:10477800c322dd0085834000860b78008502400057
:10478800860a78000402e800e80f5200f8ff3a00b1
:10479800a83fef00aa3fef0005e1a9000421a90006
:1047a8006154b8000801be0000402200410f2000fb
:1047b80075f00700e10f4000e08f58000b0036004d
:1047c80014002000f6ff2f00070020008100d10010
:1047d8000080d30004024200860f5000878f5800e3
:1047e800faff3e00e10f520006003a00240880005c
:1047f8000440a1000450a100240888001008880083
:1048080020003700e80f52000a003e00240880000c
:104818000440a0000450a100240888000801be003c
:1048280000482800e101200057f007001008880020
:104838001400370005042000850f52000a003e00ce
:10484800240880000440a1000450a0002408880027
:104858000801be0000092d00310020004af00700c1
:104868001008880007003700000320000421b70063
:1048780044422f00110009000a82d8000002780083
:10488800140888008460a9009460a80005e1a800c5
:104898004f0578004f04be00000006000082eb00c0
:1048a800e00f510020003200ac1fab0007003200bf
:1048b80014002000c322dd00c6fa2100e6827a0037
:1048c800e182620014003a00010037000002eb00a8
:1048d800c322dd0037002000c6fa210007b37a00a2
:1048e800e18f500004003a00e6837a008502430015
:1048f8000720a000870a7800c322dd00e6fa21001d
:1049080000b37a000683e80000b37a000683e80063
:1049180002b37a00040037000402e800e80f5200ee
:10492800e4ff3a000082eb00040078000000060073
:10493800e70f50000b003e004302dd00c5fa2100de
:1049480065027a0061026200060032004300dd0061
:1049580005027800e4027800000042000510a0007b
:104968000508780000000600e70f50000f003e0021
:104978004302dd00c5fa210065027a006102620087
:104988000a0032004300dd000083e80005027800d9
:10499800e482420064037b0086327800e4027800f7
:1049a800000042000510a10005087800000006007c
:1049b800e80f500008003e004302dd00c5fa210060
:1049c80065027a00e00f5200030032004300dd0068
:1049d8000582e8000132780000000600e70f500069
:1049e80008003e004300dd00c5fa21008082420035
:1049f8000002eb00840a780025fb210000804200b9
:104a0800040878000000060040fd800051fd800089
:104a1800000006003600f800809fbe00829fbe009e
:104a2800849fbe00869fbe00889fbe008a9fbe00ee
:104a380044fd800055fd800061024200e0824a008a
:104a480044fd880055fd88000004eb0009fb2100a7
:104a58004342dd00c5fa210065027a006302620064
:104a6800e10f52001c003a004343dd00640243009a
:104a7800e5037a0006834400070be90065027a0023
:104a8800e00f520014003a00c345dd00668245007d
:104a9800050578006a027a00040001006a827d0038
:104aa80064026200060032000b0278008482e8008b
:104ab8000a03780066837a0086347a000600370095
:104ac8004342dd00c5fa210065037a0004824200f2
:104ad8000610a000060a78000804e800e80f540051
:104ae800dbff3a008460a9004f05be004f04be00fa
:104af8004f03be004f02be004f01be004f00be0074
:104b08003600f90000400600853f2000650888004f
:104b1800b4042000140c8800050c8800e50b200064
:104b2800a50c8800053e2000950c880074f68800c6
:104b3800c43a200064f68800c83eef00c403200091
:104b480054f688000000060005402000650888002b
:104b5800b4042000140c8800050c8800350c2000d3
:104b6800a50c8800653e2000950c880074f6880026
:104b7800443b200064f688001400200044f68800b6
:104b88002403200054f688000000060011e1a90063
:104b980055168000040021000482620002003200e1
:104ba800d9ff070001003700e7ff0700240c800049
:104bb8000400a0000410a1000420a000240c880018
:104bc80062a0a80084e0a90094e0a8004382a8009d
:104bd80042a2a800141280000420a0000430a10002
:104be8000440a00014128800300020004222b700c0
:104bf8004402a80041e2a80011e1a8000000060054
:104c0800a4f68000b5f6800000004200e0804a006b
:104c1800a4f68000b5f68000840f5000858f5800f8
:104c2800fbff3e0000000600e00f500002003a00c3
:104c3800d29ea90001003700d29ea80000000600fd
:104c480000a0fe00849fbe0084f680000402e800f5
:104c580084f6880075032000850f5200300032006a
:104c680007003e00e40f520019003200fe0f520008
:104c78001c003200e10f52004d003a000f003700cf
:104c880075102000850f52003400320004003e00e9
:104c9800f1825200850f520045003a001a00370091
:104ca800f5102000850f52002600320095132000d1
:104cb800850f52003e003a0033003700cc1ef80042
:104cc8008201f900800f20009621b60038003700d5
:104cd800500020009621b700ce1ef8008201f9008e
:104ce8003300370044f68000e00f520030003a00ed
:104cf800d29eab002e003a008660a9009660a800fc
:104d0800d27ea9002a00370044f68000e00f520046
:104d180027003a009660a900d27ea8002400370038
:104d280044f68000e10f520021003a00d29eab0009
:104d38001f003a008660a9009660a800d27ea900ec
:104d48001b00370044f68000e10f520018003a00bb
:104d58009660a900d27ea8001500370044f68000ae
:104d6800e00f520012003a00d03eef00a4f6800097
:104d7800b5f6800061024200e0824a00a4f688008d
:104d8800b5f688000a00370044f68000e10f5200ab
:104d980007003a00d03eef00a4f68000b5f6800088
:104da80061024200e0824a00a4f68800b5f6880055
:104db80084e0a9004f02be000080fe00004006000b
:104dc80000a0fe00849fbe00869fbe00cb22ab00e1
:104dd8001600320044f68000e00f520003003a004b
:104de80086f680007e0353000200370086f68000b6
:104df8007603b1007b33b900f47f2000040343003d
:104e08008002eb004022ab00feff3a005602fb0096
:104e1800441288008502e800fb8f5200f9ff3a002f
:104e28004022ab00feff3a004822ef008660a9004e
:104e38004f03be004f02be000080fe000040060087
:104e4800540c80000400a1000410a1000420a1005b
:104e5800540c880045ff210095427800a4cfb30088
:104e680004c2620004007800f4ffb70000000600e6
:104e7800e00f500001003200b0ff880042722200ab
:104e88008000eb001000200084fe0700c0ff8800af
:104e98008a61a8008821ef0013e1a9009408800026
:104ea8000440a0000450a1009408880000000600f7
:104eb800889fbe008a1f780001057800540c800086
:104ec8000400a1000410a1000420a100540c8800d3
:104ed8006104b8000801be0000242400f10020008d
:104ee800a9ee0700300c880013e1a9000801be00f4
:104ef80000482800e1012000a3ee07000002e900b5
:104f080074088800f41fa800540c80000400a00056
:104f18000410a1000420a000540c880013e1a8008c
:104f2800c0ff8000b4ff8000801f780011000900d6
:104f38000485d800800078004f0078009cfe0700a8
:104f4800c0ff800088fe07004f0578004f04be00b0
:104f580000000600d0ff88000002eb00900f12004e
:104f68000c003200000278008002eb00d48f12009f
:104f780008003200f43fa8008500a9009500a800a9
:104f880090007800d4ff880034007800d4ff8800af
:104f9800c7ff07000000060044ff21001442780004
:104fa800e04f520010003a0013e1a900740c2000f1
:104fb8007408880013e1a9008500a9009500a800dd
:104fc80013e1a800c4ff8000b5ff800011000900ac
:104fd8000580d8008000fd000400780074fe0700fa
:104fe800c0ff800060fe0700f45fa8000000060014
:104ff80044ff210014427800e04f5200fcff3a00c1
:10500800000006003600f800809fbe00829fbe00a8
:10501800849fbe00869fbe0044ff21001442780092
:105028006402620007003200adef0700e102600091
:10503800ca2add006416800004a0a10005027200df
:105048006416880044ff210014427800e04f5200a3
:1050580003003a009500a90013e1a90027003700d2
:1050680045ff21009542780044ff21001442780052
:105078008582fb0062026200848f52001f003a00a2
:10508800d4ff800034007800d4ff8800b400780092
:10509800d4ff8800e08f500015003200e00f500068
:1050a8000200320082ff070014003700c0ff8000b2
:1050b800b4ff8000801f7800110009008480d800a8
:1050c800800078004f00780039fe0700c0ff80009c
:1050d80025fe0700f41fa800540c80000400a0005f
:1050e8000410a1000420a000540c8800030037001d
:1050f800f47fef009500a90013e1a9008500a9003d
:105108004f03be004f02be004f01be004f00be005d
:105118003600f90000400600881f78000004780077
:105128006000200067ee0700e00f50000400320026
:10513800080878000002eb0024009800140098008a
:105148004f04780000000600889fbe008a1f780080
:1051580000057800810478000204780060002000cf
:1051680058ee0700e00f50001a00320019009800ae
:105178000a0878000002eb0024009800280290003a
:10518800e00f52000f003a0020049800140020009d
:10519800140498000f00370084027800250290005c
:1051a800e00f5200fcff3a0001003700840278004b
:1051b800a0029800180290000402e8001404980065
:1051c80004003700a4029000e08f5200f3ff3a0079
:1051d800f6ff37004f0578004f04be0000000600b8
:1051e800889fbe008a9fbe008c1f7800000478004c
:1051f8008305780002067800010578008c007800a5
:105208000a007800fafc07004efd07001800780035
:105218007afc07004dfd070028049000e00f5400b9
:10522800130032008004eb000c86e8008900460079
:105238000a007800eefc07008b8f540005003a0046
:1052480040fd0700180078006cfc07003ffd0700d0
:10525800020037001800780068fc07002804900056
:10526800e00f5400020032008904e800efff370025
:105278004f0678004f05be004f04be000000060030
:10528800889fbe008a9fbe008c9fbe008e1f78003c
:10529800800478000105780082057800030678000c
:1052a8000004eb000e022000ad0020008801780009
:1052b8000b0178008a00780009007800c8ff070011
:1052c8000c0078000a010700700260000400320038
:1052d800e00f54000c0034000804e9000a0037000d
:1052e8000e02600006003200190290000402e90074
:1052f800880f5200040034000804e8000200370058
:10530800640060000d003a000d0078003cfe0700c4
:10531800e6ff3700a50290000402e800880f52005b
:10532800fcff3a00150090004f0778004f06be00ba
:105338004f05be004f04be0000000600a00020007c
:105348002ffe0700a90290000002eb00840f540012
:10535800f0ff3c00f3ff3700881f78000004780056
:1053680028009000e00f500001003200faff07000b
:105378000800780074ee07004f047800000006006b
:10538800881f78000004780028009000f2ff0700ca
:10539800080078006cee07004f0478000000060053
:1053a800e6874700889fbe008a9fbe008c9fbe008c
:1053b8008e1f78000005eb00bbf62800c87e280089
:1053c800ee7f20008044eb000a007800f4042000ff
:1053d8000a02520001003b000002eb000305200016
:1053e800848151004240a900160034000b03780064
:1053f800f7042000038153000180200008003700d3
:10540800d46a7800860f5200fdff3a008703e9004e
:105418000000e90078035300828f53000a0032002d
:10542800783ab9000402e900080242007b06b90094
:10543800fcb79f008dbf9f008c02e800818242006c
:10544800efff37008001eb00830155004240a900bf
:10545800090034000303e9007b33b90014802000fd
:10546800040243007b1bb90086024700096a7800e2
:10547800850f5200fdff3a0010002000e0fd0700f4
:105488000a05e80044092000840f5500ceff3a00c1
:10549800410120002000200055fc07008049290018
:1054a800d6fb0700400b2000d5fd07004f0778000a
:1054b8004f06be004f05be004f04be006f00b1008e
:1054c800000006003700070040062000a1fc070086
:1054d800aefd0700a000200065fe0700b0ff070032
:1054e80000000600889fbe008a1f7800f5ff0700ad
:1054f800a04b290008ff0700000478000801780085
:1055080011002000604c29000fff070008017800f7
:1055180021002000604d29000bff070008017800da
:1055280031002000d04d290007ff0700d94d290080
:105538006a4d2900aafb070013002000b2002000d2
:10554800a1002000080078004dff0700e20f50007e
:1055580006003200e30f50000b003200e10f50004c
:10556800f4ff3a0044fa0700f2ff37006000b80081
:105578001ffc07000a007800a0fb0700c0032000fa
:105588009ffd0700ebff37006000b80018fc07001c
:105598000900780099fb0700c003200098fd070068
:1055a800e4ff3700163a8000f60bb20064042000ce
:1055b8007505200027742000844b7800854b7800ff
:1055c800864b780026368000f70f2e00070363000d
:1055d80000702000000373002636880030368000f3
:1055e80006fe2f00060060005001b3003036880028
:1055f800303680008703600000202100808373001c
:105608003736880047368000068363003601b300ca
:1056180046368800163a80000660a00027742000ed
:10562800844b7800854b7800864b7800c8a2a90087
:10563800c8c2a900c8e2a900c902a900c942a900b4
:10564800c922a800c982a8002d83a800c002a8000a
:10565800c022a800c802a900c822a9002c03a800db
:105668002c23a80000002700a620b700ac20b70014
:10567800440580003400b3000420a10044058800dc
:105688002405800004c0a10004d0a00004e0a1000b
:105698002405880000000600cc22a8004400200051
:1056a800000000000402e900fdff3a00cc22a90036
:1056b80044002000000000000402e900fdff3a0059
:1056c80000000600cc02a8004400200000000000f2
:1056d8000402e900fdff3a00cc02a90044002000c2
:1056e800000000000402e900fdff3a000000060087
:1056f800889fbe008a9fbe008c9fbe0080067800ef
:10570800e5ff07008004eb0009057800090478002c
:105718008005eb001c00200014168000e1026200e6
:10572800882add0005057500620262008b02780098
:10573800010032008862dd0085847400e1ff070003
:105748000804e800ef0f5400f3ff3a00e18f560019
:1057580004003a000a80ea00f4ff20000400600018
:10576800030037000980ea00f4ff2000040060000d
:105778004f06be004f05be004f04be0000000600e5
:020000040000fa
:10578800f41f0000040000000200000000000a00ee
:1057980000000000f81f00000400000000000000e6
:1057a800fc1f0000020000000200000000000000d2
:1057b800d81e0000d000000000000000a81f000054
:1057c8004400000000000000ec1f0000080000007a
:1057d80000000000fe1f00000200000002000000a0
:1057e8000400000000080000d816000000000000b7
:1057f8000020000010000000000000001020000041
:105808000600000000000000162000000200000052
:08581800000000000000000088
:020000040000fa
:020000040001f9
:0457f800be2b0000c4
:020000040000fa
:020000040001f9
:0457fc007f3f0000eb
:00000001FF
