:020000040000fa
:080000000002040000000000f2
:020000040000fa
:100008009402000094020000940200009402000090
:100018009402000094020000940200009402000080
:100028009402000094020000940200009402000070
:100038009402000094020000940200000a070000e5
:100048009402000094020000940200009402000050
:100058009402000094020000940200009402000040
:10006800940200009402000094020000400800007e
:100078009402000094020000940200009402000020
:100088009402000094020000940200009402000010
:100098009402000094020000940200009402000000
:1000a80094020000940200009402000094020000f0
:1000b80094020000940200009402000094020000e0
:1000c80094020000940200009402000094020000d0
:1000d80094020000940200009402000094020000c0
:1000e80094020000940200009402000094020000b0
:1000f80094020000940200009402000094020000a0
:10010800940200009402000094020000940200008f
:10011800940200009402000094020000940200007f
:10012800940200009402000094020000940200006f
:10013800940200009402000094020000940200005f
:10014800940200009402000094020000940200004f
:10015800940200009402000094020000940200003f
:10016800940200009402000094020000940200002f
:10017800940200009402000094020000940200001f
:10018800940200009402000094020000940200000f
:1001980094020000940200009402000094020000ff
:1001a80094020000940200009402000094020000ef
:1001b80094020000940200009402000094020000df
:1001c80094020000940200009402000094020000cf
:1001d80094020000940200009402000094020000bf
:1001e80094020000940200009402000094020000af
:0801f8009402000094020000d3
:020000040000fa
:10020800940200009402000094020000940200008e
:10021800940200009402000094020000940200007e
:10022800940200009402000094020000940200006e
:100238009402000094020000940200000a070000e3
:10024800940200009402000094020000940200004e
:10025800940200009402000094020000940200003e
:10026800940200009402000094020000400800007c
:10027800940200009402000094020000940200001e
:10028800940200009402000094020000940200000e
:1002980094020000940200009402000094020000fe
:1002a80094020000940200009402000094020000ee
:1002b80094020000940200009402000094020000de
:1002c80094020000940200009402000094020000ce
:1002d80094020000940200009402000094020000be
:1002e80094020000940200009402000094020000ae
:1002f800940200009402000094020000940200009e
:10030800940200009402000094020000940200008d
:10031800940200009402000094020000940200007d
:10032800940200009402000094020000940200006d
:10033800940200009402000094020000940200005d
:10034800940200009402000094020000940200004d
:10035800940200009402000094020000940200003d
:10036800940200009402000094020000940200002d
:10037800940200009402000094020000940200001d
:10038800940200009402000094020000940200000d
:1003980094020000940200009402000094020000fd
:1003a80094020000940200009402000094020000ed
:1003b80094020000940200009402000094020000dd
:1003c80094020000940200009402000094020000cd
:1003d80094020000940200009402000094020000bd
:1003e80094020000940200009402000094020000ad
:0803f8009402000094020000d1
:020000040000fa
:100400008fad20000e7f22000e018800000000004a
:1004100000012000200288000c000700a0912000ad
:100420000100200011000700000020000000e00093
:10043000020032000000020000000000e808020094
:10044000000000000040da000000fe004440a90067
:10045000603320000000e0000300320000002000b4
:10046000a00188004440a800000006009101880017
:10047000800078000000eb0015003700e2804000ab
:1004800032a0b4009101ba00e280400032a0b40072
:100490009102ba00e280400032a0b4000002eb00fa
:1004a000472bde00f507b200602ce10004003a00a3
:1004b0000059eb008301e900fdff3e000400370016
:1004c0006128e100010032000082eb000400070017
:1004d0001101ba000200e000e8ff3a000000060047
:1004e0003159ba008301e9000c0032002159ba00e9
:1004f0008301e900080032000400e00003003a0034
:10050000e280400032a0b400f5ff370011d9ba00f4
:100510008301e900faff3a008100e800e180400031
:1005200032a0b400000006000040da000000fe0027
:1005300000027800808f5000080031008282400065
:10054000808f5200050036000202400045627800ac
:100550000201e900fdff3a0000000600e00f510033
:1005600003003200315a78000201e900fbff370036
:10057000000006000002780002003700015a7800ef
:100580000201e900e00f5100fcff3a000000060004
:020000040000fa
:10059000000000000000000000000000000000005b
:1005a000080800000808000008000000080000001b
:1005b00014140000140000000000000000000000ff
:1005c000141400003e1400003e140000140000004b
:1005d000081e0000281c00000a3c00000800000063
:1005e0003032000004080000102600000600000061
:1005f00018240000281000002a2400001a0000001f
:1006000018080000100000000000000000000000ba
:100610000408000010100000100800000400000092
:10062000100800000404000004080000100000008e
:10063000000800002a1c00002a080000000000003a
:1006400000080000083e000008080000000000004c
:10065000000000000000000018080000100000006a
:1006600000000000003c000000000000000000004e
:10067000000000000000000000180000180000004a
:10068000000200000408000010200000000000002c
:100690001c220000262a0000322200001c0000005c
:1006a0000818000008080000080800003e000000cc
:1006b0001c22000004080000102000003e00000082
:1006c0003c020000023c0000020200003c0000006e
:1006d000040c0000142400003e040000040000008c
:1006e0003e200000203c0000020200003c00000010
:1006f0000c100000203c0000222200001c00000022
:100700003e0200000408000010100000100000006d
:100710001c220000221c0000222200001c000000fd
:100720001c220000221c0000020200001c0000002d
:100730000018000018000000181800000000000059
:100740000018000018000000180800001000000049
:100750000408000010200000100800000400000041
:10076000000000003e0000003e000000000000000d
:10077000100800000402000004080000100000003f
:100780001c22000002040000080000000800000015
:100790001c220000021a00002a2a00001c0000008f
:1007a0001c220000223e0000222200002200000045
:1007b0003c220000223c0000222200003c000000fd
:1007c0001e20000020200000202000001e0000004d
:1007d0003c22000022220000222200003c000000f7
:1007e0003e200000203e0000202000003e000000cf
:1007f0003e200000203e00002020000020000000dd
:100800001e200000202c0000222200001c000000fe
:1008100022220000223e00002222000022000000ce
:100820001c08000008080000080800001c00000068
:100830001e02000002020000022400001800000056
:10084000222400002830000028240000220000009c
:100850002020000020200000202000003e0000009a
:10086000223600002a22000022220000220000007e
:1008700022220000322a000026220000220000006e
:100880001c22000022220000222200001c00000086
:100890003c220000223c000020200000200000003c
:1008a0001c220000222200002a2600001e00000058
:1008b0003c220000223c000028240000220000000e
:1008c0001e200000201c0000020200003c0000006e
:1008d0003e080000080800000808000008000000aa
:1008e0002222000022220000222200001c00000020
:1008f0002222000022220000221400000800000032
:1009000022220000222a00002a36000022000000d5
:10091000222200001408000014220000220000001f
:100920002222000022140000080800000800000035
:100930003e04000008100000202000003e000000df
:100940001810000010100000101000001800000027
:100950000020000010080000040200000000000059
:100960000602000002020000020200000600000071
:100970000814000022000000000000000000000039
:100980000000000000000000000000003e00000029
:10099000100800000400000000000000000000003b
:1009a000000000001c0200001e2200001e000000cb
:1009b00020200000202c0000322200003c0000001b
:1009c000000000001c200000202200001c0000008d
:1009d00002020000021a0000262200001e00000091
:1009e000000000001c2200003e2000001c0000004f
:1009f0000c12000010380000101000001000000061
:100a0000000000001e220000221e0000021c000048
:100a1000202000002c3200002222000022000000d2
:100a2000000800000008000008080000080000009e
:100a3000040000000c040000042400001800000062
:100a4000202000002428000030280000240000009e
:100a50001808000008080000080800001c0000003a
:100a600000000000342a00002a22000022000000ba
:100a7000000000002c3200002222000022000000b2
:100a8000000000001c220000222200001c000000c8
:100a9000000000003c220000223c0000202000005a
:100aa000000000001a240000242c0000140600009e
:100ab000000000002c320000202000002000000078
:100ac000000000001c2000001c0200003c00000090
:100ad0001010000038100000101200000c00000080
:100ae0000000000022220000222600001a00000060
:100af0000000000022220000221400000800000074
:100b000000000000222200002a2a00001400000039
:100b10000000000022140000081400002200000061
:100b20000000000022220000221e0000021c000023
:100b3000000000003e040000081000003e0000001d
:100b40000810000010200000101000000800000035
:100b5000080800000808000008080000080000005d
:100b60001008000008040000080800001000000041
:100b700000000000102a0000040000000000000037
:100b80003e22000022220000222200003e0000003f
:100b90002020000020200000202000002020000055
:100ba000010100000101000001010000010100003d
:100bb000686500006c6c00006f200000776f00001b
:100bc000726c00006421000000200000323300003d
:100bd000343500003637000038390000303100006d
:100be0003233000034350000363700003839000059
:0c0bf00030310000327c000000000000ea
:020000040000fa
:100bfc00853f200065088800b4042000140c880090
:100c0c00050c8800c5082000750c8800053e2000e6
:100c1c00650c880034558800c43a2000245588009f
:100c2c00a82aef0000000600054020006508880097
:100c3c00b4042000140c8800050c8800c5082000a2
:100c4c00750c8800653e2000650c880034558800c2
:100c5c00443b200024558800140020004455880093
:100c6c00000006001021ef00551680000400210042
:100c7c000482620002003200ddff07000100370031
:100c8c00e9ff070054002000240c88008440a900d0
:100c9c0000702000a420b70000002700ac20b70093
:100cac0061e0a80084e0a900a620b70094e0a800a9
:100cbc008002eb00151288004382a80042a2a80013
:100ccc00c00120004222b700141280000400a100d1
:100cdc000410a000141288001400200024128800b4
:100cec0041e2a80011e1a8008002fd00b2eab700c1
:100cfc00b3eab7008002fd000000060074558000c6
:100d0c008555800000004200e0804a007455800048
:100d1c0085558000840f5000858f5800fbff3e00e6
:100d2c0000000600ac2aa800ac2aab00feff3a007b
:100d3c0000000600ac4aa80000000600b2eab700aa
:100d4c0001007800b3eab70000000600905580005f
:100d5c0000000600b456800065ab200080727a005b
:100d6c000402e800b4568800f0012000d62ab60030
:100d7c00ac0aa80000000600881f78000004780068
:100d8c0018407800e04f500004003200f1ff0700db
:100d9c0058407800e04f5000fcff3a004f047800b8
:100dac0000000600ac0aab00feff3a000000060093
:100dbc00a22820009181200000802000d9fd07008e
:100dcc00a4a8200018000900005aeb00000006003f
:100ddc00b36aec0034ab200014427800f84f520098
:100dec0008003600b36aef00b26aec0024ab2000b6
:100dfc0014427800fa4f520002003600b26aed003d
:100e0c00ebff07000000060000a0fe003600f80013
:100e1c00849fbe00869fbe00545580000402e800eb
:100e2c005455880075032000850f52002d003200a8
:100e3c0007003e00e40f520018003200fe0f520073
:100e4c001b003200e10f520049003a000f0037003e
:100e5c0075102000850f52002f00320004003e0058
:100e6c00f1825200850f520041003a001700370002
:100e7c00f5102000850f5200210032009513200040
:100e8c00850f52003a003a002e003700a40af800f1
:100e9c008201f9009021ef0070003700540020000f
:100eac00840c8800a60af8008201f9006b00370058
:100ebc0044558000e00f520068003a008660a9009b
:100ecc009660a800ac6aa900640037004455800005
:100edc00e00f520061003a009660a900ac6aa800cd
:100eec005e00370044558000e10f52005b003a0071
:100efc008660a9009660a800ac6aa900570037006c
:100f0c0044558000e10f520054003a009660a9004d
:100f1c00ac6aa8005100370044558000e00f520025
:100f2c004e003a00aa2aef007455800085558000c7
:100f3c0061024200e0824a007455880085558800a1
:100f4c004600370044558000e10f520043003a0040
:100f5c00aa2aef007455800085558000610242007a
:100f6c00e0824a0074558800855588003b003700a4
:100f7c00ac6aab0039003200ac2aab000a0032007c
:100f8c0005802000a2020900805aeb00ac2aa900bf
:100f9c000042eb000002fd00b2eab700b3eab70072
:100fac000002fd002d003700ac4aab0012003200ed
:100fbc0034ab200014427800b2cabf0035ab20001d
:100fcc00954278000482fb007902120092c1b300b2
:100fdc000440bc008582fb00050041000580200018
:100fec0005004000040178008000eb005efd070066
:100ffc00ac4aa90019003700ac0aab00170032004c
:10100c00b2cabf0035ab200095427800a4558000d1
:10101c0066ab200066427a008582fb0092c1b30069
:10102c000440bc008502410006802000850243007c
:10103c0006ceb300864a420065ff0700b42aec00d6
:10104c00f0012000b42ab600a5558000b4568000eb
:10105c00848f520001003a00ac0aa90084e0a90078
:10106c004f03be004f02be003600f9000080fe00a8
:10107c000040060000a0fe00849fbe00869fbe00bc
:10108c005516800004802000048262001e0032008d
:10109c0044558000e00f520005003a005055800086
:1010ac007e0050004302de00670060000400370041
:1010bc00505580007003b1004302de0067006000f1
:1010cc007922b9000680200084024300f983420093
:1010dc00862c28004022ab00feff3a003502fb00b4
:1010ec004322dd000002420066427a000482fb00cb
:1010fc0044128800878f5200f6ff3a004022ab0062
:10110c00feff3a004822ef008660a9004f03be00a4
:10111c004f02be000080fe0000400600163a800020
:10112c00f60bb20064042000750520002774200023
:10113c00844b7800854b7800864b780026368000ef
:10114c00f70f2e000703630000302100000373002b
:10115c00263688003036800006fe2f000600600020
:10116c002001b300303688003036800087036000e1
:10117c00007020008083730037368800573680005b
:10118c00068363004601b30056368800c8a2a90046
:10119c00c8c2a900c8e2a900c942a900c962a80036
:1011ac002d83a800c982a800163a80000660a00012
:1011bc0027742000844b7800854b7800864b780090
:1011cc0000000600889fbe008a1f7800d3ff07002e
:1011dc00a4fe07000004eb0009c8b3001ac8b30052
:1011ec008000eb0008007800d4fe0700094078006e
:1011fc00d8fe070010002000c0fe0700810120006f
:10120c0008007800cdfe07000a407800d1fe0700e8
:10121c0010002000b9fe07000804e800fb0f540082
:08122c00efff3a00ffff37005d
:020000040000fa
:1012340000080000d80200000000000000000000c8
:020000040000fa
:020000040001f9
:0457f800be2b0000c4
:020000040000fa
:020000040001f9
:0457fc007f3f0000eb
:00000001FF
